:020000040800F2
:10000000080E0020CD000008511C0008071700084A
:1000100000000000000000000000000000000000E0
:10002000000000000000000000000000551C000857
:100030000000000000000000531C0008571C0008CE
:10004000DF00000800000000DF000008DF000008FB
:10005000DF000008DF000008DF000008DF00000804
:1000600000000000DF000008DF000008DF000008DB
:10007000DF000008DF000008DF00000800000000CB
:10008000DF000008DF00000800000000DF000008BB
:10009000DF000008DF000008DF000008DF000008C4
:1000A000DF000008DF000008DF000008352100083D
:1000B000492100080448854600F0B0F80048004790
:1000C00095240008C046C046080E0020044880471A
:1000D00004480047FEE7FEE7FEE7FEE7FEE7FEE72F
:1000E000D51C0008B500000830B50B4601460020BD
:1000F0002022012409E00D46D5409D4205D31D462E
:100100009540491B2546954040191546521E002D25
:10011000F1DC30BDF0B51FB40646002082B00546C4
:100120004024019100901BE0019922460F46304681
:1001300000F020F8049A059B801A994110D31046CC
:100140001946224600F05AF8361A8F410197224686
:1001500001200021009F00F051F838184D41009017
:100160002046641E0028DFDC019B009829463246A9
:1001700007B0F0BD10B5202A04DB0846203AD04075
:10018000002110BD0B46D340D0402024A21A91403C
:100190000843194610BD10B5002200E0521C835CD4
:1001A0008C5CA34201D1002BF8D1D8B2E1B2401A45
:1001B00010BD000070B5104D002800D12868002443
:1001C00014E00A4602E09E4203D0521C1378002B32
:1001D000F9D1DAB2224307D0002B06D0002C04D08C
:1001E00000210170401C04E00446401C0678002EEB
:1001F000E7D12860204670BD2000002010B5202ADD
:1002000004DB0146203A9140002010BD914020239C
:100210009C1A0346E3401943904010BD064C01254B
:10022000064E05E0E36807CC2B430C3C984710349E
:10023000B442F7D3FFF742FFA8260008C8260008FB
:1002400072B6FEE7014620314A780023022A04D024
:10025000042282630B700120704730B40268146876
:100260000E25AC43146002681468640864001460CE
:100270000125046C2A46C06BA24042604D700B7091
:1002800030BC0020704770B50024014620314A7808
:10029000022A03D004218163012416E00268136856
:1002A0000E25AB431360026813685B085B001360A4
:1002B0000125036C2A469A40C36B5A604D70002298
:1002C0000A70416B002900D08847204670BD0000AD
:1002D00070B5044600F0C2F80546601C02D0044820
:1002E0000078241800F0BAF8401BA042FAD370BD81
:1002F000100000200B680022002B72D0F8B40127F8
:100300000B6897403B406DD00C79A407A40F012CDB
:1003100001D0022C10D1856854000326A640B543B5
:10032000CE68A6402E43866044680D79BC43ED0636
:10033000ED0F9540254345600C79E443A40708D0B0
:10034000C56854000326A640B5438E68A6402E43D8
:10035000C6600C79A407A40F022C0CD1D408A40009
:1003600027183D6A5407E40E0F26A640B5430E69D0
:10037000A6402E433E62056854000326A640B543BE
:100380000E79B607B60FA6402E4306604C68A4034C
:10039000A40F49D0284CA56901263543A561A4695D
:1003A000950834400094254CAD002F19BD68940782
:1003B000240F0F26A640B5430926F606B04201D108
:1003C000002611E01E4EB04201D101260CE01D4E68
:1003D000B04201D1022607E01B4EB04203D10326F2
:1003E00002E028E020E00526A6402E43BE60174D1F
:1003F0002C684E689C43F60300D51C432C606C6847
:100400004E689C43B60300D51C436C60AC684E68D4
:100410009C43F60200D51C43AC60EC684E689C43DC
:10042000B60200D51C43EC600B68521CD34000D0D0
:1004300065E7F8BC704770470010024000000140BB
:100440000004004800080048000C00480004014077
:10045000002A01D08161704781627047014880683D
:10046000704700001000002070B4024640325378FC
:10047000202B1DD11378012B1AD0012414702423B2
:10048000537003681D68A5431D6003681D6826033B
:10049000B5431D6003681D680D431D600068016859
:1004A00021430160202050700020107070BC704704
:1004B00070BC0220704770B4024640325378202B43
:1004C0001CD11378012B19D00125157024235370EA
:1004D00003681C68AC431C6003681C680F26360266
:1004E000B44309022143196000680168294301608F
:1004F000202050700020107070BC704770BC02202B
:1005000070470000002801D10120704770B50546F2
:100510000446403568780026002803D12E70204616
:1005200000F0EAF824206870206801684908490052
:1005300001600F216068090688432168086120680E
:1005400082680121C9038A438260E0680128A068AB
:1005500008D021229202104322689060E0680228AD
:1005600004D007E0226808439060F7E70120226882
:10057000C0025060206842680F4B1A4342602068F6
:10058000C2688A43C260616920690843A16909029F
:1005900008432168C860216AE0690843216808604F
:1005A00020680168012211430160666420206870A0
:1005B0002663AE70002070BD00800002FFB50546C6
:1005C00004464035687881B020287DD128780128FC
:1005D0007AD001202870FFF741FF064601220090E3
:1005E0001923D103204601F003F900286AD1212004
:1005F00068701020A87000276764039860620498F0
:1006000060856763618D3A48FF2908D9FF222285FA
:10061000C30200902046029901F0D6F80AE0618DED
:1006200021850090208D0123C2B25B0620460299ED
:1006300001F0CAF8608D00283DD0324620460A9964
:1006400001F031F900283DD1606A216800788862A4
:10065000606A401C6062608D401E6085208D401E77
:1006600080B22085618D002922D0002820D10096FB
:100670000022802120460A9B01F0BAF8002821D1EF
:10068000608DFF2809D9FF22228501231B060097D0
:100690002046029901F098F80AE0608D20850097C5
:1006A000208D0123C2B25B062046029901F08CF82E
:1006B000608D0028C1D1324620460A9901F0C8F861
:1006C000002804D0012000E00FE005B0F0BD206854
:1006D0002021C16120684268064B1A40426069705F
:1006E000AF702F70002005B0F0BD022005B0F0BD46
:1006F0000020008000E800FE10B586B000210091C7
:1007000001910291039104910068114988421DD121
:10071000104C6169012080040143616161690140FD
:100720000320059180020090122001900320039085
:100730000120049069460848FFF7DCFDE1690120CB
:1007400080050143E161E1690140059106B010BDFA
:100750000058004000100240000400480248816830
:1007600002788918816070471000002010B5064893
:100770000168102211430160002000F007F800F02A
:1007800027F8002010BD00000020024070B504468C
:100790000D4D7D202978C000FFF7A6FC01460B48CF
:1007A0000068FFF7A1FC00F099FB002809D1042C98
:1007B00007D200222146401E00F02AF800206C607B
:1007C00070BD012070BD0000100000201C00002042
:1007D000084881B08169012211438161816911401A
:1007E0000091C26901040A43C261C06908400090D7
:1007F00001B0704700100240002805DBC106C90E99
:1008000001208840014908607047000000E100E0D5
:100810008207D30EFF229A408907090E99400028CB
:1008200008DB830809489B001818036893430B43AF
:10083000036070470007000F0838830804489B00D6
:100840001818C36993430B43C361704700E400E089
:1008500000ED00E0F8B504460068394EC0035AD5F3
:10086000F0690025C00007D4F06931040843F06145
:10087000F06908400125009032480168C90515D487
:100880000068FF21013108432E490860FFF7E6FDAB
:1008900007462C480068C00508D4FFF7DFFDC01BE1
:1008A000642825D827480068C005F6D5306A03219A
:1008B0000902084021D062680A4082421DD0306A95
:1008C000326A8843012109040A433262326A8A4348
:1008D00032623062C00710D0FFF7C0FD0746306AB1
:1008E00080070AD4FFF7BAFDC11B1748814201D91E
:1008F0000320F8BD306A8007F4D5306A032109026D
:100900008843616808433062002D04D0F0690121FA
:1009100009078843F0612078C00705D0306BA168D3
:1009200080088000084330632078800605D5306B4E
:1009300010218843E168084330630020F8BD0000BF
:10094000001002400070004088130000002801D110
:1009500001207047F8B504463E480D460068C007C0
:10096000C00FA8420AD23B48016849084900294300
:1009700001600068C007C00FA84250D12068364E01
:1009800081070CD5400704D5706807210902084388
:1009900070607068F0218843A16808437060207817
:1009A000C0072CD0606801281BD0316802281CD0F9
:1009B000890734D571688908890001437160FFF7A0
:1009C0004DFD7168074662680C200140920091421B
:1009D00015D0FFF743FDC11B2048814208D90320F1
:1009E000F8BD316889031AD5E4E7890117D5E1E735
:1009F00070680C210840616889008842E9D1154877
:100A00000168C907C90FA9420BD901684908490003
:100A1000294301600068C007C00FA84201D001202F
:100A2000F8BD2078400706D5706807210902884381
:100A3000E1680843706000F027F87168084A090609
:100A4000090F515CC840074908600020FFF79EFE6F
:100A50000020F8BD00200240001002408813000072
:100A6000902600081C0000200448054900684968D9
:100A7000044A4905490F515CC84070471C000020DA
:100A800000100240A026000810B514A00FC888B0BE
:100A90006C460FC415A00FC80FC4184A53680C2029
:100AA000194601401648042916D0082914D1990284
:100AB000090F6C46645CD16A04AA0907090F525CED
:100AC000D90305D500231946FFF724FB214601E091
:100AD00020460C4901F0C2FB08B010BD020304051A
:100AE000060708090A0B0C0D0E0F10100102030473
:100AF00005060708090A0B0C0D0E0F100010024026
:100B000000127A0000093D00002801D10120704741
:100B1000F8B504460078EE4DC00754D06868000769
:100B2000800F012807D068680007800F022809D1CC
:100B30006868C00306D52868800344D5606800282B
:100B400074D040E0606801280CD00121890400289D
:100B50000DD0052825D02A68881082432A6028688D
:100B600088430BE0286801210904084306E028684F
:100B70000122120490432860286888432860606836
:100B8000002812D0FFF76AFC0646286880031AD4B2
:100B9000FFF764FC801B642873D828688003F7D5AE
:100BA00011E0286808432860DCE7FFF757FC064699
:100BB0002868800307D5FFF751FC801B642860D8A4
:100BC00028688003F7D42078800741D5686800073B
:100BD000800F07D068680007800F022809D1686875
:100BE000C00306D42868800718D5E06801281DD105
:100BF00014E0E0680028286819D001210843286023
:100C0000FFF72CFC06462868800707D4FFF726FC70
:100C1000801B022835D828688007F7D52868F82176
:100C200088432169C9000843286011E04CE140086D
:100C300040002860FFF712FC06462868800707D5A9
:100C4000FFF70CFC801B02281BD828688007F7D40C
:100C50002078000727D5E0690028686A12D00121B2
:100C600008436862FFF7FAFB0646686A80071AD4F1
:100C7000FFF7F4FB801B022803D8686A8007F7D5CA
:100C800011E08BE0400840006862FFF7E7FB064692
:100C9000686A800707D5FFF7E1FB801B02287DD833
:100CA000686A8007F7D4207804264007002866DAAF
:100CB000E8690027C00007D4E869B1060843E86185
:100CC000E86908400127009082480168C90515D4E9
:100CD0000168801501437F480160FFF7BFFB00906A
:100CE0007C480068C00509D4FFF7B8FB0099401A9A
:100CF00064287DD877480068C005F5D5A06801282C
:100D00000AD0002801D005281ED0286A40084000DB
:100D10002862286AB04302E0286A01210843286259
:100D2000A068002814D0FFF799FB0090286A80077C
:100D30001ED4FFF793FB0099411A6748814257D8A8
:100D4000286A8007F5D513E0286A30432862E3E774
:100D5000FFF784FB0090286A800709D5FFF77EFB28
:100D60000099411A5C48814242D8286A8007F5D42C
:100D7000002F04D0E869012109078843E861207841
:100D8000C0061BD56069012834D0401D686B4ED069
:100D900030436863686B4008400000E028E0686307
:100DA000FFF75CFB0646686B800707D5FFF756FB2D
:100DB000801B02281CD8686B8007F7D4206A0028A3
:100DC00068D069680907890F022968D001263606AC
:100DD000022828682ED0B0432860FFF73FFB044666
:100DE0002868800172D5FFF739FB001B022852D911
:100DF0000320F8BD686B30436863686B01210843CA
:100E00006863FFF72BFB0646686B800707D4FFF784
:100E100025FB801B0228EBD8686B8007F7D5686B31
:100E2000F8218843A169C90008436863C6E7B04355
:100E30006863F4E7B0432860FFF710FB07462868B3
:100E4000800107D5FFF70AFBC01B0228D0D828680D
:100E50008001F7D4E86AE16A000900010843E8620A
:100E6000616AA06A084369683D22120491430843FD
:100E70006860286830432860FFF7F0FA0446286865
:100E8000800123D4FFF7EAFA001B0228B0D82868B3
:100E90008001F7D51AE028688001A4D416E0012863
:100EA000A7D06868E96A01221204636A02409A4284
:100EB0000AD10907E26A090F914205D10F2189047D
:100EC0000840A16A884201D00120F8BD0020F8BD89
:100ED0000010024000700040881300000B4910B45D
:100EE000401E884202D910BC012070470849486161
:100EF00008480722C3691B021B0A4C042343C36131
:100F0000002088610A6110BC70470000FFFFFF00ED
:100F100000E000E004ED00E002462032137F012BE8
:100F200001D102207047F0B40126167702235377CF
:100F300003685D689C687027BD430F682F435F603E
:100F40000068094B984205D0084B984202D0084BE4
:100F5000984204D1802349689C432143816056779D
:100F600000201077F0BC7047002C014000040040C6
:100F700000400140002801D10120704770B50546AE
:100F800004462035687F002803D12877204600F0EA
:100F900015F802206877211D206800F09DFE0120D1
:100FA0004034A071A877E87720706070A070E0707E
:100FB000207160716877002070BD000000680749EB
:100FC00081B0884207D10648C26902210A43C26142
:100FD000C0690840009001B0704700000004004064
:100FE0000010024000220346944620331A7F012A53
:100FF00002D001221A7701E002207047F8B50222E0
:101000005A77026894687725FF26AC433602B443CA
:1010100094600A6870240725502A3FD00CDC202AEF
:1010200079D004DC002A76D0102A20D192E0302A30
:1010300071D0402A1BD16FE0602A4CD0702A1ED09C
:1010400001242403121B14D0A24210D102688F681D
:101050004C68C968956809022143B543394329435F
:1010600091600068816801229203114351E00120E0
:10107000844601205877002018776046F8BD026842
:101080008F684C68C968956809022143B5433943A4
:1010900029439160006881687722E6E702684E681C
:1010A0000096CF68166AB646166A7608760016620B
:1010B0009669F0218E433901314377460A26B743BA
:1010C000009E916137431762006850228168A143F6
:1010D000114329431DE002684F680097C968166AEA
:1010E0008E461027BE4316629769166A0F210903C0
:1010F0008F43714609033943A027BE43009F916186
:101100003F0137431762006860228168A1431143A1
:1011100029438160ADE71DE002684E680096CF6804
:10112000166AB646166A7608760016629669F02147
:101130008E433901314377460A26B743009E9161B9
:1011400037431762006840228168A1431143294355
:1011500081608EE700688168A14311432943816063
:1011600087E7704770470000F8B502680446D06909
:10117000116896689F4B05461D402023002D76D0B0
:10118000F7079D4DFF0FBC460D402F436ED02546FF
:10119000C7078035002F06D0CF0504D50127176279
:1011A0002A683A432A60820708D5F20706D02768E2
:1011B00002223A622A6804273A432A60420708D585
:1011C000F20706D02668042232622A6802263243D9
:1011D0002A6002070AD50A461A406646324305D0FD
:1011E0002668082232622E6816432E60020508D552
:1011F0004A0106D501222668D20232622A681A43C1
:101200002A602A68002A2FD0800606D5880604D5D1
:10121000616E002901D020468847286821688968C6
:10122000490602D4282108422DD0204600F03AFE7B
:1012300020688168490622D5EFF31081012282F3EC
:101240001088836840229343836081F31088206F65
:10125000002814D069494163206FFFF714F8002873
:1012600002D0206F416B8847F8BD00E011E0850691
:101270000FD58D060DD5616E00297CD1F8BD2046B5
:10128000FFF770FFF8BD2046FFF76CFF00202860D5
:10129000F8BD256E012D6FD1C5066DD5CD066BD578
:1012A00010271762206881682546490640350029C5
:1012B00048DA226F116849680904090CE8D02E8BBE
:1012C0008E42E5D969839169202933D0EFF31081EB
:1012D000012282F3108802683E01B243026081F36A
:1012E0001088EFF31081012080F310882068826855
:1012F00052085200826081F31088EFF310810120C0
:1013000080F310882068866840229643866081F3C7
:101310001088E36700202066EFF31081012080F33E
:10132000108820680368BB43036081F31088206F36
:10133000FEF788FF288B698B401A81B22046FFF7A1
:1013400010FFF8BD298B6A8B891A6A8B89B2002A33
:10135000F7D00029F5D0EFF31082012585F310882E
:101360000568FF262136B543056082F31088EFF348
:101370001082012001E023E01BE080F31088206848
:1013800085686D086D00856082F31088E367002032
:101390002066EFF310826066012080F310882068D9
:1013A0000368BB43036082F310882046FFF7D9FE31
:1013B000F8BD050607D50D0605D5A16E0029F7D0A5
:1013C00020468847F8BD4006FCD54806FAD5204699
:1013D000EFF31081012484F3108814684025AC4396
:1013E000146081F3108883670021816600F08AF918
:1013F000F8BD00000F08000020010004911E000845
:10140000002801D10120704710B50446806F0028E4
:1014100005D1002174200155204600F027F8242032
:10142000A06720680168490849000160204600F073
:1014300069FD012818D0606A002802D0204600F01B
:101440008FFC206841680122D202914341602068EC
:10145000816808229143816020680168012211435C
:101460000160204600F0E2FC10BD000070B586B0BF
:101470000021009101910291039104910168244E91
:1014800001230920234A5B0402240125C006B1423E
:101490001DD19169DE10314391619169314005910F
:1014A0005169194351615169019419400591032112
:1014B000490200910321039104956946FEF71AFF42
:1014C000002211461B20FFF7A3F91B201BE0124E40
:1014D000B1421AD1D1691943D161D169194005913D
:1014E00051691943516151690495194005910C21C5
:1014F000009101946946FEF7FDFE002211461C2072
:10150000FFF786F91C20FFF777F906B070BD0000E1
:10151000003801400010024000440040FFB504467E
:10152000C06F85B016460F46202874D1002F0AD010
:10153000002E08D0A168C001814207D1206900288F
:1015400004D1F80702D0012009B0F0BD2046603078
:101550000090007D01285ED00098012101750020D7
:10156000802108512221E1672066FEF777FF25469A
:10157000403502902E836E830121A0680903FF226B
:10158000884205D12369002B0AD1244AAA8308E0A6
:10159000002801D0002203E02369002B00D07F2225
:1015A000AA8392B20192884202D12069002817D002
:1015B0003E460027009900200875688B00281FD040
:1015C0000198C0B203900898009000222021204684
:1015D000029B00F033FD002804D0032009B0F0BDC9
:1015E0000026E7E72068002E808C0FD00399084082
:1015F0003070761C688B401E6883688B0028E2D1AF
:101600002020E067002009B0F0BD04E00199084007
:101610003880BF1CEEE7022009B0F0BDFF010000DA
:10162000FFB50446806F83B015460F46202866D16B
:10163000002F0AD0002D08D0A168C001814207D137
:101640002069002804D1F80702D0012007B0F0BDBE
:10165000204660300090007D012850D00098012184
:1016600001750020802108512120A067FEF7F6FEB9
:10167000264640360190358275820120A16800031C
:10168000814202D12069002812D03D4600270099EE
:1016900000200875708A002818D006980090002253
:1016A00080212046019B00F0C9FC002818D101E0F0
:1016B0000025ECE7002D16D02168287808856D1CE0
:1016C000708A401E7082708A0028E6D106980090C9
:1016D000002240212046019B00F0B0FC002809D0E8
:1016E000032007B0F0BD38882168C005C00D08850B
:1016F000BF1CE5E72020A067002007B0F0BD022056
:1017000007B0F0BD7047FEE701688A69D2439207CF
:1017100001D400228A6200688169C943C90703D0E5
:10172000816901221143816170470000F8B50446C8
:1017300000680E4681691746C943C9063FD441680F
:10174000890104D441680122920311434160206859
:1017500080692546C0438006403500280DDA701C9C
:1017600006D0FEF77BFEC01BB0421ED8002E1CD058
:1017700020688069C0438006F1D420681021C161CF
:1017800020682026C6612046FFF7BEFF206841681A
:101790000C4A11404160606C0421084360646E7023
:1017A0000020A87028700120F8BD616C2020014342
:1017B000616468700020A87028700120F8BD0020C6
:1017C000F8BD000000E800FEF0B40068049C456825
:1017D000660D8905890D054F120411433E431943D7
:1017E000B54321430D434560F0BC7047FF63FF03E1
:1017F000F8B5044600680E4681691D461746304616
:10180000884316D00020B84211D1681C07D0FEF7DB
:1018100025FE0699401AA8420DD8002D0BD020684D
:1018200081693046884311D00020B842EDD00020B5
:10183000F8BD0120E7E7616C20200143616440347A
:1018400060700020A07020700120F8BD0120ECE73E
:1018500070B504460068164680690D46C043800690
:1018600014D5324629462046FFF760FF002801D0F4
:10187000012070BDFEF7F2FD801BA84208D8002DA4
:1018800006D020688069C0438006EAD4002070BD7D
:10189000616C202001436164403460700020A070BE
:1018A0002070012070BD70B504460068164680693E
:1018B0000D46C043800716D5324629462046FFF71D
:1018C00035FF002801D0012070BD681C06D0FEF74E
:1018D000C5FD801BA84208D8002D06D0206880696D
:1018E000C0438007E8D4002070BD616C2020014314
:1018F0006164403460700020A0702070012070BDD1
:1019000010B5012000F03CF810BD10B53220FEF7F4
:10191000DFFC302000F034F80520FEF7D9FC302041
:1019200000F02EF80120FEF7D3FC302000F028F85C
:101930000A20FEF7CDFC202000F022F80A20FEF756
:10194000C7FC282000F01CF80120FEF7C1FC08208D
:1019500000F016F80120FEF7BBFC012000F010F8A3
:101960000120FEF7B5FC0120FEF7B2FC062000F0D6
:1019700007F80120FEF7ACFC0C2000F001F810BDC8
:10198000010910B5090182B00C230A461A436C46BE
:101990002271082211430001617101461943A171AE
:1019A0001043E07164200090042301AA4E210248F4
:1019B000FEF704FE02B010BD68080020010910B552
:1019C000090182B00D230A461A436C46227109228E
:1019D00011430001617101461943A1711043E07187
:1019E00064200090042301AA4E210248FEF7E6FD80
:1019F00002B010BD68080020F0B50446007883B03E
:101A000000281CD00D250926642720786B46010983
:101A100009010A462A431A713143000159710146EE
:101A2000294399713043D871042301AA4E210548F6
:101A3000641C0097FEF7C2FD20780028E5D103B0B2
:101A4000F0BD00006808002010B5012806D002286B
:101A500006D0032806D0042807D105E0802104E041
:101A6000C02102E0942100E0D421C8B2FFF788FF32
:101A700010BD000030B587B00024254800940194C3
:101A800002940394049442690121C9040A43426107
:101A900042690A4005924269C9000A4342614269AB
:101AA0000A400592426949110A43426142690A406B
:101AB0000592426949000A4342614069092508408C
:101AC000ED060590002221212846FEF7C1FC0120E9
:101AD00040030090212000040190694602940D48C3
:101AE000FEF708FC21200090012001900294694635
:101AF00003942846FEF7FEFBFF200130009001947E
:101B0000694602940448FEF7F5FB07B030BD0000BB
:101B100000100240000800480004004810B51348B7
:101B200011490160124941600021816001614161F8
:101B300081610122C161C2600162FEF7E3FC0028FD
:101B400001D0FEF77DFB00210848FEF78DFC002840
:101B500001D0FEF775FB00210448FEF7ACFC00281D
:101B600001D0FEF76DFB10BD005800406808002052
:101B70005D3E302010B586B00024009416480194D4
:101B80000294039404941349059401603021846005
:101B90004160046111498461C160FFF7EBF90028DD
:101BA00001D0FEF74DFB01200003009069460A4872
:101BB000FFF718FA002801D0FEF742FB049404A9AD
:101BC00005480594FFF7A8F9002801D0FEF738FB77
:101BD00006B010BD00040040B4080020FFFF000064
:101BE00010B50C480A490160E12149024160002119
:101BF0008160C16001618161C1610C220162426149
:101C00004162FFF7FDFB002801D0FEF719FB10BD74
:101C100000380140FC08002010B50C480A4901605A
:101C2000E1214902416000218160C160016181615F
:101C3000C1610C22016242614162FFF7E1FB0028B1
:101C400001D0FEF7FDFA10BD0044004080090020DD
:101C5000FEE77047704710B5FEF780FD10BD70B508
:101C600094B0002409940E94102013940594022536
:101C70000490019402940D940F9405200694079407
:101C8000129401260095C0040B940C9403960A90BC
:101C90001094119408956846FEF736FF002801D08D
:101CA00072B6FEE707200C900E9401210D950F945B
:101CB0000CA8FEF74BFE002801D072B6FEE710A874
:101CC00010961294FEF7C6FD002801D072B6FEE70A
:101CD00014B070BD70470000F0B402681A4B1B4C82
:101CE000984201D0A04203D17025AA434D682A43EF
:101CF000174D184E184F98420AD0A04208D0174CE2
:101D0000A04205D0A84203D0B04201D0B84204D1CD
:101D100003242402A243CC6822438024A2434C69BA
:101D2000224302608A68C2620A688262984205D0D1
:101D3000A84203D0B04201D0B84201D10969016381
:101D400001214161F0BC7047002C014000040040BB
:101D50000040014000440140004801400020004094
:101D600010B4818CC90707D001684A6801235B045D
:101D70009A43836A1A434A60818C890707D50168B0
:101D80004A6801231B049A43C36A1A434A60818C40
:101D9000490707D501684A6801239B049A43036BEE
:101DA0001A434A60818C090707D501684A680123F4
:101DB000DB039A43436B1A434A60818CC90607D5FB
:101DC00001688A6801231B039A43836B1A438A6064
:101DD000818C890607D501688A6801235B039A43D1
:101DE000C36B1A438A60818C490612D501684B681F
:101DF00001221205046C934323434B60016C914212
:101E000007D101684A6803235B059A43436C1A4370
:101E10004A60818C090607D501684A680123DB0402
:101E2000806C9A4302434A6010BC7047F8B5044680
:101E3000002580300560FEF711FB0746206800682A
:101E4000124E000709D501213B46002249052046D4
:101E5000009600F0F3F800280DD1206800684007D4
:101E60000BD501213B46002289052046009600F053
:101E7000E5F8002801D00320F8BD2020A067E06726
:101E80002566603425750020F8BD0000FFFFFF01C6
:101E900010B5406A0022014640314A834A82FFF76A
:101EA00061F910BD10B4EFF31082012181F31088A5
:101EB00001680B68FF242134A3430B6082F3108870
:101EC000EFF31082012181F3108801688B685B08B1
:101ED0005B008B6082F31088016E01290AD1EFF359
:101EE000108281F3108801680B681024A3430B60F3
:101EF00082F310882021C16700210166416610BC71
:101F00007047000070B5044681680069E2690143CA
:101F1000606900251043014320680268404B1A4065
:101F20000A43026020684168032212039143E26879
:101F300011434160216AA0690143206882680B2334
:101F40001B029A430A43826036492068884210D1B6
:101F50003548006B8007800F11D0012805D002287A
:101F600005D003280AD1022009E0042007E0082058
:101F700005E02E49884201D1002000E01020012216
:101F8000E369D2032A492B4E934224D1002806D07C
:101F9000022807D0042807D0082838D108E0FEF727
:101FA00063FD03E00A4603E0FEF76EFD020032D057
:101FB000616850004A088018FEF796F880B2014622
:101FC0001039B14223D81C4901400007420F206854
:101FD0000A43C2601FE0002806D0022807D0042868
:101FE00007D0082813D108E0FEF73EFD03E00A46BB
:101FF00003E0FEF749FD02000DD061684808801833
:10200000FEF772F880B201461039B14201D90125BC
:1020100001E02168C86000206066A066284670BDA7
:10202000F369FFFF00380140001002400044004007
:1020300000127A00EFFF0000F0FF0000FFB5044639
:10204000006881B00E460A9DC16917463046884334
:102050003FD00020B84268D1204660300090681C14
:102060005BD0FEF7FBF90499401AA84233D8002D43
:1020700031D02068016849074FD5C069C0430005C9
:102080004BD401202168C0020862EFF310810120C7
:1020900080F3108820680268FF23A1339A4302600E
:1020A00081F31088EFF31081012080F310882068FD
:1020B000826852085200826081F310882020A06755
:1020C000E06780342060009900200875032005B087
:1020D000F0BD0120BEE7EFF31081012080F31088EE
:1020E00020680268FF23A1339A43026081F31088BD
:1020F000EFF31081012080F3108820688268520875
:102100005200826081F310882020A067E067009968
:1021100000200875032005B0F0BD2068C169304675
:10212000884305D00020B84299D0002005B0F0BD0A
:102130000120F8E710B5034800F010F80148FFF758
:1021400013F810BDFC08002010B5034800F006F895
:102150000148FFF709F810BD8009002070B401683C
:10216000CB690A682E4D2F4C9E0626D5960624D59F
:10217000CA69898C2C4AC9B2A8420FD11268D01DF5
:10218000FF30FA30036844685B1CDB05DB0D9C42C2
:1021900002D004681155036070BC7047A042FBD1A7
:1021A0009268D01DFF30FA30036844685B1CDB0581
:1021B000DB0D9C42EDD170BC70471B06FBD51206AF
:1021C000F9D58023A84216D1184A14685568AC4244
:1021D00004D108689843086070BC70475168144B7C
:1021E000595C53685B1CDB05DB0D53600068C269FA
:1021F000018570BC7047A042FBD10E4A1468556837
:10220000AC42E6D051680C4B595C53685B1CDB0553
:10221000DB0D53600068C269018570BC7047000027
:10222000FC0800208009002000000020300400206D
:102230003002002040080020400600200FB410B5F6
:1022400003A9044B044A029800F030F810BC08BC03
:1022500004B018477924000824000020F0B4040CCE
:102260008BB2264682B25E430D0C1046370C5843A3
:10227000360480190021794116466E43370C360426
:102280008019794126466E438919F0BC704702E0F7
:1022900008C8121F08C1002AFAD1704770470020F1
:1022A00001E001C1121F002AFBD17047FFB58DB0BC
:1022B0000F460546002606E025280AD0109A0F99F9
:1022C00090476D1C761C28780028F5D1304611B057
:1022D000F0BD00240121674A009400E004436D1C16
:1022E0002B780846203B98401042F7D128782E28BA
:1022F00015D10420044368786D1C2A280AD101CF27
:102300006D1C00900BE000990A22514330394018AF
:102310006D1C00902878014630390929F3D92878B6
:10232000692843D006DC0028D0D063280BD064286D
:1023300004D13BE073280FD075284CD0109A0F9928
:102340009047761C94E038786946087200204872FD
:1023500002A80190012003E0386801900020C043EA
:102360003F1D61070CD5002400E0641C00998C42DD
:102370000FDA8442F9DB0199095D0029F5D108E003
:10238000002400E0641C8442FCDB0199095D002903
:10239000F8D1361907E0019801990078491C01919C
:1023A000109A0F999047641EF5D261E00A200190BF
:1023B00001CF002802DA40422D2102E0210504D598
:1023C0002B216A461172012103E0E10701D020218F
:1023D000F7E70C9104E00A20019001CF00210C9155
:1023E0000BA90B9108E00199FDF77EFE0A460B99B7
:1023F0003032491E0B910A700028F4D10B9803A9C2
:10240000081A20300190600701D5009801E00120F2
:1024100000900199884203DD01460198081A00E006
:1024200000200024009006E002A8109A005D0F9999
:102430009047641C761C0C988442F5DB04E0109AEB
:1024400030200F999047761C0099481E0090002973
:10245000F5DC08E00B980B990078491C0B91109A59
:102460000F999047761C0199481E01900029F1DCD4
:102470006D1C28E70928010013B5044B01226946A9
:102480000348FFF7CDF8009802B010BDFFFF000031
:10249000800900208CB0FEF769F9FFF7E0FBFFF739
:1024A000E9FAFFF767FBFFF7B7FBFFF737FBFFF72B
:1024B00097FBFFF72AFA0120FFF7C6FA2FA0FFF7D4
:1024C0009BFA0220FFF7C0FA2FA0FFF795FA03202E
:1024D000FFF7BAFA2FA0FFF78FFA7D273F013846A2
:1024E000FDF7F6FEFFF70CFAFFF70FFA0220FFF7F1
:1024F000ABFA2BA0FFF780FA0420FFF7A5FA2EA075
:10250000FFF77AFAD220FFF73BFADF20FFF756FAFF
:10251000E720FFF735FA2520FFF750FA2A4C092665
:10252000F606294D2948FEF76BFF01221146304679
:10253000FDF78EFF7D23DB00292269462348FEF745
:10254000EDFF2946684600F045F80022012130469B
:10255000FDF77EFF1E48FEF753FFCE20FFF710FA6F
:10256000A068FFF749FAE220FFF70AFAE068FFF7F0
:1025700043FA3846FDF7ACFED3E700002057656C00
:10258000636F6D65200000002020202061742020F2
:10259000200000002020472D486F75736520000043
:1025A00054656D702E3A20202020202020202020ED
:1025B000202020430000000052656C2E48756D2ECF
:1025C0003A2020202000000048080020FC080020BD
:1025D00080090020F0B50E4687B023A1FDF7EAFD83
:1025E00000256F46002808D0A90078501EA10020C1
:1025F0006D1CFDF7DFFD0028F6D10024002D31DD34
:10260000A1006846405819A1FDF7D4FD0590FFF7D9
:1026100015FE16A10020FDF7CDFD074614A0059973
:10262000FDF7B9FD00280CD013A00599FDF7B3FD07
:1026300000280BD013A00599FDF7ADFD00280AD0A6
:102640000DE038467760FFF7F9FD08E03846B760DF
:10265000FFF7F4FD03E03846F760FFF7EFFD641C79
:10266000AC42CDDB07B0F0BD2B0000003A0000000B
:10267000446576696365000054656D7065726174C8
:102680007572650048756D696469747900000000B1
:102690000000000000000000010203040607080912
:1026A0000000000001020304C8260008000000200A
:1026B000280000008E220008F026000828000020D4
:1026C000E00D00009E220008000000000000000055
:1026D00000000000000000000100000004000000F5
:1026E0000000000000127A0000000000000000005E
:04000005080000B53A
:00000001FF
