:020000040800F2
:1000000078070020CD000008452B0008CF25000808
:1000100000000000000000000000000000000000E0
:10002000000000000000000000000000492B000854
:100030000000000000000000472B00084B2B0008C8
:10004000DF00000800000000DF000008DF000008FB
:10005000DF000008DF000008DF000008DF00000804
:1000600000000000DF000008DF000008DF000008DB
:10007000DF000008DF000008DF00000800000000CB
:10008000DF000008DD2B000800000000DF00000892
:10009000CD2B0008DF000008DF000008DF000008AB
:1000A000DF000008DF000008DF00000881320008E0
:1000B000913200080448854600F0DCFB0048004708
:1000C000793E0008C046C0467807002004488047B3
:1000D00004480047FEE7FEE7FEE7FEE7FEE7FEE72F
:1000E000CB2B0008B500000830B50B4601460020B8
:1000F0002022012409E00D46D5409D4205D31D462E
:100100009540491B2546954040191546521E002D25
:10011000F1DC30BDF0B51FB40646002082B00546C4
:100120004024019100901BE0019922460F46304681
:1001300000F020F8049A059B801A994110D31046CC
:100140001946224600F034F9361A8F4101972246AB
:1001500001200021009F00F02BF938184D4100903C
:100160002046641E0028DFDC019B009829463246A9
:1001700007B0F0BD10B5202A04DB0846203AD04075
:10018000002110BD0B46D340D0402024A21A91403C
:100190000843194610BDD2B201E00270401C491E4E
:1001A000FBD270470022F6E710B513460A46044614
:1001B0001946FFF7F0FF204610BD30B505462A4628
:1001C0000B4610781C78521C5B1C002801D0A04202
:1001D000F7D0002C03D0002802D06D1CEFE7284692
:1001E00030BD421C0178401C0029FBD1801A7047A9
:1001F00010B5002200E0521C835C8C5CA34201D14C
:10020000002BF8D1D8B2E1B2401A10BD30B5044687
:100210000020034600E05B1C934203D2E05CCD5C0F
:10022000401BF8D030BD03460A780270401C491CC0
:10023000002AF9D11846704770B5104D002800D13A
:100240002868002414E00A4602E09E4203D0521CB3
:100250001378002BF9D1DAB2224307D0002B06D055
:10026000002C04D000210170401C04E00446401C16
:100270000678002EE7D12860204670BD5C00002083
:10028000F0B51FB488B00B9909980024484009992B
:10029000C00F490049080991C0070B990090490017
:1002A00049080B9109990898A64608431CD00B9958
:1002B0000A98084318D0099801244000420D4800CC
:1002C000410D099824050003000B204309900B9869
:1002D0000003000B20430B9050181C4940180022CB
:1002E00001901446104605E0002001460DB0F0BD17
:1002F000032801DA034600E003239C46C11A0AAE34
:100300000AE05F0008ADED5B4F00F75B7D4300271F
:10031000AA187C41491C5B1E6145F2DD410004AB1B
:100320005A522104120C0A43240C401C0828DFDB1B
:10033000019802900099704601910090059B049AE3
:100340000799069800F0E4F8D0E700000DFCFFFFE5
:10035000C20FD207400040080BD0C10D0723DB01BC
:10036000C91840020905400A1143C2084007114359
:100370007047002001467047CB0FDB07490010B5DE
:10038000490802460A4307D00A0D07240903E4017D
:10039000090B121B002A01DC002010BDC900440F0C
:1003A0000C43C100E018D205801800F063F810BDBE
:1003B00010B5202A04DB0146203A9140002010BDF0
:1003C000914020239C1A0346E3401943904010BDFE
:1003D0000FB400B589B00CA900910B990023CB6034
:1003E000204B214A06930792042201921F4A02924F
:1003F0001F4A089202466B46002000F0F6FA09B048
:1004000008BC04B0184770B586B006460020C0434B
:100410000190002015460C4600910291049032464E
:10042000694604A8FFF7D4FF024604982118002D5E
:1004300005D0002801D0084600E020462860049836
:1004400000280DD0002A02DD0098884208D0081B41
:100450000190009432466946029404A8FFF7B8FF61
:1004600006B070BD410C0008610C0008FFFFFF7F63
:10047000BF080008002904DA401C490001D14008E7
:100480004000704770B40024050C05D1102400040E
:1004900002D1002921D01124050E01D10002083417
:1004A000050F01D10001241D850F01D18000A41C7E
:1004B000002801DB4000641C002908D020252E1BE9
:1004C0000D46F540A14000D0012129430843010613
:1004D0001B1B000ADB1D02D5002070BC7047DB052A
:1004E000181880180029F8DA401C4900F5D170BCB2
:1004F00040084000704710B5002B08DA0024401C6B
:10050000614192185B411A4301D14008400010BD7F
:10051000F0B51FB482B005460C0003D0084602F0C7
:10052000D3FE02E002F0D0FE2030024600902146C9
:100530002846FFF73DFF049B059A04460F461843E3
:100540001143084314D0184610431BD00098402193
:100550000A1A18460599FFF70DFE05460E46009A41
:1005600005990498FFF724FF084305D0012004E013
:100570002046394607B0F0BD0020C11705430E43A1
:100580002C43374300990E986305401A7905E40A15
:1005900000220C43FD0A0A3002D500200146E9E79B
:1005A0000105101969410C9C0D9D00196941FFF767
:1005B000A2FFDFE7F0B507460846584087B0C00FF6
:1005C000049048000E46590040084908BC1A88416A
:1005D00005D2384631461E4617460B46024658009D
:1005E000400810434DD0300D039040055900400D98
:1005F000490D0590401A0290402873DA1803012132
:10060000000B09050843019004980092002806D0C9
:100610001146019A494200209041009101900298B0
:1006200040210A1A01990098FFF7C2FE05460C46C0
:100630006B4607CB00F030F9C0197141039A0E0DDB
:100640000023D71756401A467A40164344D0049ADE
:10065000002A2DD0029A012A039A15DC1205C01A2D
:10066000914101263605001C7141D20F059ED2072B
:100670000093019202962A462346FFF749FF07B0EE
:10068000F0BD38463146FAE71605234A0F46B21840
:10069000C01AB74101210905001C4F4100187F41D4
:1006A000114618187941E20F10436D19644113E0A7
:1006B000E2076D0815436408C2071443039A012634
:1006C0001205C01A91413605001C7141CE07400841
:1006D00030434908C01851412A462346FFF70BFF13
:1006E000CDE7FFE7049801224000C117121A00234A
:1006F0008B4104983146C417381AA141EEE730B453
:100700000124E407634030BC54E730B40124E4071B
:10071000614030BC4EE700000000E0FFF0B50C4641
:100720005C4085B0E40FE40703944C0000266408A5
:1007300059009446490802460296224321D0624657
:100740000A431ED06200570D4A000E032303550DC5
:10075000012402462C492405781B1B0B360B40183C
:1007600023432643614600901C46501AB44103D3EC
:100770000098401C009002E0921800985B4100280D
:1007800003DA0020014605B0F0BD00200121090573
:100790000746864611E064461D46141BB54106D344
:1007A0006546521BB341744607430C43A646CD072A
:1007B00040084908284392185B4105460D43EAD199
:1007C0001046184313D06046194650407140084304
:1007D00006D06046101AB34106D20122002306E07B
:1007E00000220123DB0702E00122D24353100098CC
:1007F00074460105381C6141029C039D0019694142
:10080000FFF779FEBFE70000FD0300004A0009037F
:100810000123090B1B0519430A4B10B5520D9A42CF
:1008200002DA0020014610BD064B34339A4203DC45
:100830009A1AFFF79FFC10BD034BD218FFF7B8FDC3
:1008400010BD0000FF030000CDFBFFFF10B5002925
:1008500004DB0124E40740428C412146002B04DBE9
:100860001C460123DB075242A341994200D190422A
:1008700010BD0000064C0125064E05E0E36807CCDC
:100880002B430C3C98471034B442F7D3FFF716FCC7
:10089000644400088444000810B5202A06DBCB1706
:1008A0000846203A1041C1170B4306E00B4613419E
:1008B000D0402024A21A91400843194610BD10B51B
:1008C0000F21C0B2490200F01BFA10BDFFB5087835
:1008D00089B01546FF2805D0491C2D2804D00022D8
:1008E000002407E000240BE00122F9E70A235C431F
:1008F0000419491C0878FF28F8D1002A00D0644266
:10090000002004902A7801462D2A01D02B2A0FD1ED
:100910006D1C2D2A02D00022049209E00122FBE77F
:1009200000260A2233466D1C00F0ACF938187141DC
:100930002F78FF2FF4D10C9AA218069202460A4390
:1009400004D0FF23069A9133DA4205DA0021099890
:100950000A4606C00DB0F0BD0024B74AB54D264684
:10096000079200F0DFF9029006980391002801DA5F
:10097000474200E0074639050020AF4A001C5141BC
:100980000191009012E0F80707D022462B4630462E
:100990000799FFF775FC0646079122462B4610463D
:1009A0001946FFF76DFC04460D467F10002FEAD173
:1009B0000698019B0028009A0399029806DAFFF72F
:1009C000ADFE3246079BFFF7A9FE05E0FFF758FC96
:1009D0003246079BFFF754FC049A002A02D00122FA
:1009E000D2075140099A03C2B4E7FFB591B0002085
:1009F00009900025ED432E209E685C681F460190FB
:100A0000B9696D1C129888470090396A8847002898
:100A1000F6D10098401C0AD00D20C0018443002E5E
:100A200012DD00982B2809D02D280DD103E00020DD
:100A3000C04315B0F0BD012080020443B9696D1CAC
:100A400012988847761E009003A9600501D52D20D5
:100A500000E02B206A461073491C0CA80F910290ED
:100A60000AE0B9696D1C1298884700900120400285
:100A700004431398761E0560002E02DD009830288E
:100A8000EFD001990098884246D18020044308E0C5
:100A90000998401E09900120400204431399681CE4
:100AA0000860B9696D1C761E12988847009030283E
:100AB000EED031E00199884205D1200603D4802090
:100AC0000443761E1EE0009802F026FD002826D082
:100AD00001204002044307A90F980331761E884283
:100AE0000BD200980F99303808700F98401C0F9067
:100AF000200607D50998401E03E0200602D4099875
:100B0000401C0990A00502D51399681C0860B969BA
:100B10006D1C129888470090002ECBDC59E0002E07
:100B200057DD0098652801D0452852D1A00550D541
:100B3000032000028443B9696D1C761E1298884711
:100B40000090002E0CDD2B2804D02D2808D1FF208A
:100B500001300443B9696D1C12988847761E0090D5
:100B6000E00501D52D2100E02B21029801700298AB
:100B7000401C0290019025E00120400204430EA990
:100B800002980131761E88420ED2009802993038C0
:100B90000006000E087003D10299019881420AD91B
:100BA0000298401C029006E0E00501D5234801E0D0
:100BB000224840420990B9696D1C129888470090FC
:100BC00013980560002E04DD009802F0A5FC0028B3
:100BD000D2D1F969129888470F99FF2008700299BD
:100BE00003AA087000200A900B900CA90AA8099B80
:100BF000FFF76CFEA00502D40120C04319E72420B2
:100C0000044209D0E00713D138680B9A0A99031DF2
:100C10003B60006806C00BE00B990A98FFF7ACFB3D
:100C20000146E00704D13868021D3A60006801609F
:100C30002846FEE6000014400000F03FF1D8FFFF18
:100C40004268002A08D001680B78491C002B03D0A9
:100C5000521E06C0184670470121C160881E7047A9
:100C60004268002A0BD0C3680168002B07D1836853
:100C70008B4204D0491E521C06C000207047002041
:100C8000C0437047F0B51FB486B0002000900190BB
:100C900002900698069980B204900798090C020405
:100CA0000014114307900027089D099806913E46BD
:100CB0003C4603900398A9B20204000C03900498E8
:100CC0002D0C1543484300212246FFF771FBC7193D
:100CD000714110340E46402CECDB3846029AFFF787
:100CE00067FB009A019B801800905941029801917E
:100CF000103002904028CCDB00980BB0F0BD000013
:100D00007F2801D9002207E0054B42089A5CC00702
:100D100000D112091207120F0120904008407047BD
:100D2000C04300080EB5054A029200220092134605
:100D30000192FFF7EDFB03B000BD0000330400009B
:100D400072B6FEE730B5014620314A780023022A08
:100D500004D0042282630B70012030BD0268146845
:100D60000E25AC43146002681468640864001460C3
:100D70000125046C2A46C06BA24042604D700B7086
:100D8000002030BD70B50024014620314A78022A87
:100D900003D004218163012416E0026813680E2544
:100DA000AB431360026813685B085B0013600125A6
:100DB000036C2A469A40C36B5A604D7000220A7039
:100DC000416B002900D08847204670BD70B50446AD
:100DD00000F024F90546601C02D00448007824186D
:100DE00000F01CF9401BA042FAD370BD4C0000205B
:100DF000F0B5002253E0012393409E460B404DD0B6
:100E00009508294CAD002D19AC689607370F0F26B1
:100E1000BE403440A4460924E406A04201D1002487
:100E20000FE0224CA04201D101240AE0204CA04254
:100E300001D1022405E01F4CA04201D1032400E0AF
:100E40000524BC4064450FD11B4C27689F43276095
:100E500067689F436760A7689F43A760E7689F43F1
:100E6000E760AB68B343AB60046855000323AB4055
:100E70009C430460D408A4002418266A5507EF0E8A
:100E80000F25BD40AE432662C4689C43C4604468DD
:100E90007546AC43446084689C438460521C0B4696
:100EA000D340A8D1F0BD000000000140000400487C
:100EB00000080048000C004800040140F8B500227A
:100EC00094E0012797403B407ED00C79A407A40F03
:100ED000012C01D0022C10D1856854000326A640B5
:100EE000B543CE68A6402E43866044680D79BC4366
:100EF000ED06ED0F9540254345600C79E443A407CA
:100F000008D0C56854000326A640B5438E68A640A5
:100F10002E43C6600C79A407A40F022C0CD1D40870
:100F2000A40027183D6A5407E40E0F26A640B543D7
:100F30000E69A6402E433E62056854000326A64073
:100F4000B5430E79B607B60FA6402E4306604C682F
:100F5000A403A40F49D0284CA56901263543A561F7
:100F6000A469950834400094244CAD002F19BD6845
:100F70009407240F0F26A640B5430926F606B04273
:100F800001D100260FE01E4EB04201D101260AE039
:100F90001C4EB04201D1022605E01B4EB04201D1E9
:100FA000032600E00526A6402E43BE60174D2C68A0
:100FB0004E689C43F60300D51C432C606C684E6859
:100FC0009C43B60302D500E00FE01C436C60AC68A4
:100FD0004E689C43F60200D51C43AC60EC684E683A
:100FE0009C43B60200D51C43EC60521C0B681C46A7
:100FF000D44000D065E7F8BD001002400000014079
:101000000004004800080048000C004800040140AB
:10101000002A01D081617047816270470148806871
:10102000704700004C00002070B5024640325378F3
:10103000202B1CD11378012B19D0012414702423E8
:10104000537003681D68A5431D6003681D6826036F
:10105000B5431D6003681D680D431D60006801688D
:1010600021430160202050700020107070BD0220CC
:1010700070BD70B5024640325378202B1BD11378D7
:10108000012B18D0012515702423537003681C68A8
:10109000AC431C6003681C680F263602B443090287
:1010A00021431960006801682943016020205070C5
:1010B0000020107070BD022070BD70B5040012D009
:1010C0002420254640356870206801684908490099
:1010D0000160204600F0ECF8002060646870206336
:1010E000A870287070BD012070BD000070B50400AC
:1010F00006D02546403568780026002802D005E055
:10110000012070BD2E70204600F0EEF8242068709B
:10111000206801684908490001600F2160680906DC
:10112000884321680861206882680121C9038A43D5
:101130008260E0680128A06808D021229202104352
:1011400022689060E068022802D005E00843F7E7D3
:1011500001202268C0025060206842680F4B1A4389
:1011600042602068C2688A43C2606169206908439E
:10117000A169090208432168C860216AE06908433F
:1011800021680860206801680122114301606664DB
:10119000202068702663AE70002070BD00800002C1
:1011A000FFB5054604464035687881B0202878D1DF
:1011B0002878012875D001202870FFF72FFF0746F7
:1011C000012200901923D103204601F06BFA002878
:1011D0003CD1212068701020A87000266664039816
:1011E0006062049860856663618D2F48FF2903D98A
:1011F000FF22228500903BE0618D218500903DE03B
:101200002046029901F03AFA16E001F098FA002817
:101210001CD1606A216800788862606A401C606244
:10122000608D401E6085208D401E80B22085618DBE
:10123000002901D000280CD0608D0A9900283A4678
:101240002046E2D101F055FA00281CD0012005B05B
:10125000F0BD00970022802120460A9B01F022FA6F
:101260000028F3D1608DFF2805D9FF222285009642
:1012700001231B06C4E7608D20850096208D012385
:10128000C2B25B06BCE720682022C26120684168C8
:10129000064B194041606A70AE702E700020D6E790
:1012A000FFE70220D3E700000020008000E800FEF6
:1012B00010B50068094988420ED10948C169012268
:1012C00052059143C161074C40212046FFF790FD34
:1012D00080212046FFF78CFD10BD00000054004027
:1012E000001002400004004810B586B004461421E6
:1012F0006846FEF757FF1249206888421ED1114CFC
:1013000061690120800401436161616901400591C7
:10131000C020009012200190002002900320039032
:101320000120049069460848FFF7C8FDE1690120E3
:1013300040050143E161E1690140059106B010BD3E
:101340000054004000100240000400480248816838
:1013500002788918816070474C00002010B506485B
:101360000168102211430160002000F007F800F02E
:1013700027F8002010BD00000020024070B5044690
:101380000D4D7D202978C000FEF7AEFE01460B48CA
:101390000068FEF7A9FE00F065FB002809D1042CC7
:1013A00007D200222146401E00F03AF800206C606F
:1013B00070BD012070BD00004C00002058000020CE
:1013C00008B5084881690122114381618169114092
:1013D0000091C26901040A43C261C06908400090DB
:1013E00008BD000000100240002809DBC106C90E3C
:1013F0000120884003490860BFF34F8FBFF36F8F10
:101400007047000080E100E0002805DBC106C90E3E
:1014100001208840014908607047000000E100E0B9
:1014200010B501F081FF10BDF8B504460068364DD7
:10143000C00354D5E8690026C00007D4E869290430
:101440000843E861E8690840012600902F480168D8
:10145000C90511D4014608688A1510430860FFF7D2
:10146000DDFD074604E0FFF7D9FDC01B642823D843
:1014700026480068C005F6D5286A032109020840FD
:101480001FD062680A4082421BD0286A2A6A8843B9
:10149000012109040A432A622A6A8A432A622862CD
:1014A000C0070ED0FFF7BAFD074607E0FFF7B6FD0D
:1014B000C11B1748814201D90320F8BD286A800763
:1014C000F4D5286A03210902884361680843286229
:1014D000002E04D0E869012109078843E8612078DB
:1014E000C00705D0286BA1688008800008432863E6
:1014F0002078800605D5286B10218843E1680843D1
:1015000028630020F8BD0000001002400070004079
:1015100088130000F8B50D4604005AD03A48006818
:10152000C007C00FA8420AD23748016849084900DD
:10153000294301600068C007C00FA84249D1206854
:10154000324E81070CD5400704D570680721090287
:10155000084370607068F0218843A1680843706098
:101560002078C00725D0606801280ED03168022895
:101570000ED0890700292CDA716889088900014397
:101580007160FFF74BFD07460CE031688903F1E716
:101590008901EFE7FFF742FDC11B1D48814201D9D8
:1015A0000320F8BD70680C210840616889008842FA
:1015B000F0D115480168C907C90FA9420BD90168C4
:1015C00049084900294301600068C007C00FA842CC
:1015D00001D00120F8BD2078400706D570680721AA
:1015E00009028843E1680843706000F027F87168D9
:1015F000084A0906090F515CC840074908600020E5
:10160000FFF7BCFE0020F8BD0020024000100240A1
:1016100088130000A843000858000020044805492A
:1016200000684968044A4905490F515CC840704741
:101630005800002000100240B843000810B514A064
:101640000FC888B06C460FC415A00FC80FC4184A45
:1016500053680C20194601401648042916D0082961
:1016600014D19902090F6C46645CD16A04AA090777
:10167000090F525CD90305D500231946FEF74AFD30
:10168000214601E020460C4901F035FE08B010BDAE
:1016900002030405060708090A0B0C0D0E0F1010B3
:1016A0000102030405060708090A0B0C0D0E0F10B2
:1016B0000010024000127A0000093D00FEB504004F
:1016C00076D02078E44DC00753D068680007800FBB
:1016D000012807D068680007800F022809D16868D0
:1016E000C00306D52868800343D560680028E7D08A
:1016F0003FE06068012813D001218904002814D03C
:10170000052818D02A68881082432A6028688843F0
:1017100028606068002820D0FFF780FC064618E0AB
:101720002868012109040843F2E72868012212040D
:1017300090432860EAE72868084328602968012068
:10174000000401432960E4E7FFF768FC801B64287C
:1017500075D828688003F7D50BE0FFF75FFC0646D5
:1017600004E0FFF75BFC801B6428F1D82868800345
:10177000F7D4207801268007002843DA686800073C
:10178000800F07D068680007800F022811D16868B1
:10179000C0030ED42868800702D5E068012807D16D
:1017A0002868F82188432169C9000843286029E096
:1017B0004DE1E0680028286815D030432860FFF725
:1017C0002DFC074604E0FFF729FCC01B0228BFD808
:1017D00028688007F7D52968F82081432069C00070
:1017E000014329600EE0400840002860FFF716FC26
:1017F000074604E0FFF712FCC01B0228A8D828689F
:101800008007F7D42078000722D5E0690028686AAD
:101810000ED030436862FFF701FC074604E0FFF793
:10182000FDFBC01B022893D8686A8007F7D50FE03C
:10183000400840006862FFF7F1FB074605E09DE0C5
:10184000FFF7ECFBC01B02288FD8686A8007F7D42B
:10185000207804274007002860DA00200190E8691A
:10186000C00008D4E969B8060143E961E9690140AB
:1018700001200091019079480168C90511D40168DF
:10188000821511430160FFF7C9FB009005E0FFF7E7
:10189000C5FB0099401A642870D870480068C005DC
:1018A000F5D5A06801280AD0002801D0052810D05D
:1018B000286A400840002862286AB84301E0286A84
:1018C00030432862A068002812D0FFF7A7FB0090E1
:1018D0000AE0286A38432862F1E7FFF79FFB009986
:1018E000411A5F48814249D8286A8007F5D50DE042
:1018F000FFF794FB009006E0FFF790FB0099411A78
:10190000574881423AD8286A8007F5D401980028C0
:1019100004D0E869012109078843E8612078C006FE
:1019200035D5606901280CD0401D686B23D0384341
:101930006863686B400840006863FFF76FFB06460A
:1019400022E0686B38436863686B30436863FFF775
:1019500065FB064604E0FFF761FB801B02285BD8AD
:10196000686B8007F7D5686BF8218843A169C900C7
:10197000084368630BE0B8436863F4E74CE0FFF7A3
:101980004DFB801B022847D8686B8007F7D4206A7C
:1019900000285ED069680907890F022942D0012713
:1019A0003F060228286805D0B8432860FFF736FBB9
:1019B000044633E0B8432860FFF730FB064604E0F6
:1019C000FFF72CFB801B022826D828688001F7D45B
:1019D000E86AE16A000900010843E862616AA06AF6
:1019E000084369683D2212049143084368602868EF
:1019F00038432860FFF712FB044604E0FFF70EFBB4
:101A0000001B022808D828688001F7D521E0FFF7DD
:101A100005FB001B022801D90320FEBD28688001B8
:101A2000F5D416E00128F8D06868E96A01221204AA
:101A3000636A02409A420AD10907E26A090F914299
:101A400005D10F2189040840A16A884201D00120F4
:101A5000FEBD0020FEBD00000010024000700040EE
:101A600088130000094910B5401E884201D90120A1
:101A700010BD074C60610321081F01F055FC0020D8
:101A8000A06107202061002010BD0000FFFFFF00C3
:101A900000E000E070477047F0B502462032137F47
:101AA000012B1ED0012616770223537703685D6849
:101AB0009C687027BD430F682F435F6000680A4B26
:101AC000984205D0094B984202D0094B984204D164
:101AD000802349689C43214381605677002010771A
:101AE000F0BD0220F0BD0000002C014000040040C9
:101AF0000040014070B50446022025462035687735
:101B00002168086A0E4A104207D1086A92101042F2
:101B100003D10868400840000860204600F036F80D
:101B200000214034A171A977E97721706170A1701B
:101B3000E1702171617169772977084670BD0000F5
:101B40001111000070B5040005D025462035687FCE
:101B5000002802D006E0012070BD00202877204632
:101B600000F03CF802206877211D206801F03EF863
:101B700001224034A271AA77EA7722706270A270C3
:101B8000E270227162716A77002070BD10B5006842
:101B90000E4A0F49904204D1C86902229043C8619D
:101BA00010BD0C4A904205D1C86910229043C8610B
:101BB000112008E0084A9042F2D1886901221204FB
:101BC000904388611420FFF70FFC10BD0004004013
:101BD00000100240001000400040014008B50068BD
:101BE000184A1949904207D1CA6902200243CA61C2
:101BF000C9690140009108BD144A90420DD1CA69DB
:101C000010200243CA61C9690022014000911146B7
:101C10001120FFF705FC112010E00D4A9042EAD197
:101C20008A690120000402438A6189690022014017
:101C3000009111461420FFF7F3FB1420FFF7E4FB9B
:101C400008BD0000000400400010024000100040E9
:101C500000400140014620314A7F012A01D0012085
:101C6000704702224A770168CB6801221343CB6098
:101C700000680949884205D00849884202D00849CD
:101C8000884204D181684907490F062902D00168BA
:101C90001143016000207047002C01400004004007
:101CA000004001400168CA6852085200CA600168D9
:101CB0000A6A084B1A4207D10A6A9B101A4203D1DA
:101CC0000A68520852000A60012120304177002042
:101CD0007047000011110000F8B505460446203594
:101CE000287F0026012817D0012028770220687756
:101CF000206882687727FF23BA431B029A438260D9
:101D00000868502837D00EDC20284ED006DC00288A
:101D10004BD010281ED148E00220F8BD302844D016
:101D2000402817D139E060282DD0702819D0012221
:101D30001203801A0FD090420CD1CB684A68896890
:101D4000206800F097FF2068816801229203114308
:101D5000816000E001260120687700202877304666
:101D6000F8BDCB684A688968206800F083FF206866
:101D700081683943ECE7CA684968206800F08DFF44
:101D80005021206806E0CA684968206800F096FF84
:101D90006021206800F079FFDDE7CA6849682068A3
:101DA00000F07BFF40212068F4E7226801461046DE
:101DB000F0E7704770B50446006801690025C94323
:101DC0008907002915DBC168C943890711D4E91EB9
:101DD000016101202077206880698007204602D0B9
:101DE000FFF7E7FF04E000F096F8204600F094F8D3
:101DF000257720680169C943490717D4C168C943D9
:101E0000490713D40421C9430161022020772068C7
:101E100080698005800F204602D0FFF7CAFF04E0EA
:101E200000F079F8204600F077F8257720680169FE
:101E3000C943090716D4C168C943090712D4082148
:101E4000C9430161042020772068C06980072046CB
:101E500002D0FFF7AEFF04E000F05DF8204600F08E
:101E60005BF8257720680169C943C90617D4C168A2
:101E7000C943C90613D41021C94301610820207742
:101E80002068C0698005800F204602D0FFF791FFCF
:101E900004E000F040F8204600F03EF82577206886
:101EA0000169C943C90708D1C168C943C90704D139
:101EB000891E0161204600F031F820680169C9439C
:101EC000090609D4C168C943090605D48021C9435C
:101ED00001612046FFF7DEFD20680169C94349061C
:101EE00009D4C168C943490605D44021C9430161E9
:101EF000204600F033F820680169C943890609D4F7
:101F0000C168C943890605D42021C943016120461F
:101F1000FFF7C1FD70BD70477047000070B5044603
:101F20000B4801260B4D844202D1AE60FFF792FEB2
:101F3000094884420AD12868401C2860022805D13B
:101F40000020EE6028600448FFF784FE70BD0000AA
:101F5000E0010020000000202802002070477047A8
:101F600070B5040019D02420A067206801684908D2
:101F700049000160206800250560206845602068F0
:101F80008560204600F088F980200551A567E56747
:101F9000256660342575002070BD012070BD704736
:101FA000F8B502680446D069116896689C4B0546EE
:101FB0001D402023002D75D0F7079A4DFF0FBC461A
:101FC0000D402F436DD02546C7078035002F06D022
:101FD000CF0504D5012717622A683A432A60820791
:101FE00008D5F20706D0276802223A622A68042739
:101FF0003A432A60420708D5F20706D02668042231
:1020000032622A68022632432A6002070AD50A464B
:102010001A406646324305D02668082232622E688E
:1020200016432E60020508D54A0106D5012226680E
:10203000D20232622A681A432A602A68002A39D0FA
:10204000800606D5880604D5616E002901D0204699
:102050008847286821688968490602D428210842EF
:102060002DD0204600F0DEFE20688168490622D58A
:10207000EFF31081012282F310888368402293439A
:10208000836081F31088206F002814D06649416373
:10209000206FFEF777FE00280CD0206F416B08E020
:1020A00000E012E0850610D58D060ED5616E9DE02C
:1020B00020468847F8BD2046FFF771FFF8BD20464F
:1020C000FFF76DFF00202860F8BD256E012D7DD142
:1020D000C5067BD5CD0679D51026166220688168A5
:1020E000254649064035002945DA226F11684968BE
:1020F0000904090CE8D02F8B8F42E5D969839169D7
:10210000202933D0EFF31081012282F31088026876
:102110003701BA43026081F31088EFF31081012088
:1021200080F310882068826852085200826081F330
:102130001088EFF31081012080F3108820688268F6
:102140004027BA43826081F31088E367002020664D
:10215000EFF31081012080F3108820680268B243F9
:10216000026081F31088206FFEF7ECFD288B698BED
:10217000401A81B231E0298B6A8B891A6A8B89B245
:10218000002AA1D000299FD0EFF31082012585F30A
:1021900010880568FF272137BD43056082F310884A
:1021A000EFF31082012080F31088206885686D08A5
:1021B0006D00856082F31088E36700202066EFF3EE
:1021C00010826066012080F3108800E009E020683A
:1021D0000368B343036082F310882046FFF7BFFE15
:1021E000F8BD050606D50D0604D5A16E002900D060
:1021F0005EE7F8BD4006FCD54806FAD52046EFF369
:102200001081012484F3108814684025AC431460C5
:1022100081F3108883670021816600F0D7F9F8BD4B
:102220000F08000020010004112E000810B5040062
:1022300003D0A06F002802D007E0012010BD0021CC
:1022400074200155204600F04FF82420A067206834
:102250000168490849000160204600F0B9FE0128E4
:10226000ECD0606A002802D0204600F03AFD2068D9
:1022700041680122D20291434160206881680822AE
:10228000914381602068016801221143016020466A
:1022900000F08CFD10BD000010B501680F4B092047
:1022A0000F4AC00699420AD1916901239B039943C1
:1022B000916103214902FEF79BFD1B200BE0094BB6
:1022C00099420AD1D16901235B049943D1610C2160
:1022D000FEF78EFD1C20FFF787F810BD0038014087
:1022E0000010024000440040F0B587B004461421BD
:1022F0006846FDF757FF2268254B01240920002579
:102300002449640402260127C0069A421ED18A6924
:10231000E3101A438A618A691A4005924A69224386
:102320004A614969019621400591032149020091C2
:1023300003210391029504976946FEF7BFFD002231
:1023400011461B20FFF76CF81B201DE0124B9A4230
:102350001CD1CA692243CA61CA69224005924A69EE
:1023600022434A6149690295214005910C2100915F
:102370000497019603956946FEF7A0FD00221146D9
:102380001C20FFF74DF81C20FFF73EF807B0F0BD0A
:10239000003801400010024000440040FFB50446F0
:1023A000C06F85B016460F4620286FD1002F0AD087
:1023B000002E08D0A168C001814207D12069002801
:1023C00004D1F80702D0012009B0F0BD20466030EA
:1023D0000090007D012859D000980121017500204E
:1023E000802108512221E1672066FEF717FE25466D
:1023F000403502902E836E830121A0680903FF22DD
:10240000884204D12369002B09D1214A07E0002822
:1024100001D0002203E02369002B00D07F22AA8391
:1024200092B20192884202D12069002808D03E462B
:1024300000270099002008750198C0B2039018E0A9
:102440000026F6E708980090002220212046029BF3
:1024500000F0AAFE002801D00320B5E72068002E76
:10246000808C0DD0039908403070761C688B401E1C
:102470006883688B0028E5D12020E0670020A3E76F
:10248000019908403880BF1CF0E7FFE702209BE776
:10249000FF01000070B5C36F202B2BD100290BD09A
:1024A000002A09D0012483682403A34206D10369CA
:1024B000002B03D1CB0701D0012070BD0346603350
:1024C0001C7D012C16D001241C75002303660368B3
:1024D0005C6824020BD5EFF31084012585F3108886
:1024E0001D680126B60635431D6084F3108800F090
:1024F0000BFE70BD022070BD7047FFB50446806FB3
:1025000083B015460E4620285ED1002E0AD0002D3D
:1025100008D0A168C001814207D12069002804D1F8
:10252000F00702D0012007B0F0BD204660300090D7
:10253000007D012848D000980121017500208021EC
:1025400008512120A067FEF769FD2746403701901A
:102550003D827D820120A1680003814202D1206971
:10256000002805D03546002600990020087511E0A6
:102570000025F9E700228021204600F015FE002802
:1025800015D1002D15D02168287808856D1C788A12
:10259000401E7882788A019B002806980090E9D135
:1025A00000224021204600F0FFFD002808D0032033
:1025B000B9E730882168C005C00D0885B61CE6E77C
:1025C0002020A0670020AEE70220ACE77047FEE7BE
:1025D00001688A69D243920701D400228A620068A6
:1025E0008169C943C90703D081690122114381610F
:1025F00070470000F8B5044600680E46816917462A
:10260000C943C90635D44168890104D4416801220F
:102610009203114341602546403520688069C043DC
:10262000800612D5701CF8D0FEF7F8FCC01BB04233
:1026300001D8002EF1D1616C2020014361646870E3
:102640000020A87028700120F8BD21681020C86102
:1026500020682026C6612046FFF7BAFF206841683F
:10266000054A11404160606C0421084360646E704B
:10267000E6E70020F8BD000000E800FEF0B50068C5
:10268000059C4568660D8905890D054F12041143A7
:102690003E431943B54321430D434560F0BD00005F
:1026A000FF63FF03F8B51C4617460E46054609E0D2
:1026B000601C07D0FEF7B2FC0699401AA0420BD866
:1026C000002C09D028688169304688430FD000204B
:1026D000B842EDD00020F8BD696C20200143696448
:1026E000403568700020A87028700120F8BD0120D6
:1026F000EEE770B516460D4604460FE03246294611
:102700002046FFF777FF002801D0012070BDFEF7BB
:1027100085FC801BA84208D8002D06D0206880695F
:10272000C0438006EAD4002070BD616C20200143C4
:102730006164403460700020A0702070E5E770B5DF
:1027400016460C46054611E0324621462846FFF75C
:1027500051FF002801D0012070BD601C06D0FEF79B
:102760005DFC801BA04208D8002C06D02868806938
:10277000C0438007E8D4002070BD696C202001436D
:102780006964403568700020A8702870E3E710B5D0
:10279000012000F03DF810BD10B53220FEF716FB09
:1027A000302000F035F80520FEF710FB302000F057
:1027B0002FF80120FEF70AFB302000F029F80A204C
:1027C000FEF704FB202000F023F80A20FEF7FEFAB3
:1027D000282000F01DF80120FEF7F8FA082000F08C
:1027E00017F80120FEF7F2FA012000F011F801209D
:1027F000FEF7ECFA0120FEF7E9FA062000F008F8EF
:102800000120FEF7E3FA0C2000F002F810BD0000F2
:102810001CB5010909010C230A461A436C462271B2
:10282000082211430001617101461943A17110434F
:10283000E07164200090042301AA4E210148FEF7B4
:10284000AFFC1CBD4C0100201CB5010909010D2382
:102850000A461A436C462271092211430001617134
:1028600001461943A1711043E071642000900423D4
:1028700001AA4E210148FEF793FC1CBD4C0100202B
:1028800010B5044602E0641CFFF7DEFF2078002844
:10289000F9D110BD10B5012806D0022806D00328B2
:1028A00006D0042807D105E0802104E0C02102E021
:1028B000942100E0D421C8B2FFF7AAFF10BD0000A8
:1028C00030B587B014216846FDF76CFC2248426998
:1028D0000121C9040A43426142690A4005924269E2
:1028E000C9000A43426142690A400592426949119E
:1028F0000A43426142690A400592426949000A431B
:102900004261406909250840ED0605900022212119
:102910002846FEF77DFB01204003009021200004A3
:1029200000240190694602940C48FEF7C7FA212062
:102930000090012001900294694603942846FEF716
:10294000BDFAFF20013000900194694602940448CA
:10295000FEF7B4FA07B030BD00100240000800488E
:102960000004004810B51348114901601249416044
:10297000002181600161416181610122C161C26008
:102980000162FEF7B3FB002801D0FEF7D9F9002160
:102990000848FEF749FB002801D0FEF7D1F90021D5
:1029A0000448FEF766FB002801D0FEF7C9F910BD08
:1029B000005400404C0100200E09002010B586B0E4
:1029C0000024009417480194029403940494144939
:1029D00005940160144984604160046144611349B5
:1029E0008461C160FFF7AEF8002801D0FEF7A8F9B6
:1029F00001200003009069460A48FFF76DF900289E
:102A000001D0FEF79DF9049404A906480594FFF748
:102A100043F8002801D0FEF793F906B010BD00007E
:102A200000400140280200207FBB000060EA000057
:102A300010B586B0002400941648019402940394C3
:102A40000494134905940160134984604160046152
:102A500012498461C160FFF775F8002801D0FEF7C4
:102A60006FF901200003009069460A48FFF734F926
:102A7000002801D0FEF764F9049404A905480594E0
:102A8000FFF70AF8002801D0FEF75AF906B010BD8A
:102A900000040040980100207FBB0000FFFF000001
:102AA00010B5094807490160084941600021084AFA
:102AB0008160C2608161FFF745F8002801D0FEF710
:102AC0003FF910BD00100040E00100207FBB000076
:102AD000B80B000010B50C480A4901604B21C90130
:102AE000416000218160C16001618161C1610C228E
:102AF000016242614162FFF799FB002801D0FEF7B5
:102B00001FF910BD003801407002002010B50C48BC
:102B10000A4901604B21C901416000218160C16007
:102B200001618161C1610C22016242614162FFF772
:102B30007DFB002801D0FEF703F910BD00440040E2
:102B4000F4020020FEE77047704710B5FEF7FEFB69
:102B500010BD30B595B030216846FDF723FB002449
:102B60000D94129401200E94039013941020099454
:102B7000022504900F9405200095C0040C94109435
:102B80000A90119408950B946846FEF797FD00286B
:102B900001D072B6FEE707200C900E9401210D952E
:102BA0000F940CA8FEF7B6FC002801D072B6FEE721
:102BB000212010901294139410A8FEF735FC0028E1
:102BC00001D072B6FEE715B030BD704710B50248AF
:102BD000FFF7F0F810BD00002802002010B50248F1
:102BE000FFF7E8F810BD0000E0010020F0B5026832
:102BF0001A4B1B4C984201D0A04203D17025AA4326
:102C00004D682A43174D184E184F98420AD0A042DB
:102C100008D0174CA04205D0A84203D0B04201D042
:102C2000B84204D103242402A243CC682243802466
:102C3000A2434C69224302608A68C2620A688262C7
:102C4000984205D0A84203D0B04201D0B84201D189
:102C50000969016301214161F0BD0000002C0140C0
:102C60000004004000400140004401400048014091
:102C70000020004030B58468FF252D021B0213435D
:102C8000AC430B432343836030BD826870239A4377
:102C90000A4307210A438260704730B5036A046A19
:102CA0006408640004628469F025AC431201224385
:102CB0000A24A3430B438261036230BD30B5036A2B
:102CC0001024A34303628369046A0F252D031203B2
:102CD000AB431A43A0239C43090121438261016253
:102CE00030BD10B5818CC90707D001684A6801233F
:102CF0005B049A43836A1A434A60818C890707D52B
:102D000001684A6801231B049A43C36A1A434A6054
:102D1000818C490707D501684A6801239B049A43BF
:102D2000036B1A434A60818C090707D501684A681A
:102D30000123DB039A43436B1A434A60818CC90623
:102D400007D501688A6801231B039A43836B1A43E2
:102D50008A60818C890607D501688A6801235B0334
:102D60009A43C36B1A438A60818C490612D5016865
:102D70004B6801221205046C934323434B60016CA2
:102D8000914207D101684A6803235B059A43436C6B
:102D90001A434A60818C090607D501684A680123F5
:102DA000DB04806C9A4302434A6010BDF8B50446C8
:102DB000002580300560FEF731F90746206800687D
:102DC000124E000709D501213B4600224905204645
:102DD000009600F0E9F900280DD12068006840074E
:102DE0000BD501213B46002289052046009600F0C4
:102DF000DBF9002801D00320F8BD2020A067E067A0
:102E00002566603425750020F8BD0000FFFFFF0136
:102E100010B5406A0022014640314A834A82FFF7DA
:102E2000BEF810BD10B5EFF31082012181F31088B8
:102E300001680B68FF242134A3430B6082F31088E0
:102E4000EFF31082012181F3108801688B685B0821
:102E50005B008B6082F31088016E01290AD1EFF3C9
:102E6000108281F3108801680B681024A3430B6063
:102E700082F310882021C16700210166416610BDE0
:102E800070B5014640318B8BC46F0268222C04D090
:102E9000906908210843906170BD928C446D1A407E
:102EA0002280426D921C42654A8B521E4A834A8B95
:102EB000002AF1D1EFF31083012282F31088026817
:102EC0001468FF252135AC43146083F31088EFF3B9
:102ED0001083012282F310880268946864086400F9
:102EE000946083F310882022C26700224266036E3A
:102EF000012B02D0FFF700FB70BD0266EFF31083D9
:102F0000012282F31088026815681024A543156019
:102F100083F310880268D369DB43DB0600D41462B4
:102F2000098BFFF71CF870BD70B5014640318B8BE3
:102F3000C46F0268222C04D0906908210843906174
:102F400070BD928C1A40436D1A70426D521C4265DE
:102F50004A8B521E4A834A8B002AF1D1EFF3108329
:102F6000012282F3108802681468FF252135AC43E2
:102F7000146083F31088EFF31083012282F310882A
:102F80000268946864086400946083F310882022C7
:102F9000C26700224266036E012B02D0FFF7ACFA33
:102FA00070BD0266EFF31083012282F3108802687D
:102FB00015681024A543156083F310880268D3694F
:102FC000DB43DB0600D41462098BFEF7C8FF70BD3B
:102FD00070B5044681680069E269014360690025B3
:102FE0001043014320680268414B1A400A430260C3
:102FF00020684168032212039143E2681143416053
:10300000216AA0690143206882680B231B029A434E
:103010000A43826037492068884210D13648006BE5
:103020008007800F11D0012805D0022805D0032881
:103030000AD1022009E0042007E0082005E02F491A
:10304000884201D1002000E010200122E369D20370
:103050002B492C4E934225D1002806D0022807D0B8
:10306000042807D0082839D108E0FEF7D7FA03E092
:103070000A4603E0FEF7E2FA020033D0616850002E
:103080004A088018FDF730F880B201461039B14285
:1030900024D81C49491C01400007420F20680A43FC
:1030A000C2601FE0002806D0022807D0042807D0FD
:1030B000082813D108E0FEF7B1FA03E00A4603E05E
:1030C000FEF7BCFA02000DD0616848088018FDF7D1
:1030D0000BF880B201461039B14201D9012501E057
:1030E0002168C86000206066A066284670BD0000A8
:1030F000F369FFFF00380140001002400044004027
:1031000000127A00EFFF000070B5416501464031C2
:103110000A834A8300234366012482682403FF252F
:10312000A24204D10269002A33D11C4A2FE0002AAE
:1031300029D08B8380210B502221C167EFF31082AD
:10314000012181F3108801688D68012635438D6067
:1031500082F310888168A14202D1016900291AD046
:103160000F49416674210B54EFF31081012282F361
:10317000108800680268FF2321331A43026081F33C
:103180001088002070BD0269002A02D07F228A8345
:10319000D0E78D83CEE70349E3E70000FF0100009D
:1031A000292F0008812E0008FFB581B006460F4682
:1031B000044660360A9D55E0681C53D0FDF72EFF8B
:1031C0000499401AA84230D8002D2ED020680168FA
:1031D000490747D5C069C043000543D40120216891
:1031E000C0020862EFF31081012080F3108820688C
:1031F0000268FF23A1339A43026081F31088EFF342
:103200001081012080F310882068826852085200E3
:10321000826081F310882020A067E06780342060FE
:1032200000203075032005B0F0BDEFF310810120C0
:1032300080F3108820680368FF22A1329343036063
:1032400081F31088EFF31081012080F3108820684B
:10325000826852085200826081F310882020A067A3
:10326000E067DDE72068C1693846884305D0002063
:1032700003998842A0D00020D5E70120F8E700009C
:1032800010B50248FEF78CFE10BD00007002002051
:1032900010B50248FEF784FE10BD0000F4020020C5
:1032A0000FB410B504A9074B02AA039800F03CF92B
:1032B000044602A9002000F0D5FC204610BC08BC42
:1032C00004B01847653C00082021020C01D01021F1
:1032D0001046020A01D010460839020901D01046F2
:1032E000091F820801D01046891E420801D0881E9D
:1032F0007047081A7047F8B5040C8BB2264682B2A4
:103300005E430D0C1046370C5843360480190021DB
:10331000794116466E43370C3604801979412646AA
:103320006E438919F8BD00008307FF22DB0E9A4027
:103330008907090E9940002808DB830809489B008B
:103340001818036893430B43036070470007000F8E
:103350000838830804489B001818C36993430B433B
:10336000C361704700E400E000ED00E00148006840
:10337000704700006000002002E008C8121F08C16A
:10338000002AFAD170477047002001E001C1121FE6
:10339000002AFBD170470000014908607047000017
:1033A00060000020F0B51FB486B00998089A030D9C
:1033B0000021024314D05148514A181850430514B3
:1033C0001198012810981AD0281A401C00264D4F39
:1033D0004D49009601910490002812DA444211E010
:1033E0001198012449A3012801D11098C1430698DE
:1033F000119A84600360C26041600BB0F0BD40422E
:10340000E4E70446210500203F4A001C5141039196
:10341000029012E0E00707D032463B46019900983F
:10342000FCF72EFF0191009032463B4610461946AC
:10343000FCF726FF06460F466410002CEAD10498DC
:10344000039B0028029A0999089806DAFCF718FFEE
:10345000019B009AFCF714FF05E0FDF75FF9019B63
:10346000009AFDF75BF904460E460022284BFDF753
:10347000EDF903D80020C043014607E00022254BA8
:1034800020463146FDF796F8FDF7C0F9102409E013
:10349000002C0ADB0A220023FCF73CFE079B30329B
:1034A0001A55641E02460A43F2D11122641C079B7E
:1034B000121B1C19119B012B03D0012308430ED1B1
:1034C0000AE0084304D0112010900020119077E703
:1034D0001098151A6D1E0BE01098824202DD002331
:1034E0006D1C03E0824201DA00236D1E002BEED03A
:1034F000069811998260C16030C07EE701FCFFFF31
:10350000104D0000000014400000F03F30000000AB
:103510000000F0430000E03F30380A2801D20120CB
:103520007047002070470000FFB597B006460025A1
:103530001BE2252876D100242746F749049400E0B1
:103540000443761C32780120203A90400842F7D19B
:1035500030782A280ED002223078014630390929E5
:1035600016D804990A235943303940181443761C5D
:103570000490F1E7189802C804911890002904DA21
:103580000120400304434842049002200443761C77
:1035900030782E2814D1042004437078761C2A2811
:1035A00009D11898761C80C8189009E00A214F4369
:1035B000303FC719761C3078014630390929F5D9D2
:1035C00030786C2810D006DC4C281AD068280ED031
:1035D0006A2817D104E0742813D07A2812D110E099
:1035E0000120400504430CE00121090501E003210D
:1035F00009050C437178814203D10120000524188C
:10360000761C761C307866280BD013DC58287DD0C9
:1036100009DC00287BD04528F6D04628F4D047287E
:103620001AD1A9E118E0632835D0642870D0652844
:1036300012D1A1E170286CD008DC6728F1D069288C
:103640007DD06E280DD06F2806D1BCE073282ED017
:10365000752873D0782859D01A9A199990476D1CFB
:1036600082E16002400F022809D003280DD004280F
:10367000189801680DD00D60001D189074E118981D
:10368000EA1701680D604A60F6E7189801680D8036
:10369000F2E70D70F0E718986A4601781172001D84
:1036A00018900020507202A80090012005E01898A0
:1036B00002C8189000200091C04361070ED5002178
:1036C00001E00199491C0191B94213DA8142F8DB0A
:1036D000019A0099895C0029F3D10BE0002101E0F7
:1036E0000199491C01918142FADB019A0099895C98
:1036F0000029F5D1019904981A9B471A21463846AA
:10370000199A00F099FA4019019903E051E030E16B
:1037100015E050E0451807E0009800990078491C32
:1037200000911A9A199990470198401E0190401CE7
:10373000F2D1214638461A9B199A12E137E00A2045
:103740000021009001916002410F022907D0189AD0
:1037500001CA1892C2179446032908D00AE01898A3
:10376000C01DC108C90005C91891944607E000B200
:10377000C2179446042902D140B2C1178C460022D8
:103780006146944506DA0A460021404291418C4642
:103790002D2102E0210504D52B216A461173012158
:1037A00003E0E10701D02021F7E7029156E00A206B
:1037B0000AE0102008E010200090002104200443BB
:1037C0000191082703E00820002101910090600288
:1037D000410F022907D0189A01CA18920022944674
:1037E000032908D008E01898C01DC108C90005C900
:1037F0001891944603E080B2042900D1C0B20021A0
:10380000029121072AD531780D91702906D0009AAE
:103810001021019B4A401A4305D00EE040216A4620
:103820001173012108E06146014306D030216A4648
:1038300011730D99517302210291009A0821019B85
:103840004A401A430AD16146014301D1610705D5B7
:1038500030216A46117301217F1E02913178582967
:1038600004D02EA10E910DA90D910DE030A1F9E724
:103870006146019B009AFCF74DFC0E9B8C469B5CBD
:103880000D9A521E0D92137061460143F0D10D98AE
:1038900005A9081A20300190600703D50120000413
:1038A000844300E001270198874201DD381A00E0D7
:1038B0000020019900904118029809180498401AB4
:1038C0000490E00306D421461A9B199A049800F04C
:1038D000B3F94519002706E003A81A9AC05D1999A3
:1038E00090476D1C7F1C02988742F5DBE0030CD5E6
:1038F00021461A9B199A049800F09EF9451904E094
:103900001A9A3020199990476D1C0099481E009012
:103910000029F5DC1FE000000928010030313233B6
:1039200034353637383961626364656600000000FB
:1039300030313233343536373839414243444546E5
:10394000000000000D980D990078491C0D911A9AFD
:10395000199990476D1C0199481E01900029F1DCCE
:103960004DE100F059F94519761C3078002800D057
:10397000DFE528461BB0F0BD600700D40627189885
:10398000C01DC108C90048680A680831C30FDB07B9
:103990001891190001D09CA108E0210501D59BA137
:1039A00004E0E10701D09AA100E09AA14300109140
:1039B00030785B0865280CD006DC452809D04628FD
:1039C0001DD0472841D141E0662818D067283CD156
:1039D0003CE00021112F01DB112000E0781C019157
:1039E000009008A911A8FFF7DDFC139905910021AB
:1039F000119A15927F1C12980197009150E00120B6
:103A0000C00703900120019008A9009711A8FFF7B3
:103A1000C9FC139A149905920022119B00921298E6
:103A20001593059A0192002901D0104602E0791CF5
:103A300040180190381A01D5019804E04042401E18
:103A40000090781C0190C01B029043E0012F00DA27
:103A500001270021112F01DD112000E038460191DE
:103A6000009008A911A8FFF79DFC13990591119AE0
:103A70000021129815920091019721070CD4059905
:103A8000B94201DB019900E00191012904DD159A99
:103A9000491E515C302906D0B84201DA011D05DA11
:103AA0000121029115E00199491EEDE7002805DC8E
:103AB0000099411800910199091A03E0019A411CEB
:103AC000914200DD01910099401A401C02900120B2
:103AD000C0070390200706D402990198814202DBB7
:103AE0000020C043029000206946C87707AF01213B
:103AF00003980337C907884224D0022011902B2055
:103B00001290039800280CDA404203902D20129066
:103B100007E00A210398FCF7E7FA30317F1E039093
:103B200039701199481E11900029F2DC0398002881
:103B3000EFD1791E12980870307820210840453066
:103B4000BF1E387006A8C01BC01D039010980078D7
:103B5000002800D00120019941180298C0170918C7
:103B6000039809180498401A401E0490E00306D4F4
:103B700021461A9B199A049800F05EF8451910988E
:103B80000078002803D01A9A199990476D1CE00319
:103B900024D521461A9B199A049800F04DF845192E
:103BA0001CE00098002807DB00990598884203DD97
:103BB0001598405C199901E0199930201A9A90479C
:103BC00000986D1C401C00900298401E0290002836
:103BD00004D11A9A2E20199990476D1C0199481EFC
:103BE00001900029DDDC05E038781A9A7F1C1999CC
:103BF00090476D1C0399481E03900029F4DC214670
:103C00001A9B199A0498ACE62D0000002B000000C6
:103C10002000000000000000F8B5044600251E4604
:103C20001746880404D405E039462020B0476D1CAF
:103C3000641EF9D52846F8BDFFB50446002581B0BD
:103C40001E46C80301D5302700E02027880404D58C
:103C500005E038460399B0476D1C641EF9D5284627
:103C600005B0F0BD0A68531C0B601070704730B58A
:103C700083B00446FFF77AFB054600200090024619
:103C8000019021466846FCF7BEFB2846FFF784FBFF
:103C90000199009803B030BD70B501247D25ED0079
:103CA00017A11948FFF7FCFA1748FCF79AFA82B2F5
:103CB0002B4615491548FEF720FC13496422B639F6
:103CC0001248FEF7E7FB2846FDF780F80E4810A1E2
:103CD000B638FCF772FA002805D00B480DA132382F
:103CE000FFF7DEFA0024FA20FDF770F80648642199
:103CF000B638FCF757FA002CD2D1012070BD000075
:103D000041540D0A000000001A010020F4020020B6
:103D10004F4B00004D6F64756C6520436F6E6E6590
:103D2000637465640D0A0000F1B586B03F48FDF785
:103D3000DDF93FA10698FCF75BFA002841D03DA1D0
:103D40000698FCF755FA00283BD03BA10698FCF7F3
:103D50004FFA002805D039A10698FCF749FA002847
:103D600061D10024E01D802528430746FEF750FD61
:103D700033A0FEF785FD20461A302843FEF748FDA4
:103D800030A0FEF77DFD20465B302843FEF740FD66
:103D90002CA0FEF775FD0698002685684068049003
:103DA0003846FEF735FD0698FEF76AFDFF20C00590
:103DB00026492818264F884201D3BD4203DB01263D
:103DC00006E00624CEE7FF20C005C54200D2022649
:103DD0002846FCF7BDFA02460B461EA16846FFF7CF
:103DE0005FFA301980261A303043FEF711FD68461D
:103DF000FEF746FD0498B84201DA012500E00025EF
:103E0000FCF7A6FA02460B4612A102A8FFF748FAF1
:103E100028195B303043FEF7FBFC02A8FEF730FDAB
:103E20000248FDF74AF907B0F0BD00004C01002040
:103E300047574800534753004F555400534F5300C2
:103E40002020200020202020200000000000A04092
:103E500000002041252E31660000000010B50378D7
:103E6000002B05D14A1E411CFCF7D0F9002801D0D7
:103E7000002010BD012010BDFDF770FAFEF769FEAD
:103E8000FEF71EFDFEF7D4FDFEF740FEFEF722FE14
:103E9000FEF706FEFEF792FDFEF764FD2C48FDF7E7
:103EA000D9FEFEF779FC0120FEF7F4FC29A0FEF70D
:103EB000E7FC0220FEF7EEFC29A0FEF7E1FC032060
:103EC000FEF7E8FC29A0FEF7DBFC2B48FDF7C2FE5D
:103ED0007D2424012046FCF779FFFEF758FCFEF70D
:103EE0005BFC00F02DFA2548FFF71EFF2046FCF78B
:103EF0006DFF092000220121C006FDF789F81F4C43
:103F000000252C3CA560E5601D482560FDF7D5F82F
:103F1000A068002809D01948103000F033F80128B3
:103F200002D16068401C6060A560E0680028EFD0A6
:103F30000748FDF7B7FE0648FDF7DCFD00F0D6F8B0
:103F40000348FDF7FFFD0248FDF784FEE560DFE76B
:103F5000E00100202057656C636F6D652000000054
:103F60002020202061742020200000002020472DE8
:103F7000486F757365200000280200202C00002087
:103F80004C01002030B58BB005462C216846FCF76B
:103F900009F91348FEF74AF909240122E4061146FB
:103FA0002046FDF735F80F4B2A2269460C48FEF7EC
:103FB000F5F9002201212046FDF72AF80848FDF70F
:103FC000CFFF2A216846FFF749FF002802D00020D2
:103FD0000BB030BD2946684600F006F80120F7E72F
:103FE00070020020B80B0000F0B50E4687B031A17A
:103FF000FCF722F9002502AF06E0A90078502DA1B8
:1040000000206D1CFCF718F90028F6D1002430E0E0
:10401000A000385828A1FCF70FF9019026A1002034
:10402000FCF70AF9009025A00199FCF7E1F80028B7
:104030000CD024A00199FCF7DBF800280BD024A0B9
:104040000199FCF7D5F800280CD011E03046009912
:10405000FCF7E9F80CE00098FFF709FEFCF78CF993
:10406000B06005E00098FFF702FEFCF785F970608C
:10407000641CAC42CCDB19A13046FCF7B9F8184CF3
:10408000002810D017A13046FCF7B2F8002808D15C
:1040900015486CCE014674302CC074310C38CE609B
:1040A000606007B0F0BD2ECE0F4864302EC01038CF
:1040B0002060F6E72B0000003A00000044657669B6
:1040C0006365000054656D7065726174757265009A
:1040D00048756D6964697479000000004F5554009B
:1040E000100000204757480064000020F0B5424906
:1040F00089B0086882680392406802904868456801
:1041000084683E48FEF792F8FFF7C6FD002803D109
:104110003BA14248FFF7C4F87D21C90040A000F050
:10412000EBF87D21C90041A000F0E6F87D21C9002F
:1041300041A000F0E1F87D21C90042A000F0DCF8C8
:104140007D21C90043A000F0D7F87D21090145A0D9
:1041500000F0D2F87D21C90049A000F0CDF87D2102
:10416000C9004AA000F0C8F87D21C9004AA000F0AB
:10417000C3F87D2149014BA000F0BEF87D21090163
:1041800053A000F0B9F82846FCF7E2F807462046AD
:104190000191FCF7DDF8064600910298FCF7D8F88B
:1041A00004460D460398FCF7D3F80B460199079196
:1041B000009902460591069768467CC00E4A484918
:1041C00008321648FFF76CF87D214901134800F0CA
:1041D00093F844A000687D210890090108A800F028
:1041E0008BF87D21C90040A000F086F80348FDF758
:1041F000B7FE09B0F0BD000010000020F40200205E
:10420000436F756C646E27742073796E6368726F88
:104210006E697A652041362E0D0A0000E800002004
:1042200041542B4353510D0A0000000041542B43CD
:1042300050494E3F0D0A000041542B435245473F21
:104240000D0A000041542B43474154543D310D0A9F
:104250000000000041542B4349504D55583D300D4E
:104260000A00000041542B435354543D22696E749C
:1042700065726E6574222C22222C22220D0A000007
:1042800041542B435354543F0D0A000041542B43D7
:10429000494943520D0A000041542B4349465352A9
:1042A0000D0A000041542B43495053544152543D90
:1042B00022544350222C226170692E7468696E6703
:1042C000737065616B2E636F6D222C38300D0A00A0
:1042D00041542B43495053454E440D0A0000000001
:1042E000004400081A0D000041542B434950434C30
:1042F0004F53450D0A00000010B50C4601460E480C
:10430000FEF7CEFF0C48FBF76CFF82B27D23DB008B
:1043100009490A48FEF7F1F8074964228439074839
:10432000FEF7B8F82046FCF751FD034864218438B5
:10433000FBF738FF10BD0000E8000020F402002069
:1043400010B50120FEF7A6FA10A0FEF799FA032097
:10435000FEF7A0FA0FA0FEF793FA0420FEF79AFAF0
:104360000EA0FEF78DFAA620FEF752FADF20FEF728
:104370006BFAA720FEF74CFA0AA0FEF781FAE720B5
:10438000FEF746FA2520FEF75FFA10BD49442020CB
:10439000203A000054656D70203A0000722E487576
:1043A0006D3A000043000000000000000000000023
:1043B00001020304060708090000000001020304CB
:1043C000DDDDDDDDDCBBBBDDDDDDDDDDDDDDDDDD62
:1043D00098888888888888887777777777888888A2
:1043E000855555566666666666666666666888883A
:1043F0008333333222222222222222222228888D33
:104400004745542068747470733A2F2F6170692E79
:104410007468696E67737065616B2E636F6D2F755D
:1044200070646174653F6170695F6B65793D257388
:10443000266669656C64313D252E316626666965A0
:104440006C64323D252E3166266669656C64333DA9
:10445000252E3166266669656C64343D252E3166ED
:104460000D0A0000844400080000002064000000E1
:1044700078330008E84400086400002014070000B6
:104480008833000800000000000000000000000069
:10449000000000002C0000202C0000204537425670
:1044A0003437494F4E46595656324C4100000000B1
:1044B0002D492D0033335340CDCCC7C20500000039
:1044C0002D4E2D0033335340CDCCC7C20500000024
:1044D00001000000040000000000000000127A004B
:0844E0000000000000000000D4
:04000005080000B53A
:00000001FF
