:020000040800F2
:1000000068060020CD000008B52A00083725000842
:1000100000000000000000000000000000000000E0
:10002000000000000000000000000000B92A0008E5
:100030000000000000000000B72A0008BB2A0008EA
:10004000DF00000800000000DF000008DF000008FB
:10005000DF000008DF000008DF000008DF00000804
:1000600000000000DF000008DF000008DF000008DB
:10007000DF000008DF000008DF00000800000000CB
:10008000DF0000083D2B000800000000DF00000832
:10009000DF000008DF000008DF000008DF000008C4
:1000A000DF000008DF000008DF000008A92F0008BB
:1000B000B92F00080448854600F0B0FB004800470F
:1000C000A13A0008C046C0466806002004488047A0
:1000D00004480047FEE7FEE7FEE7FEE7FEE7FEE72F
:1000E000392B0008B500000830B50B46014600204A
:1000F0002022012409E00D46D5409D4205D31D462E
:100100009540491B2546954040191546521E002D25
:10011000F1DC30BDF0B51FB40646002082B00546C4
:100120004024019100901BE0019922460F46304681
:1001300000F020F8049A059B801A994110D31046CC
:100140001946224600F008F9361A8F4101972246D7
:1001500001200021009F00F0FFF838184D41009069
:100160002046641E0028DFDC019B009829463246A9
:1001700007B0F0BD10B5202A04DB0846203AD04075
:10018000002110BD0B46D340D0402024A21A91403C
:100190000843194610BD10B5002200E0521C835CD4
:1001A0008C5CA34201D1002BF8D1D8B2E1B2401A45
:1001B00010BD30B504460020034600E05B1C9342AE
:1001C00003D2E05CCD5C401BF8D030BD03460A781A
:1001D0000270401C491C002AF9D1184670470000E3
:1001E00070B5104D002800D12868002414E00A469C
:1001F00002E09E4203D0521C1378002BF9D1DAB2F0
:10020000224307D0002B06D0002C04D0002101701F
:10021000401C04E00446401C0678002EE7D128600C
:10022000204670BD34000020F0B51FB488B00B9993
:100230000998002448400999C00F490049080991CC
:10024000C0070B990090490049080B91099908983B
:10025000A64608431CD00B990A98084318D0099861
:1002600001244000420D4800410D09982405000377
:10027000000B204309900B980003000B20430B90C8
:1002800050181C494018002201901446104605E001
:10029000002001460DB0F0BD032801DA034600E05E
:1002A00003239C46C11A0AAE0AE05F0008ADED5B6D
:1002B0004F00F75B7D430027AA187C41491C5B1E59
:1002C0006145F2DD410004AB5A522104120C0A438D
:1002D000240C401C0828DFDB01980290009970462E
:1002E00001910090059B049A0799069800F0E4F8A4
:1002F000D0E700000DFCFFFFC20FD207400040080E
:100300000BD0C10D0723DB01C91840020905400AC3
:100310001143C2084007114370470020014670474F
:10032000CB0FDB07490010B5490802460A4307D046
:100330000A0D07240903E401090B121B002A01DC42
:10034000002010BDC900440F0C43C100E018D205C5
:10035000801800F063F810BD10B5202A04DB0146B8
:10036000203A9140002010BD914020239C1A034662
:10037000E3401943904010BD0FB400B589B00CA9FB
:1003800000910B990023CB60204B214A06930792E2
:10039000042201921F4A02921F4A089202466B46AB
:1003A000002000F0F6FA09B008BC04B0184770B598
:1003B00086B006460020C0430190002015460C463A
:1003C0000091029104903246694604A8FFF7D4FFD9
:1003D000024604982118002D05D0002801D00846B7
:1003E00000E020462860049800280DD0002A02DD95
:1003F0000098884208D0081B019000943246694654
:10040000029404A8FFF7B8FF06B070BDE90B00081E
:10041000090C0008FFFFFF7F67080008002904DAC5
:10042000401C490001D140084000704770B40024CE
:10043000050C05D11024000402D1002921D011247B
:10044000050E01D100020834050F01D10001241D61
:10045000850F01D18000A41C002801DB4000641C32
:10046000002908D020252E1B0D46F540A14000D0C4
:1004700001212943084301061B1B000ADB1D02D58D
:10048000002070BC7047DB05181880180029F8DAC6
:10049000401C4900F5D170BC40084000704710B5C1
:1004A000002B08DA0024401C614192185B411A437A
:1004B00001D14008400010BDF0B51FB482B0054620
:1004C0000C0003D0084602F093FD02E002F090FD1C
:1004D00020300246009021462846FFF73DFF049B4E
:1004E000059A04460F4618431143084314D0184692
:1004F00010431BD0009840210A1A18460599FFF7AF
:1005000039FE05460E46009A05990498FFF724FF28
:10051000084305D0012004E02046394607B0F0BD6D
:100520000020C11705430E432C43374300990E9812
:100530006305401A7905E40A00220C43FD0A0A30DB
:1005400002D500200146E9E70105101969410C9C1C
:100550000D9D00196941FFF7A2FFDFE7F0B50746DF
:100560000846584087B0C00F049048000E46590016
:1005700040084908BC1A884105D2384631461E4613
:1005800017460B4602465800400810434DD0300D28
:10059000039040055900400D490D0590401A029006
:1005A000402873DA18030121000B09050843019064
:1005B00004980092002806D01146019A4942002072
:1005C000904100910190029840210A1A01990098E7
:1005D000FFF7C2FE05460C466B4607CB00F030F92C
:1005E000C0197141039A0E0D0023D71756401A46C1
:1005F0007A40164344D0049A002A2DD0029A012A48
:10060000039A15DC1205C01A914101263605001C1B
:100610007141D20F059ED2070093019202962A469D
:100620002346FFF749FF07B0F0BD38463146FAE7E9
:100630001605234A0F46B218C01AB7410121090511
:10064000001C4F4100187F41114618187941E20FF4
:1006500010436D19644113E0E2076D081543640807
:10066000C2071443039A01261205C01A91413605A8
:10067000001C7141CE07400830434908C018514161
:100680002A462346FFF70BFFCDE7FFE70498012238
:100690004000C117121A00238B4104983146C41739
:1006A000381AA141EEE730B40124E407634030BCBE
:1006B00054E730B40124E407614030BC4EE7000049
:1006C0000000E0FFF0B50C465C4085B0E40FE407A5
:1006D00003944C00002664085900944649080246D9
:1006E0000296224321D062460A431ED06200570D73
:1006F0004A000E032303550D012402462C4924050C
:10070000781B1B0B360B4018234326436146009091
:100710001C46501AB44103D30098401C009002E0DC
:10072000921800985B41002803DA0020014605B0CA
:10073000F0BD0020012109050746864611E0644608
:100740001D46141BB54106D36546521BB341744682
:1007500007430C43A646CD07400849082843921892
:100760005B4105460D43EAD11046184313D060465D
:10077000194650407140084306D06046101AB341F4
:1007800006D20122002306E000220123DB0702E05B
:100790000122D2435310009874460105381C614170
:1007A000029C039D00196941FFF779FEBFE7000035
:1007B000FD0300004A0009030123090B1B0519432F
:1007C0000A4B10B5520D9A4202DA0020014610BDC4
:1007D000064B34339A4203DC9A1AFFF7CBFC10BD68
:1007E000034BD218FFF7B8FD10BD0000FF03000057
:1007F000CDFBFFFF10B5002904DB0124E4074042D4
:100800008C412146002B04DB1C460123DB075242AE
:10081000A341994200D1904210BD0000064C012531
:10082000064E05E0E36807CC2B430C3C9847103498
:10083000B442F7D3FFF742FCA43D0008C43D0008D2
:1008400010B5202A06DBCB170846203A1041C11705
:100850000B4306E00B461341D0402024A21A9140DE
:100860000843194610BD10B50F21C0B2490200F06F
:100870001BFA10BDFFB5087889B01546FF2805D0D2
:10088000491C2D2804D00022002407E000240BE09E
:100890000122F9E70A235C430419491C0878FF2860
:1008A000F8D1002A00D06442002004902A78014642
:1008B0002D2A01D02B2A0FD16D1C2D2A02D0002207
:1008C000049209E00122FBE700260A2233466D1C50
:1008D00000F0ACF9381871412F78FF2FF4D10C9A41
:1008E000A218069202460A4304D0FF23069A9133C7
:1008F000DA4205DA002109980A4606C00DB0F0BDBB
:100900000024B74AB54D2646079200F0DFF9029061
:1009100006980391002801DA474200E007463905AE
:100920000020AF4A001C51410191009012E0F807ED
:1009300007D022462B4630460799FFF775FC06463E
:10094000079122462B4610461946FFF76DFC0446D8
:100950000D467F10002FEAD10698019B0028009ACF
:100960000399029806DAFFF7ADFE3246079BFFF7C0
:10097000A9FE05E0FFF758FC3246079BFFF754FC41
:10098000049A002A02D00122D2075140099A03C2D8
:10099000B4E7FFB591B0002009900025ED432E206B
:1009A0009E685C681F460190B9696D1C1298884763
:1009B0000090396A88470028F6D10098401C0AD078
:1009C0000D20C0018443002E12DD00982B2809D091
:1009D0002D280DD103E00020C04315B0F0BD01204B
:1009E00080020443B9696D1C12988847761E0090F6
:1009F00003A9600501D52D2000E02B206A46107365
:100A0000491C0CA80F9102900AE0B9696D1C12985C
:100A1000884700900120400204431398761E056029
:100A2000002E02DD00983028EFD00199009888420E
:100A300046D18020044308E00998401E0990012017
:100A4000400204431399681C0860B9696D1C761E46
:100A50001298884700903028EED031E00199884202
:100A600005D1200603D480200443761E1EE00098A2
:100A700002F0C4FB002826D001204002044307A94D
:100A80000F980331761E88420BD200980F993038A8
:100A900008700F98401C0F90200607D50998401E3B
:100AA00003E0200602D40998401C0990A00502D555
:100AB0001399681C0860B9696D1C129888470090EA
:100AC000002ECBDC59E0002E57DD0098652801D0C0
:100AD000452852D1A00550D5032000028443B969AE
:100AE0006D1C761E129888470090002E0CDD2B2876
:100AF00004D02D2808D1FF2001300443B9696D1CB2
:100B000012988847761E0090E00501D52D2100E05F
:100B10002B21029801700298401C0290019025E060
:100B20000120400204430EA902980131761E88423A
:100B30000ED20098029930380006000E087003D1DA
:100B40000299019881420AD90298401C029006E05D
:100B5000E00501D5234801E0224840420990B969E7
:100B60006D1C12988847009013980560002E04DDD4
:100B7000009802F043FB0028D2D1F9691298884707
:100B80000F99FF200870029903AA087000200A90AC
:100B90000B900CA90AA8099BFFF76CFEA00502D4D4
:100BA0000120C04319E72420044209D0E00713D1F3
:100BB00038680B9A0A99031D3B60006806C00BE079
:100BC0000B990A98FFF7ACFB0146E00704D138689F
:100BD000021D3A60006801602846FEE600001440ED
:100BE0000000F03FF1D8FFFF4268002A08D00168FA
:100BF0000B78491C002B03D0521E06C018467047C4
:100C00000121C160881E70474268002A0BD0C3686A
:100C10000168002B07D183688B4204D0491E521C07
:100C200006C0002070470020C0437047F0B51FB4D5
:100C300086B000200090019002900698069980B23C
:100C400004900798090C0204001411430790002730
:100C5000089D099806913E463C4603900398A9B228
:100C60000204000C039004982D0C15434843002106
:100C70002246FFF771FBC719714110340E46402C14
:100C8000ECDB3846029AFFF767FB009A019B80185D
:100C90000090594102980191103002904028CCDB1D
:100CA00000980BB0F0BD00007F2801D9002207E0BA
:100CB000054B42089A5CC00700D112091207120FB7
:100CC0000120904008407047643D00080EB5054A79
:100CD00002920022009213460192FFF7EDFB03B04F
:100CE00000BD00003304000072B6FEE7014620316B
:100CF0004A780023022A04D0042282630B70012068
:100D0000704730B4026814680E25AC431460026862
:100D100014686408640014600125046C2A46C06BE2
:100D2000A24042604D700B7030BC0020704770B51F
:100D30000024014620314A78022A03D0042181632D
:100D4000012416E0026813680E25AB4313600268A5
:100D500013685B085B0013600125036C2A469A4008
:100D6000C36B5A604D7000220A70416B002900D09D
:100D70008847204670BD000070B5044600F02AF98F
:100D80000546601C02D004480078241800F022F9BF
:100D9000401BA042FAD370BD24000020002200298D
:100DA00058D0F0B5012393409E460B404DD0950896
:100DB000294CAD002D19AC689607360F0F27B740A8
:100DC0003C40A4460924E406A04201D100240FE0DF
:100DD000224CA04201D101240AE0214CA04201D1C1
:100DE000022405E01F4CA04201D1032400E00524A9
:100DF000B44064450FD11C4C26689E43266066684B
:100E00009E436660A6689E43A660E6689E43E660D1
:100E1000AB68BB43AB60046855000323AB409C4305
:100E20000460D408A4002418266A5507EF0E0F2585
:100E3000BD40AE432662C4689C43C46044687546A6
:100E4000AC43446084689C4384600B46521CD3408E
:100E5000A8D1F0BD70470000000001400004004828
:100E600000080048000C0048000401400B68002204
:100E7000002B72D0F8B401270B6897403B406DD02F
:100E80000C79A407A40F012C01D0022C10D1856885
:100E900054000326A640B543CE68A6402E43866084
:100EA00044680D79BC43ED06ED0F95402543456040
:100EB0000C79E443A40708D0C56854000326A64073
:100EC000B5438E68A6402E43C6600C79A407A40FD4
:100ED000022C0CD1D408A40027183D6A5407E40E54
:100EE0000F26A640B5430E69A6402E433E62056814
:100EF00054000326A640B5430E79B607B60FA640A8
:100F00002E4306604C68A403A40F49D0284CA56961
:100F100001263543A561A469950834400094254C09
:100F2000AD002F19BD689407240F0F26A640B543C6
:100F30000926F606B04201D1002611E01E4EB0424D
:100F400001D101260CE01D4EB04201D1022607E07E
:100F50001B4EB04203D1032602E028E020E0052624
:100F6000A6402E43BE60174D2C684E689C43F60386
:100F700000D51C432C606C684E689C43B60300D5BA
:100F80001C436C60AC684E689C43F60200D51C4361
:100F9000AC60EC684E689C43B60200D51C43EC6024
:100FA0000B68521CD34000D065E7F8BC704770470F
:100FB0000010024000000140000400480008004802
:100FC000000C004800040140002A01D081617047F4
:100FD000816270470148806870470000240000204B
:100FE00070B4024640325378202B1DD11378012B68
:100FF0001AD0012414702423537003681D68A5437C
:101000001D6003681D682603B5431D6003681D68E5
:101010000D431D600068016821430160202050706D
:101020000020107070BC704770BC0220704770B414
:10103000024640325378202B1CD11378012B19D053
:10104000012515702423537003681C68AC431C6091
:1010500003681C680F263602B44309022143196055
:101060000068016829430160202050700020107042
:1010700070BC704770BC022070470000002801D18E
:101080000120704770B50546044640356878002653
:10109000002803D12E70204600F0EAF82420687062
:1010A000206801684908490001600F21606809064D
:1010B000884321680861206882680121C9038A4346
:1010C0008260E0680128A06808D0212292021043C3
:1010D00022689060E068022804D007E02268084394
:1010E0009060F7E701202268C002506020684268E3
:1010F0000F4B1A4342602068C2688A43C26061692C
:1011000020690843A169090208432168C860216A6F
:10111000E0690843216808602068016801221143E2
:1011200001606664202068702663AE70002070BD88
:1011300000800002FFB5054604464035687881B05E
:1011400020287DD1287801287AD001202870FFF747
:1011500041FF0646012200901923D103204601F0E9
:101160005FFA00286AD1212068701020A87000273B
:10117000676403986062049860856763618D3A488C
:10118000FF2908D9FF222285C30200902046029938
:1011900001F032FA0AE0618D21850090208D012353
:1011A000C2B25B062046029901F026FA608D002843
:1011B0003DD0324620460A9901F08DFA00283DD1F3
:1011C000606A216800788862606A401C6062608D95
:1011D000401E6085208D401E80B22085618D0029D3
:1011E00022D0002820D100960022802120460A9B90
:1011F00001F016FA002821D1608DFF2809D9FF22BD
:10120000228501231B0600972046029901F0F4F97C
:101210000AE0608D20850097208D0123C2B25B0615
:101220002046029901F0E8F9608D0028C1D13246CC
:1012300020460A9901F024FA002804D0012000E099
:101240000FE005B0F0BD20682021C1612068426830
:10125000064B1A4042606970AF702F70002005B0D5
:10126000F0BD022005B0F0BD0020008000E800FEC7
:1012700010B586B000210091019102910391049173
:101280000068114988421DD1104C61690120800419
:101290000143616161690140032005918002009072
:1012A0001220019003200390012004906946084811
:1012B000FFF7DCFDE169012080050143E161E1699F
:1012C0000140059106B010BD0058004000100240DA
:1012D00000040048024881680278891881607047DC
:1012E0002400002010B50648016810221143016057
:1012F000002000F007F800F027F8002010BD0000E3
:101300000020024070B504460D4D7D202978C000B4
:10131000FEF7EAFE01460B480068FEF7E5FE00F026
:10132000A9FB002809D1042C07D200222146401E27
:1013300000F03AF800206C6070BD012070BD000024
:101340002400002030000020084881B0816901227B
:1013500011438161816911400091C26901040A430E
:10136000C261C0690840009001B07047001002409F
:10137000002809DBC106C90E012088400349086026
:10138000BFF34F8FBFF36F8F7047000080E100E025
:10139000002805DBC106C90E01208840014908600C
:1013A0007047000000E100E08207D30EFF229A4060
:1013B0008907090E9940002808DB830809489B002B
:1013C0001818036893430B43036070470007000F2E
:1013D0000838830804489B001818C36993430B43DB
:1013E000C361704700E400E000ED00E0F8B504469A
:1013F0000068394EC0035AD5F0690025C00007D4F3
:10140000F06931040843F061F0690840012500905B
:1014100032480168C90515D40068FF21013108432D
:101420002E490860FFF7D6FD07462C480068C00526
:1014300008D4FFF7CFFDC01B642825D827480068D3
:10144000C005F6D5306A03210902084021D0626840
:101450000A4082421DD0306A326A88430121090461
:101460000A433262326A8A4332623062C00710D065
:10147000FFF7B0FD0746306A80070AD4FFF7AAFDE0
:10148000C11B1748814201D90320F8BD306A80078B
:10149000F4D5306A03210902884361680843306249
:1014A000002D04D0F069012109078843F0612078FC
:1014B000C00705D0306BA168800880000843306306
:1014C0002078800605D5306B10218843E1680843F9
:1014D00030630020F8BD00000010024000700040A2
:1014E00088130000002801D101207047F8B5044698
:1014F0003E480D460068C007C00FA8420AD23B48CC
:10150000016849084900294301600068C007C00F0D
:10151000A84250D12068364E81070CD5400704D52B
:10152000706807210902084370607068F0218843E1
:10153000A168084370602078C0072CD0606801283B
:101540001BD0316802281CD0890734D571688908FE
:10155000890001437160FFF73DFD716807466268CD
:101560000C2001409200914215D0FFF733FDC11BC2
:101570002048814208D90320F8BD316889031AD573
:10158000E4E7890117D5E1E770680C21084061683C
:1015900089008842E9D115480168C907C90FA942E5
:1015A0000BD9016849084900294301600068C00758
:1015B000C00FA84201D00120F8BD2078400706D511
:1015C0007068072109028843E1680843706000F0F1
:1015D00027F87168084A0906090F515CC840074995
:1015E00008600020FFF78EFE0020F8BD00200240BA
:1015F00000100240881300004C3D0008300000201D
:101600000448054900684968044A4905490F515C86
:10161000C840704730000020001002405C3D0008C8
:1016200010B514A00FC888B06C460FC415A00FC821
:101630000FC4184A53680C20194601401648042963
:1016400016D0082914D19902090F6C46645CD16A3E
:1016500004AA0907090F525CD90305D500231946CE
:10166000FEF758FD214601E020460C4901F0D7FC69
:1016700008B010BD02030405060708090A0B0C0D8B
:101680000E0F10100102030405060708090A0B0CCF
:101690000D0E0F100010024000127A0000093D00EC
:1016A000002801D101207047F8B504460078EE4DBE
:1016B000C00754D068680007800F012807D0686809
:1016C0000007800F022809D16868C00306D5286882
:1016D000800344D56068002874D040E06068012829
:1016E0000CD00121890400280DD0052825D02A68B6
:1016F000881082432A60286888430BE0286801210B
:101700000904084306E02868012212049043286077
:101710002868884328606068002812D0FFF75AFCC8
:101720000646286880031AD4FFF754FC801B6428FF
:1017300073D828688003F7D511E02868084328602B
:10174000DCE7FFF747FC06462868800307D5FFF76C
:1017500041FC801B642860D828688003F7D4207877
:10176000800741D568680007800F07D068680007C8
:10177000800F022809D16868C00306D42868800752
:1017800018D5E06801281DD114E0E0680028286819
:1017900019D0012108432860FFF71CFC0646286881
:1017A000800707D4FFF716FC801B022835D828686D
:1017B0008007F7D52868F82188432169C9000843C4
:1017C000286011E04CE1400840002860FFF702FC6F
:1017D00006462868800707D5FFF7FCFB801B022818
:1017E0001BD828688007F7D42078000727D5E06940
:1017F0000028686A12D0012108436862FFF7EAFBFB
:101800000646686A80071AD4FFF7E4FB801B0228AB
:1018100003D8686A8007F7D511E08BE040084000E4
:101820006862FFF7D7FB0646686A800707D5FFF7AF
:10183000D1FB801B02287DD8686A8007F7D4207806
:1018400004264007002866DAE8690027C00007D4AC
:10185000E869B1060843E861E8690840012700909B
:1018600082480168C90515D40168801501437F4885
:101870000160FFF7AFFB00907C480068C00509D409
:10188000FFF7A8FB0099401A64287DD877480068C4
:10189000C005F5D5A06801280AD0002801D0052888
:1018A0001ED0286A400840002862286AB04302E03F
:1018B000286A012108432862A068002814D0FFF795
:1018C00089FB0090286A80071ED4FFF783FB0099EC
:1018D000411A6748814257D8286A8007F5D513E036
:1018E000286A30432862E3E7FFF774FB0090286A18
:1018F000800709D5FFF76EFB0099411A5C488142C9
:1019000042D8286A8007F5D4002F04D0E869012165
:1019100009078843E8612078C0061BD56069012863
:1019200034D0401D686B4ED030436863686B40080C
:10193000400000E028E06863FFF74CFB0646686B58
:10194000800707D5FFF746FB801B02281CD8686B71
:101950008007F7D4206A002868D069680907890FD2
:10196000022968D001263606022828682ED0B04306
:101970002860FFF72FFB04462868800172D5FFF727
:1019800029FB001B022852D90320F8BD686B3043A5
:101990006863686B012108436863FFF71BFB064619
:1019A000686B800707D4FFF715FB801B0228EBD874
:1019B000686B8007F7D5686BF8218843A169C90077
:1019C00008436863C6E7B0436863F4E7B043286040
:1019D000FFF700FB07462868800107D5FFF7FAFAF2
:1019E000C01B0228D0D828688001F7D4E86AE16AD1
:1019F000000900010843E862616AA06A0843696857
:101A00003D221204914308436860286830432860EF
:101A1000FFF7E0FA04462868800123D4FFF7DAFADA
:101A2000001B0228B0D828688001F7D51AE0286882
:101A30008001A4D416E00128A7D06868E96A0122D1
:101A40001204636A02409A420AD10907E26A090F46
:101A5000914205D10F2189040840A16A884201D032
:101A60000120F8BD0020F8BD0010024000700040C9
:101A7000881300000B4910B4401E884202D910BCE4
:101A8000012070470849486108480722C3691B02C2
:101A90001B0A4C042343C361002088610A6110BC07
:101AA00070470000FFFFFF0000E000E004ED00E0F1
:101AB0007047704702462032137F012B01D102206C
:101AC0007047F0B4012616770223537703685D68E8
:101AD0009C687027BD430F682F435F600068094B07
:101AE000984205D0084B984202D0084B984204D146
:101AF000802349689C4321438160567700201077FA
:101B0000F0BC7047002C0140000400400040014040
:101B1000002801D10120704770B5054604462035E4
:101B2000687F002803D12877204600F015F80220AE
:101B30006877211D206801F009F801204034A07168
:101B4000A877E87720706070A070E07020716071F5
:101B50006877002070BD000008B500680F4A104982
:101B6000904207D1CA6902200243CA61C969014093
:101B7000009108BD0B4A9042FBD1CA691020024374
:101B8000CA61C96900220140009111461120FFF786
:101B90000BFC1120FFF7FCFB08BD00000004004017
:101BA0000010024000100040014620314A7F012A07
:101BB00001D00120704702224A770168CB680122D8
:101BC0001343CB6000680949884205D00849884220
:101BD00002D00849884204D181684907490F062983
:101BE00002D001681143016000207047002C0140C1
:101BF0000004004000400140002203469446203388
:101C00001A7F012A02D001221A7701E002207047D0
:101C1000F8B502225A77026894687725FF26AC430C
:101C20003602B44394600A6870240725502A3FD0D6
:101C30000CDC202A79D004DC002A76D0102A20D1AE
:101C400092E0302A71D0402A1BD16FE0602A4CD03C
:101C5000702A1ED001242403121B14D0A24210D1DA
:101C600002688F684C68C968956809022143B543CA
:101C7000394329439160006881680122920311432E
:101C800051E00120844601205877002018776046F3
:101C9000F8BD02688F684C68C968956809022143DD
:101CA000B543394329439160006881687722E6E7AC
:101CB00002684E680096CF68166AB646166A7608BD
:101CC000760016629669F0218E43390131437746DA
:101CD0000A26B743009E916137431762006850227D
:101CE0008168A143114329431DE002684F680097B2
:101CF000C968166A8E461027BE4316629769166A2F
:101D00000F2109038F43714609033943A027BE43BE
:101D1000009F91613F01374317620068602281682C
:101D2000A143114329438160ADE71DE002684E687D
:101D30000096CF68166AB646166A7608760016626E
:101D40009669F0218E433901314377460A26B7431D
:101D5000009E916137431762006840228168A14369
:101D60001143294381608EE700688168A1431143D4
:101D70002943816087E7704770B5044600680169B0
:101D80000025C9438907002915DBC168C9438907B4
:101D900011D4E91E01610120207720688069800745
:101DA000204602D0FFF7E7FF04E000F096F8204657
:101DB00000F094F8257720680169C943490717D4D2
:101DC000C168C943490713D40421C94301610220F2
:101DD0002077206880698005800F204602D0FFF7B9
:101DE000CAFF04E000F079F8204600F077F8257784
:101DF00020680169C943090716D4C168C9430907A6
:101E000012D40821C9430161042020772068C069E9
:101E10008007204602D0FFF7AEFF04E000F05DF837
:101E2000204600F05BF8257720680169C943C906A0
:101E300017D4C168C943C90613D41021C94301612D
:101E4000082020772068C0698005800F204602D0D6
:101E5000FFF791FF04E000F040F8204600F03EF864
:101E6000257720680169C943C90708D1C168C943FA
:101E7000C90704D1891E0161204600F031F82068AD
:101E80000169C943090609D4C168C943090605D4D3
:101E90008021C94301612046FFF70AFE20680169DD
:101EA000C943490609D4C168C943490605D440213C
:101EB000C9430161204600F023F820680169C94345
:101EC000890609D4C168C943890605D42021C943BC
:101ED00001612046FFF7EDFD70BD704770470000BF
:101EE0000549884207D110B50449012048600248DD
:101EF000FFF75AFE10BD70471801002000000020B7
:101F000070477047002801D10120704770B5044622
:101F10002420A06720680168490849000160206802
:101F2000002505602068456020688560204600F037
:101F30008DF980200551A567E56725666034257514
:101F4000002070BD70470000F8B502680446D069F3
:101F5000116896689F4B05461D402023002D76D0C2
:101F6000F7079D4DFF0FBC460D402F436ED0254611
:101F7000C7078035002F06D0CF0504D5012717628B
:101F80002A683A432A60820708D5F20706D02768F4
:101F900002223A622A6804273A432A60420708D597
:101FA000F20706D02668042232622A6802263243EB
:101FB0002A6002070AD50A461A406646324305D00F
:101FC0002668082232622E6816432E60020508D564
:101FD0004A0106D501222668D20232622A681A43D3
:101FE0002A602A68002A2FD0800606D5880604D5E4
:101FF000616E002901D020468847286821688968D9
:10200000490602D4282108422DD0204600F084FE43
:1020100020688168490622D5EFF31081012282F3FE
:102020001088836840229343836081F31088206F77
:10203000002814D069494163206FFEF778FE00281C
:1020400002D0206F416B8847F8BD00E011E08506A3
:102050000FD58D060DD5616E00297CD1F8BD2046C7
:10206000FFF770FFF8BD2046FFF76CFF00202860E7
:10207000F8BD256E012D6FD1C5066DD5CD066BD58A
:1020800010271762206881682546490640350029D7
:1020900048DA226F116849680904090CE8D02E8BD0
:1020A0008E42E5D969839169202933D0EFF31081FD
:1020B000012282F3108802683E01B243026081F37C
:1020C0001088EFF31081012080F310882068826867
:1020D00052085200826081F31088EFF310810120D2
:1020E00080F310882068866840229643866081F3DA
:1020F0001088E36700202066EFF31081012080F351
:10210000108820680368BB43036081F31088206F48
:10211000FEF7ECFD288B698B401A81B22046FFF751
:10212000F0FEF8BD298B6A8B891A6A8B89B2002A66
:10213000F7D00029F5D0EFF31082012585F3108840
:102140000568FF262136B543056082F31088EFF35A
:102150001082012001E023E01BE080F3108820685A
:1021600085686D086D00856082F31088E367002044
:102170002066EFF310826066012080F310882068EB
:102180000368BB43036082F310882046FFF7B9FE63
:10219000F8BD050607D50D0605D5A16E0029F7D0B7
:1021A00020468847F8BD4006FCD54806FAD52046AB
:1021B000EFF31081012484F3108814684025AC43A8
:1021C000146081F3108883670021816600F0B2F902
:1021D000F8BD00000F08000020010004052D0008D4
:1021E000002801D10120704710B50446806F0028F7
:1021F00005D1002174200155204600F04FF824201D
:10220000A06720680168490849000160204600F085
:10221000B3FD012818D0606A002802D0204600F0E3
:10222000D9FC206841680122D202914341602068B4
:10223000816808229143816020680168012211436E
:102240000160204600F02CFD10BD000010B50168B3
:102250000F4B09200F4AC00699420AD19169012308
:102260009B039943916103214902FEF797FD1B20CF
:102270000BE0094B99420AD1D16901235B049943D0
:10228000D1610C21FEF78AFD1C20FFF771F810BD0B
:1022900000380140001002400044004070B586B094
:1022A0000021009101910291039104910168244E53
:1022B00001230920234A5B0402240125C006B14200
:1022C0001DD19169DE1031439161916931400591D1
:1022D00051691943516151690194194005910321D4
:1022E000490200910321039104956946FEF7BEFD62
:1022F000002211461B20FFF757F81B201BE0124E4F
:10230000B1421AD1D1691943D161D16919400591FE
:1023100051691943516151690495194005910C2186
:10232000009101946946FEF7A1FD002211461C2090
:10233000FFF73AF81C20FFF72BF806B070BD00003D
:10234000003801400010024000440040FFB5044640
:10235000C06F85B016460F46202874D1002F0AD0D2
:10236000002E08D0A168C001814207D12069002851
:1023700004D1F80702D0012009B0F0BD204660303A
:102380000090007D01285ED0009801210175002099
:10239000802108512221E1672066FEF71BFE2546B9
:1023A000403502902E836E830121A0680903FF222D
:1023B000884205D12369002B0AD1244AAA8308E068
:1023C000002801D0002203E02369002B00D07F22E7
:1023D000AA8392B20192884202D12069002817D0C4
:1023E0003E460027009900200875688B00281FD002
:1023F0000198C0B203900898009000222021204646
:10240000029B00F055FD002804D0032009B0F0BD68
:102410000026E7E72068002E808C0FD00399084043
:102420003070761C688B401E6883688B0028E2D170
:102430002020E067002009B0F0BD04E001990840C9
:102440003880BF1CEEE7022009B0F0BDFF0100009C
:10245000FFB50446806F83B015460F46202866D12D
:10246000002F0AD0002D08D0A168C001814207D1F9
:102470002069002804D1F80702D0012007B0F0BD80
:10248000204660300090007D012850D00098012146
:1024900001750020802108512120A067FEF79AFDD8
:1024A000264640360190358275820120A1680003DE
:1024B000814202D12069002812D03D4600270099B0
:1024C00000200875708A002818D006980090002215
:1024D00080212046019B00F0EBFC002818D101E090
:1024E0000025ECE7002D16D02168287808856D1CA2
:1024F000708A401E7082708A0028E6D1069800908B
:10250000002240212046019B00F0D2FC002809D087
:10251000032007B0F0BD38882168C005C00D0885CC
:10252000BF1CE5E72020A067002007B0F0BD022017
:1025300007B0F0BD7047FEE701688A69D243920791
:1025400001D400228A6200688169C943C90703D0A7
:10255000816901221143816170470000F8B504468A
:1025600000680E4681691746C943C9063FD44168D1
:10257000890104D44168012292031143416020681B
:1025800080692546C0438006403500280DDA701C5E
:1025900006D0FEF71FFDC01BB0421ED8002E1CD077
:1025A00020688069C0438006F1D420681021C16191
:1025B00020682026C6612046FFF7BEFF20684168DC
:1025C0000C4A11404160606C0421084360646E70E5
:1025D0000020A87028700120F8BD616C2020014304
:1025E000616468700020A87028700120F8BD002088
:1025F000F8BD000000E800FEF0B40068049C4568E7
:10260000660D8905890D054F120411433E43194398
:10261000B54321430D434560F0BC7047FF63FF03A2
:10262000F8B5044600680E4681691D4617463046D7
:10263000884316D00020B84211D1681C07D0FEF79D
:10264000C9FC0699401AA8420DD8002D0BD020686D
:1026500081693046884311D00020B842EDD0002077
:10266000F8BD0120E7E7616C20200143616440343C
:1026700060700020A07020700120F8BD0120ECE700
:1026800070B504460068164680690D46C043800652
:1026900014D5324629462046FFF760FF002801D0B6
:1026A000012070BDFEF796FC801BA84208D8002DC3
:1026B00006D020688069C0438006EAD4002070BD3F
:1026C000616C202001436164403460700020A07080
:1026D0002070012070BD70B5044600681646806900
:1026E0000D46C043800716D5324629462046FFF7DF
:1026F00035FF002801D0012070BD681C06D0FEF710
:1027000069FC801BA84208D8002D06D0206880698B
:10271000C0438007E8D4002070BD616C20200143D5
:102720006164403460700020A0702070012070BD92
:1027300010B5012000F03CF810BD10B53220FEF7B6
:102740001BFB302000F034F80520FEF715FB30208D
:1027500000F02EF80120FEF70FFB302000F028F8E3
:102760000A20FEF709FB202000F022F80A20FEF7DD
:1027700003FB282000F01CF80120FEF7FDFA0820DA
:1027800000F016F80120FEF7F7FA012000F010F82B
:102790000120FEF7F1FA0120FEF7EEFA062000F024
:1027A00007F80120FEF7E8FA0C2000F001F810BD50
:1027B000010910B5090182B00C230A461A436C4680
:1027C0002271082211430001617101461943A17170
:1027D0001043E07164200090042301AA4E210248B6
:1027E000FEF7A8FC02B010BD84000020010910B55E
:1027F000090182B00D230A461A436C462271092250
:1028000011430001617101461943A1711043E07148
:1028100064200090042301AA4E210248FEF78AFC9E
:1028200002B010BD84000020F0B50446007883B0EB
:1028300000281CD00D250926642720786B46010945
:1028400009010A462A431A713143000159710146B0
:10285000294399713043D871042301AA4E210548B8
:10286000641C0097FEF766FC20780028E5D103B0D1
:10287000F0BD00008400002010B5012806D0022819
:1028800006D0032806D0042807D105E0802104E003
:10289000C02102E0942100E0D421C8B2FFF788FFF4
:1028A00010BD000030B587B0002425480094019485
:1028B00002940394049442690121C9040A434261C9
:1028C00042690A4005924269C9000A43426142696D
:1028D0000A400592426949110A43426142690A402D
:1028E0000592426949000A4342614069092508404E
:1028F000ED060590002221212846FEF765FB012008
:1029000040030090212000040190694602940D4884
:10291000FEF7ACFA21200090012001900294694654
:1029200003942846FEF7A2FAFF200130009001949C
:10293000694602940448FEF799FA07B030BD0000DA
:1029400000100240000800480004004810B5134879
:1029500011490160124941600021816001614161BA
:1029600081610122C161C2600162FEF787FB00281C
:1029700001D0FEF7B9F900210848FEF731FB002825
:1029800001D0FEF7B1F900210448FEF750FB002802
:1029900001D0FEF7A9F910BD0058004084000020C6
:1029A0005D3E302010B586B0002400941648019496
:1029B00002940394049413490594016030218460C7
:1029C0004160046111498461C160FFF7A1F80028EA
:1029D00001D0FEF789F901200003009069460A48FA
:1029E000FFF70AF9002801D0FEF77EF9049404A944
:1029F00005480594FFF75EF8002801D0FEF774F94A
:102A000006B010BD00040040D0000020FFFF000011
:102A100010B5094807490160084941600021084A8A
:102A20008160C2608161FFF773F8002801D0FEF772
:102A30005BF910BD001000401801002080BB0000B1
:102A4000B80B000010B50C480A4901604B21C901C0
:102A5000416000218160C16001618161C1610C221E
:102A6000016242614162FFF7BBFB002801D0FEF723
:102A70003BF910BD003801406001002010B50C4842
:102A80000A4901604B21C901416000218160C16098
:102A900001618161C1610C22016242614162FFF703
:102AA0009FFB002801D0FEF71FF910BD0044004035
:102AB000E4010020FEE77047704710B5FEF70AFCFE
:102AC00010BD70B594B0002409940E941020139496
:102AD000059402250490019402940D940F9405200E
:102AE00006940794129401260095C0040B940C944C
:102AF00003960A901094119408956846FEF7D0FD4D
:102B0000002801D072B6FEE707200C900E94012138
:102B10000D950F940CA8FEF7E5FC002801D072B6C5
:102B2000FEE710A810961294FEF760FC002801D072
:102B300072B6FEE714B070BD7047000010B50248D1
:102B4000FFF71AF910BD000018010020F0B4026868
:102B50001A4B1B4C984201D0A04203D17025AA43C6
:102B60004D682A43174D184E184F98420AD0A0427C
:102B700008D0174CA04205D0A84203D0B04201D0E3
:102B8000B84204D103242402A243CC682243802407
:102B9000A2434C69224302608A68C2620A68826268
:102BA000984205D0A84203D0B04201D0B84201D12A
:102BB0000969016301214161F0BC7047002C0140AB
:102BC0000004004000400140004401400048014032
:102BD0000020004010B4818CC90707D001684A6802
:102BE00001235B049A43836A1A434A60818C8907F4
:102BF00007D501684A6801231B049A43C36A1A4334
:102C00004A60818C490707D501684A6801239B0403
:102C10009A43036B1A434A60818C090707D5016800
:102C20004A680123DB039A43436B1A434A60818C51
:102C3000C90607D501688A6801231B039A43836B81
:102C40001A438A60818C890607D501688A68012346
:102C50005B039A43C36B1A438A60818C490612D581
:102C600001684B6801221205046C934323434B60B7
:102C7000016C914207D101684A6803235B059A43BE
:102C8000436C1A434A60818C090607D501684A687B
:102C90000123DB04806C9A4302434A6010BC7047F6
:102CA000F8B50446002580300560FEF793F9074625
:102CB00020680068124E000709D501213B4600221A
:102CC00049052046009600F0F3F800280DD1206851
:102CD000006840070BD501213B46002289052046AC
:102CE000009600F0E5F8002801D00320F8BD202070
:102CF000A067E0672566603425750020F8BD0000F8
:102D0000FFFFFF0110B5406A0022014640314A83AF
:102D10004A82FFF717F910BD10B4EFF310820121BA
:102D200081F3108801680B68FF242134A3430B60F2
:102D300082F31088EFF31082012181F3108801687B
:102D40008B685B085B008B6082F31088016E012941
:102D50000AD1EFF3108281F3108801680B68102408
:102D6000A3430B6082F310882021C1670021016614
:102D7000416610BC7047000070B504468168006968
:102D8000E26901436069002510430143206802683D
:102D9000404B1A400A430260206841680322120334
:102DA0009143E26811434160216AA06901432068B0
:102DB00082680B231B029A430A43826036492068CB
:102DC000884210D13548006B8007800F11D0012850
:102DD00005D0022805D003280AD1022009E00420EA
:102DE00007E0082005E02E49884201D1002000E0DC
:102DF00010200122E369D2032A492B4E934224D1A9
:102E0000002806D0022807D0042807D0082838D187
:102E100008E0FEF7F5FB03E00A4603E0FEF700FCDE
:102E2000020032D0616850004A088018FDF75CF952
:102E300080B201461039B14223D81C490140000735
:102E4000420F20680A43C2601FE0002806D0022813
:102E500007D0042807D0082813D108E0FEF7D0FBDC
:102E600003E00A4603E0FEF7DBFB02000DD06168D9
:102E700048088018FDF738F980B201461039B14290
:102E800001D9012501E02168C86000206066A066C4
:102E9000284670BDF369FFFF003801400010024072
:102EA0000044004000127A00EFFF0000F0FF000035
:102EB000FFB50446006881B00E460A9DC1691746F9
:102EC000304688433FD00020B84268D12046603069
:102ED0000090681C5BD0FEF77DF80499401AA84268
:102EE00033D8002D31D02068016849074FD5C0691B
:102EF000C04300054BD401202168C0020862EFF3F3
:102F00001081012080F3108820680268FF23A1331C
:102F10009A43026081F31088EFF31081012080F35F
:102F200010882068826852085200826081F31088FD
:102F30002020A067E0678034206000990020087599
:102F4000032005B0F0BD0120BEE7EFF310810120A2
:102F500080F3108820680268FF23A1339A4302603F
:102F600081F31088EFF31081012080F3108820682E
:102F7000826852085200826081F310882020A06786
:102F8000E067009900200875032005B0F0BD2068B7
:102F9000C1693046884305D00020B84299D000204E
:102FA00005B0F0BD0120F8E710B50248FEF7CCFFF0
:102FB00010BD00006001002010B50248FEF7C4FFFC
:102FC00010BD0000E40100200FB410B504A9074BA8
:102FD00002AA039800F01AF9044602A9002000F0A2
:102FE000B3FC204610BC08BC04B01847493900089F
:102FF0002021020C01D010211046020A01D01046F7
:103000000839020901D01046091F820801D0104674
:10301000891E420801D0881E7047081A7047F0B414
:10302000040C8BB2264682B25E430D0C1046370C60
:103030005843360480190021794116466E43370CF7
:1030400036048019794126466E438919F0BC7047D1
:1030500001480068704700003800002002E008C8FE
:10306000121F08C1002AFAD170477047002001E002
:1030700001C1121F002AFBD17047000001490860FE
:103080007047000038000020F0B51FB486B00998E2
:10309000089A030D0021024314D05148514A1818D0
:1030A000504305141198012810981AD0281A401C72
:1030B00000264D4F4D49009601910490002812DAE8
:1030C000444211E01198012449A3012801D110982C
:1030D000C1430698119A84600360C26041600BB0DE
:1030E000F0BD4042E4E70446210500203F4A001CB1
:1030F00051410391029012E0E00707D032463B466F
:1031000001990098FDF790F80191009032463B46F6
:1031100010461946FDF788F806460F466410002C45
:10312000EAD10498039B0028029A0999089806DAC4
:10313000FDF77AF8019B009AFDF776F805E0FDF7B8
:10314000C1FA019B009AFDF7BDFA04460E46002223
:10315000284BFDF74FFB03D80020C043014607E092
:103160000022254B20463146FDF7F8F9FDF722FBFA
:10317000102409E0002C0ADB0A220023FCF7CAFF16
:10318000079B30321A55641E02460A43F2D11122BF
:10319000641C079B121B1C19119B012B03D00123DC
:1031A00008430ED10AE0084304D0112010900020FB
:1031B000119077E71098151A6D1E0BE01098824257
:1031C00002DD00236D1C03E0824201DA00236D1E44
:1031D000002BEED0069811998260C16030C07EE766
:1031E00001FCFFFF104D0000000014400000F03F04
:1031F000300000000000F0430000E03F30380A28B3
:1032000001D201207047002070470000FFB597B041
:10321000064600251BE2252876D100242746F749DB
:10322000049400E00443761C32780120203A904058
:103230000842F7D130782A280ED002223078014691
:103240003039092916D804990A23594330394018CE
:103250001443761C0490F1E7189802C80491189062
:10326000002904DA0120400304434842049002206C
:103270000443761C30782E2814D10420044370783F
:10328000761C2A2809D11898761C80C8189009E065
:103290000A214F43303FC719761C30780146303938
:1032A0000929F5D930786C2810D006DC4C281AD0C2
:1032B00068280ED06A2817D104E0742813D07A2821
:1032C00012D110E00120400504430CE00121090562
:1032D00001E0032109050C437178814203D10120EB
:1032E00000052418761C761C307866280BD013DC79
:1032F00058287DD009DC00287BD04528F6D0462808
:10330000F4D047281AD1A9E118E0632835D0642801
:1033100070D0652812D1A1E170286CD008DC672834
:10332000F1D069287DD06E280DD06F2806D1BCE081
:1033300073282ED0752873D0782859D01A9A1999E5
:1033400090476D1C82E16002400F022809D00328DB
:103350000DD00428189801680DD00D60001D18903C
:1033600074E11898EA1701680D604A60F6E718984A
:1033700001680D80F2E70D70F0E718986A46017851
:103380001172001D18900020507202A800900120B8
:1033900005E0189802C8189000200091C04361070A
:1033A0000ED5002101E00199491C0191B94213DABF
:1033B0008142F8DB019A0099895C0029F3D10BE086
:1033C000002101E00199491C01918142FADB019A37
:1033D0000099895C0029F5D1019904981A9B471A34
:1033E00021463846199A00F099FA4019019903E0EC
:1033F00051E030E115E050E0451807E000980099F1
:103400000078491C00911A9A199990470198401E1A
:103410000190401CF2D1214638461A9B199A12E1BC
:1034200037E00A200021009001916002410F02293B
:1034300007D0189A01CA1892C2179446032908D0D7
:103440000AE01898C01DC108C90005C91891944622
:1034500007E000B2C2179446042902D140B2C11756
:103460008C4600226146944506DA0A460021404215
:1034700091418C462D2102E0210504D52B216A467D
:103480001173012103E0E10701D02021F7E7029148
:1034900056E00A200AE0102008E0102000900021E9
:1034A000042004430191082703E008200021019132
:1034B00000906002410F022907D0189A01CA1892A1
:1034C00000229446032908D008E01898C01DC108BE
:1034D000C90005C91891944603E080B2042900D1BF
:1034E000C0B20021029121072AD531780D917029AF
:1034F00006D0009A1021019B4A401A4305D00EE0E5
:1035000040216A461173012108E06146014306D05B
:1035100030216A4611730D99517302210291009A6C
:103520000821019B4A401A430AD16146014301D157
:10353000610705D530216A46117301217F1E029172
:103540003178582904D02EA10E910DA90D910DE0CE
:1035500030A1F9E76146019B009AFCF7DBFD0E9B69
:103560008C469B5C0D9A521E0D921370614601436E
:10357000F0D10D9805A9081A20300190600703D5F5
:1035800001200004844300E001270198874201DD07
:10359000381A00E00020019900904118029809189B
:1035A0000498401A0490E00306D421461A9B199A05
:1035B000049800F0B3F94519002706E003A81A9A09
:1035C000C05D199990476D1C7F1C02988742F5DBFE
:1035D000E0030CD521461A9B199A049800F09EF935
:1035E000451904E01A9A3020199990476D1C0099EA
:1035F000481E00900029F5DC1FE0000009280100AA
:103600003031323334353637383961626364656658
:10361000000000003031323334353637383941421A
:1036200043444546000000000D980D990078491C60
:103630000D911A9A199990476D1C0199481E019095
:103640000029F1DC4DE100F059F94519761C30787C
:10365000002800D0DFE528461BB0F0BD600700D48D
:1036600006271898C01DC108C90048680A680831B3
:10367000C30FDB071891190001D09CA108E02105B8
:1036800001D59BA104E0E10701D09AA100E09AA135
:103690004300109130785B0865280CD006DC452883
:1036A00009D046281DD0472841D141E0662818D0CE
:1036B00067283CD13CE00021112F01DB112000E004
:1036C000781C0191009008A911A8FFF7DDFC13995F
:1036D00005910021119A15927F1C12980197009173
:1036E00050E00120C00703900120019008A9009735
:1036F00011A8FFF7C9FC139A149905920022119B97
:10370000009212981593059A0192002901D0104653
:1037100002E0791C40180190381A01D5019804E0A4
:103720004042401E0090781C0190C01B029043E074
:10373000012F00DA01270021112F01DD112000E007
:1037400038460191009008A911A8FFF79DFC139934
:103750000591119A00211298159200910197210765
:103760000CD40599B94201DB019900E001910129CE
:1037700004DD159A491E515C302906D0B84201DAA1
:10378000011D05DA0121029115E00199491EEDE7BD
:10379000002805DC0099411800910199091A03E0FD
:1037A000019A411C914200DD01910099401A401C90
:1037B00002900120C0070390200706D402990198C7
:1037C000814202DB0020C043029000206946C87796
:1037D00007AF012103980337C907884224D002208C
:1037E00011902B201290039800280CDA404203908D
:1037F0002D20129007E00A210398FCF775FC303168
:103800007F1E039039701199481E11900029F2DC37
:1038100003980028EFD1791E129808703078202183
:1038200008404530BF1E387006A8C01BC01D03905D
:1038300010980078002800D00120019941180298C2
:10384000C0170918039809180498401A401E0490DC
:10385000E00306D421461A9B199A049800F05EF8FA
:10386000451910980078002803D01A9A19999047A2
:103870006D1CE00324D521461A9B199A049800F088
:103880004DF845191CE00098002807DB00990598C1
:10389000884203DD1598405C199901E019993020A0
:1038A0001A9A904700986D1C401C00900298401E88
:1038B0000290002804D11A9A2E20199990476D1C65
:1038C0000199481E01900029DDDC05E038781A9A3C
:1038D0007F1C199990476D1C0399481E039000297D
:1038E000F4DC21461A9B199A0498ACE62D000000DE
:1038F0002B0000002000000000000000F8B5044686
:1039000000251E461746880404D405E039462020C9
:10391000B0476D1C641EF9D52846F8BDFFB50446B6
:10392000002581B01E46C80301D5302700E02027BE
:10393000880404D505E038460399B0476D1C641E21
:10394000F9D5284605B0F0BD0A68531C0B6010700D
:10395000704730B583B00446FFF77AFB0546002078
:1039600000900246019021466846FCF720FD28465B
:10397000FFF784FB0199009803B030BDF0B587B024
:1039800005463CA1FCF707FC002840D03AA1284698
:10399000FCF701FC00283AD038A12846FCF7FBFBD5
:1039A000002805D036A12846FCF7F5FB00285FD19A
:1039B0000024E01D802630430490FEF7F9FE31A07C
:1039C000FEF732FF20461A303043FEF7F1FE2EA0FC
:1039D000FEF72AFF20465B303043FEF7E9FE2AA0BF
:1039E000FEF722FFAE686868059000270498FEF78E
:1039F000DFFE2846FEF718FFFF20C00524493018D7
:103A0000884202D32348864203DB012706E00624CE
:103A1000CFE7FF20C005C64200D20227A868FCF706
:103A20006BFC02460B461CA16846FFF7CDFA38191D
:103A300080271A303843FEF7BBFE6846FEF7F4FED7
:103A400014490598884201DA012600E000266868DA
:103A5000FCF752FC02460B460FA102A8FFF7B4FA8E
:103A600030195B303843FEF7A3FE02A8FEF7DCFEF8
:103A700007B0F0BD47574800534753004F55540017
:103A8000534F530020202000202020202000000041
:103A90000000A04000002041252E316600000000FB
:103AA000FDF720FCFFF70DF8FEF7FCFEFEF77AFFAE
:103AB000FEF7E4FFFEF74AFFFEF7C4FFFEF7A8FF9C
:103AC0001E48FEF771F8FEF738FE0120FEF7D4FE1F
:103AD0001BA0FEF7A9FE0220FEF7CEFE1BA0FEF7FC
:103AE000A3FE0320FEF7C8FE1BA0FEF79DFE7D246B
:103AF00024012046FDF740F9FEF71AFEFEF71DFEF1
:103B000000F0F0F81748FFF739FF2046FDF734F9C9
:103B1000092000220121C006FDF756FA124D0024AB
:103B200068680028FCD0114800F022F8012803D171
:103B30000E48FFF723FF2C606C60F1E718010020AE
:103B40002057656C636F6D652000000020202020E9
:103B500061742020200000002020472D486F7573DD
:103B60006520000008000020000000206800002000
:103B700030B504468BB00020009001900290039075
:103B80000490059006900790089009900A901B48B1
:103B9000FEF726FB09250122ED0611462846FDF712
:103BA00013FA174B2A2269461448FEF7CFFB00226E
:103BB00001212846FDF708FA7D25ED002B46142249
:103BC00010A11548FEF744FC2B462A2269461248EC
:103BD000FEF73EFC0948FEF795F968460178002992
:103BE00005D12922411CFCF7E4FA002804D0214623
:103BF000684600F013F801200BB030BD60010020D2
:103C0000B80B00005265636569766564206D657365
:103C1000736167653A200A00E4010020F0B50C46A4
:103C200087B026A1FCF7DCFA00266F46002808D0F2
:103C3000B100785021A10020761CFCF7D1FA0028B1
:103C4000F6D10025002E36DDA900684640581CA19B
:103C5000FCF7C6FA05901AA10020FCF7C1FA074646
:103C600018A00599FCF797FA00280CD017A0059921
:103C7000FCF791FA00280CD017A00599FCF78BFAF5
:103C800000280ED014E039462046FCF79FFAA761C1
:103C90000EE03846FFF75DFEFCF742FB6761A0606F
:103CA00006E03846FFF755FEFCF73AFB27616060F7
:103CB0006D1CB542C8DB07B0F0BD00002B00000052
:103CC0003A000000446576696365000054656D70D4
:103CD000657261747572650048756D69646974799F
:103CE0000000000010B50120FEF7C6FD10A0FEF791
:103CF0009BFD0320FEF7C0FD0FA0FEF795FD0420FD
:103D0000FEF7BAFD0EA0FEF78FFDA620FEF750FDD0
:103D1000DF20FEF76BFDA720FEF74AFD0AA0FEF7A5
:103D200083FDE720FEF744FD2520FEF75FFD10BD73
:103D300049442020203A000054656D70203A00006C
:103D4000722E48756D3A000043000000000000002C
:103D5000000000000102030406070809000000003B
:103D600001020304DDDDDDDDDCBBBBDDDDDDDDDD32
:103D7000DDDDDDDD988888888888888877777777A3
:103D8000778888888555555666666666666666666F
:103D9000666888888333333222222222222222221A
:103DA0002228888DC43D0008000000203C0000004F
:103DB0005C300008003E00083C0000202C0600009B
:103DC0006C30000800000000000000002D492D00AC
:103DD00000000000CDCCC7C20500000000000000BC
:103DE00000000000000000000100000004000000CE
:103DF0000000000000127A00000000000000000037
:04000005080000B53A
:00000001FF
