:020000040800F2
:10000000D0050020CD000008B12A0008D524000842
:1000100000000000000000000000000000000000E0
:10002000000000000000000000000000B72A0008E7
:100030000000000000000000B52A0008092B00089D
:10004000DF00000800000000DF000008DF000008FB
:10005000DF000008DF000008DF000008DF00000804
:1000600000000000DF000008DF000008DF000008DB
:10007000DF000008DF000008DF00000800000000CB
:10008000DF000008DF00000800000000DF000008BB
:10009000DF000008DF000008DF000008DF000008C4
:1000A000DF000008DF000008DF000008DF000008B4
:1000B000B53100080448854600F022FC004800479E
:1000C0000D3E0008C046C046D005002004488047C9
:1000D00004480047FEE7FEE7FEE7FEE7FEE7FEE72F
:1000E000932B0008B500000830B50B4601460020F0
:1000F0002022012409E00D46D5409D4205D31D462E
:100100009540491B2546954040191546521E002D25
:10011000F1DC30BD70B500242546002801DA012449
:100120004042002901DA01254942FFF7DDFFAC42D8
:1001300000D04042002C00D0494270BDF0B51FB441
:100140000646002082B005464024019100901BE045
:10015000019922460F46304600F020F8049A059B8C
:10016000801A994110D310461946224600F0A1F991
:10017000361A8F410197224601200021009F00F08E
:1001800098F938184D4100902046641E0028DFDCA5
:10019000019B00982946324607B0F0BD10B5202AD1
:1001A00004DB0846203AD040002110BD0B46D34066
:1001B000D0402024A21A91400843194610BDD2B263
:1001C00001E00270401C491EFBD270470022F6E796
:1001D00010B513460A4604461946FFF7F0FF2046BD
:1001E00010BDF8B502464A40D40F42004B005208F9
:1001F0005B089A4202D20246084611464A0023D0C2
:10020000C30D4A00DDB2120EAD1A202D35DA4902B7
:100210000126490AF6058A19002C00D052422021F5
:100220004F1B1146B9402A411018C20D9A4221D0E5
:10023000002C17D0012D08DCDA05801AD20F8019A6
:10024000D207DBB200F04DF9F8BDDA05801A0123C0
:1002500040001B06C01880185A428018CA0F10436D
:10026000490007E04908C2071143DA05801A8019DE
:100270004008801800F02DF9F8BD61000122511AE4
:10028000001BF7E70122D2075140AAE70122D2075B
:100290005040A6E770B502464A40D50F40004A00DC
:1002A000ED0740085208002814D0002A12D0C40DCF
:1002B000D30D41020120C0055202490A520AE41A34
:1002C000091812187D34914201D3641C00E04900E2
:1002D000002C01DA002070BD0023914201D3891A5D
:1002E0000343400849000028F7D100290AD0914271
:1002F00002D10121C90705E0914201D2012101E0AB
:100300000121C943E005C018401900F0E2F870BDB2
:10031000F0B51FB488B00B9909980024484009999A
:10032000C00F490049080991C0070B990090490086
:1003300049080B9109990898A64608431CD00B99C7
:100340000A98084318D0099801244000420D48003B
:10035000410D099824050003000B204309900B98D8
:100360000003000B20430B9050181C49401800223A
:1003700001901446104605E0002001460DB0F0BD86
:10038000032801DA034600E003239C46C11A0AAEA3
:100390000AE05F0008ADED5B4F00F75B7D4300278F
:1003A000AA187C41491C5B1E6145F2DD410004AB8B
:1003B0005A522104120C0A43240C401C0828DFDB8B
:1003C000019802900099704601910090059B049A53
:1003D0000799069800F0CBF8D0E700000DFCFFFF6E
:1003E000C217C10F504010B54018CA07962300210C
:1003F00000F077F810BD00000EB5C217C10F5040D5
:10040000CA0740180021054B0293019200910A4649
:100410000B4600F0ACF803B000BD00003304000050
:10042000C20F410040020123400ADB05D207090E3A
:10043000C0187F2901DA00207047962903DC962333
:10044000591AC84001E096398840002AF4D0404249
:100450007047C20FD207400040080BD0C10D0723E0
:10046000DB01C91840020905400A1143C2084007D0
:1004700011437047002001467047CB0FDB0749004E
:1004800010B5490802460A4307D00A0D072409039C
:10049000E401090B121B002A01DC002010BDC90079
:1004A000440F0C43C100E018D205801800F011F889
:1004B00010BD10B5202A04DB0146203A91400020EF
:1004C00010BD914020239C1A0346E34019439040FD
:1004D00010BD002904DA401C490001D14008400049
:1004E000704770B40024050C05D11024000402D11B
:1004F000002921D01124050E01D100020834050F76
:1005000001D10001241D850F01D18000A41C002809
:1005100001DB4000641C002908D020252E1B0D465D
:10052000F540A14000D001212943084301061B1BCF
:10053000000ADB1D02D5002070BC7047DB051818CF
:1005400080180029F8DA401C4900F5D170BC400839
:100550004000704710B5002B08DA0024401C6141B0
:1005600092185B411A4301D14008400010BDF0B51C
:100570001FB482B005460C0003D0084602F046FEC8
:1005800002E002F043FE2030024600902146284659
:10059000FFF78FFF049B059A04460F46184311434B
:1005A000084314D0184610431BD0009840210A1A63
:1005B00018460599FFF7F2FD05460E46009A059983
:1005C0000498FFF776FF084305D0012004E0204699
:1005D000394607B0F0BD0020C11705430E432C4338
:1005E000374300990E986305401A7905E40A002202
:1005F0000C43FD0A0A3002D500200146E9E7010557
:10060000101969410C9C0D9D00196941FFF7A2FF6B
:10061000DFE70000F0B507460846584087B0C00F36
:10062000049048000E46590040084908BC1A884109
:1006300005D2384631461E4617460B46024658003C
:10064000400810434DD0300D039040055900400D37
:10065000490D0590401A0290402873DA18030121D1
:10066000000B09050843019004980092002806D069
:100670001146019A49420020904100910190029850
:1006800040210A1A01990098FFF713FF05460C460E
:100690006B4607CB00F046F9C0197141039A0E0D65
:1006A0000023D71756401A467A40164344D0049A7E
:1006B000002A2DD0029A012A039A15DC1205C01ACD
:1006C000914101263605001C7141D20F059ED207CB
:1006D0000093019202962A462346FFF748FF07B08F
:1006E000F0BD38463146FAE71605234A0F46B218E0
:1006F000C01AB74101210905001C4F4100187F4174
:10070000114618187941E20F10436D19644113E046
:10071000E2076D0815436408C2071443039A0126D3
:100720001205C01A91413605001C7141CE074008E0
:1007300030434908C01851412A462346FFF70AFFB3
:10074000CDE7FFE7049801224000C117121A0023E9
:100750008B4104983146C417381AA141EEE730B4F2
:100760000124E407634030BC54E730B40124E407BB
:10077000614030BC4EE700000000E0FFF0B50C46E1
:100780005C4085B0E40FE40703944C000026640845
:1007900059009446490802460296224321D06246F7
:1007A0000A431ED06200570D4A000E032303550D65
:1007B000012402462C492405781B1B0B360B4018DC
:1007C00023432643614600901C46501AB44103D38C
:1007D0000098401C009002E0921800985B410028AD
:1007E00003DA0020014605B0F0BD00200121090513
:1007F0000746864611E064461D46141BB54106D3E4
:100800006546521BB341744607430C43A646CD07C9
:1008100040084908284392185B4105460D43EAD138
:100820001046184313D060461946504071400843A3
:1008300006D06046101AB34106D20122002306E01A
:1008400000220123DB0702E00122D243531000986B
:1008500074460105381C6141029C039D00196941E1
:10086000FFF778FEBFE70000FD03000070B54B0006
:100870005B0803430BD04B005C0D002633466542FA
:10088000B341D417AD1AA34102DB0020014670BD6D
:1008900012053018514170BD4A0009030123090BAC
:1008A0001B0519430A4B10B5520D9A4202DA00207B
:1008B000014610BD064B34339A4203DC9A1AFFF707
:1008C0006DFC10BD034BD218FFF7F3FD10BD000007
:1008D000FF030000CDFBFFFF10B5002904DB01245E
:1008E000E40740428C412146002B04DB1C460123D7
:1008F000DB075242A341994200D1904210BD000053
:10090000064C0125064E05E0E36807CC2B430C3C62
:1009100098471034B442F7D3FFF7D0FBC04A000821
:10092000E04A000810B5202A06DBCB170846203A1B
:100930001041C1170B4306E00B461341D040202461
:10094000A21A91400843194610BDFEB500231A466D
:100950001B1A8A4103DB0020014603B0F0BD4A00A8
:100960000D0301212D0B0905520D0D43D10702D1B5
:1009700000186D41521E5110FF31FF310131002727
:1009800004463E4638460097019102460121002068
:100990000905FFF703FCC3197141F8183246844674
:1009A0008E464A4161462846611A904104D360460A
:1009B000241A954176461F46241900986D41401C23
:1009C00000903428E1DDF91930467041091BA84137
:1009D00003D20022D243134601E0002213460198BD
:1009E0000105381C7141FFF7B5FDB6E710B50024CD
:1009F000282003F087F9FF2101310E4800F01CFA8E
:100A000000280CD1502003F07DF9FF210131094865
:100A100000F012FA002801D0012400E0022400BFF7
:100A2000FF210131034800F007FA0028F8D12046E1
:100A300010BD000000040048F0B585B00446204811
:100A40000068012108431E49086000F06FF8FFF7B5
:100A5000CDFF049000F036F8074600F033F803901D
:100A600000F030F8054600F02DF8064600F02AF8B0
:100A700002900398381840198019C0B20190029969
:100A80000198884216D1290231430846FFF7A8FC95
:100A900020603902039A11430846FFF7A1FC606009
:100AA0002572667201226946206803F047F968469C
:100AB000206100BF024800680149086005B0F0BD30
:100AC0000004004070B5002429E000BFFF2101317F
:100AD000154800F0B1F90028F8D0282003F012F9E9
:100AE000FF210131104800F0A7F9002807D10720A5
:100AF000011B01208840294681430D4605E007205F
:100B0000011B012088402843C5B200BFFF210131ED
:100B1000054800F091F90028F8D1601CC4B2082CF7
:100B2000D3DB284670BD00000004004810B5FF214B
:100B300001310D4801F0D5FF0022FF2101310A48A3
:100B400000F083F94B20000103F0DCF801221102D0
:100B5000054800F07AF9142003F0D4F8FF210131A0
:100B6000014801F0A9FF10BD0004004872B600BFA3
:100B7000FEE701462120405C022808D0042088635B
:100B800000BF00222020425400BF012070470868A7
:100B900000680E2290430A681060086800684008E8
:100BA00040000A68106001200A6C9040CA6B5060D7
:100BB00001222120425400BF00222020425400BFC5
:100BC0000020E3E770B5044600252120005D0228DF
:100BD00003D00420A06301251EE0206800680E21D8
:100BE0008843216808602068006840084000216848
:100BF00008600120216C8840E16B486001212120C0
:100C0000015500BF00212020015500BF606B002866
:100C100002D02046616B8847284670BD70B50446F7
:100C200000F01AF906462546681C002802D005483F
:100C300000782D1800BF00F00FF9801BA842FAD3EE
:100C400070BD00001000002078B503460A46002160
:100C5000DFE001268E4014683440002C7ED01579E8
:100C6000AD07AD0F012D04D01579AD07AD0F022DE5
:100C700018D198684E000325B5400646AE4330466D
:100C80004E00D568B54028439860586801258D40CE
:100C90000646AE4330461026556835402D098D4036
:100CA000284358601579AD07AD0F032D0BD0D868D8
:100CB0004E000325B5400646AE4330464E009568CB
:100CC000B5402843D8601579AD07AD0F022D15D179
:100CD000CD08AE001D462035A8594D07EE0E0F2554
:100CE000B5400646AE4330464E07F60E1569B54090
:100CF0002843CD08AD001E462036705118684E00BE
:100D00000325B5400646AE4330461579AD07AD0F15
:100D10004E00B54028431860032636045568354018
:100D2000002D75D000BF3E4DAD69012635433C4EC8
:100D3000B5613546AD69ED07ED0F009500BF00BF09
:100D4000384D8E08B600A8598D072E0F0F25B540D7
:100D50000646AE4330460925ED0600E058E0AB42BA
:100D600001D100250FE0304DAB4201D101250AE051
:100D70002E4DAB4201D1022505E02D4DAB4201D1F4
:100D8000032500E005258E07360FB5402843254D85
:100D90008E08B600A851274D28680546A543284669
:100DA0000126360455683540002D02D005462543FE
:100DB0002846204D286068680546A5432846012638
:100DC000760455683540002D02D005462543284657
:100DD000184D6860A8680546A543284601263605D3
:100DE00055683540002D02D0054625432846114D53
:100DF000A860E8680546A54328460126760555689B
:100E00003540002D02D0054625432846094DE860AF
:100E1000491C1568CD40002D00D01AE778BD0000B0
:100E2000001002400800014000040048000800488B
:100E3000000C004800040140024613690B40002BDF
:100E400001D0012000E000207047002A01D081611C
:100E500000E08162704700000148006870470000B0
:100E60000800002002464120805C20282FD100BFCE
:100E70004020805C012801D10220704701234020DE
:100E8000835400BF24234120835410680068400825
:100E90004000136818601068006801231B03984322
:100EA00013681860106800680843136818601068B9
:100EB00000680123184313681860202341208354DD
:100EC00000BF00234020835400BF0020D5E702204C
:100ED000D3E710B502460B464120805C20282ED176
:100EE00000BF4020805C012801D1022010BD0124F8
:100EF0004020845400BF242441208454106800689A
:100F00004008400014682060106801680F24240223
:100F10000846A043014618020143106801601068AA
:100F20000068012420431468206020244120845458
:100F300000BF00244020845400BF0020D6E70220D8
:100F4000D4E7000010B50446002C01D1012010BDEB
:100F50004120005D002805D1002140200155204698
:100F600000F010F924214120015520680068400854
:100F70004000216808600F210906606888432168E5
:100F80000861206880680121C9038843216888605E
:100F9000E068012806D10121C903A068084321683F
:100FA000886005E021218902A068084321688860E3
:100FB000E068022802D18002216848602068406809
:100FC00014490843216848602068C0680121C903AA
:100FD00088432168C860616920690843A1690902E2
:100FE00008432168C860216AE069084321680860F5
:100FF00020680068012108432168086000206064BF
:10100000202141200155002020630021422001556C
:1010100000209CE700800002FFB581B00446164620
:101020001F464120005D202877D100BF4020005D91
:10103000012802D1022005B0F0BD01214020015558
:1010400000BFFFF709FF054619230122D1032046FF
:10105000009501F0D3FA002801D00120EBE721210F
:101060004120015510214220015500206064666234
:1010700067856063608DFF280BD9FF2020853F487E
:101080000090208DC2B20B052046029901F09AFA19
:101090000BE0608D208539480090208DC2B201237D
:1010A0005B062046029901F08DFA43E02A4620466D
:1010B0000A9901F0FCFA002801D00120BBE7606A20
:1010C000007821688862606A401C6062608D401E02
:1010D0006085208D401E2085608D00282AD0208DBF
:1010E000002827D100950022802120460A9B01F08C
:1010F00085FA002801D001209DE7608DFF280DD9D9
:10110000FF20208500200090208DC2B201231B0605
:101110002046029901F056FA0CE02CE0608D208503
:1011200000200090208DC2B201235B062046029968
:1011300001F048FA608D0028B8D12A4620460A9965
:1011400001F088FA002801D0012074E720202168EE
:10115000C861206840680A49084021684860202129
:101160004120015500214220015500BF402001557A
:1011700000BF00205FE702205DE700000020008044
:1011800000E800FE10B586B00446142101A8FFF760
:101190001DF81A49206888422ED100BF18484069BE
:1011A0000121890408431649486108464069012124
:1011B00089040840009000BF00BF03208002019016
:1011C000122002900020039003200490012005903B
:1011D00001A90C48FFF738FD00BF0948C06901218B
:1011E000890508430649C8610846C0690121890587
:1011F0000840009000BF00BF06B010BD005800407E
:1012000000100240000400480348006803490978C0
:1012100040180149086070470800002010000020B5
:1012200010B50648006810210843044908600020F2
:1012300000F006F800F02EF8002010BD002002405B
:1012400070B50446104801787D20C000FEF74CFFC1
:10125000064631460D480068FEF746FF054600F099
:10126000F5FC002801D0012070BD042C07D200221B
:101270002146501E00F03CF80548046001E00120C2
:10128000F2E70020F0E7000010000020140000202A
:101290000C00002008B500BF0D48806901210843FB
:1012A0000B49886108468069C007C00F009000BFE5
:1012B00000BF00BF0846C069090408430449C8616B
:1012C0000846C06909040840009000BF00BF08BD7F
:1012D000001002400146002905DBCB06DB0E01228F
:1012E0009A40024B1A6000BF7047000000E100E026
:1012F00070B504460D4616462946204601F0CCFF3F
:1013000070BD0000F8B5044600260025012109043F
:101310002068084088427AD100274B48C0690903F9
:10132000084000280DD100BF4748C069084346491E
:10133000C8610846C06909040840009000BF00BFAA
:10134000012742480068FF2101310840002816D1DA
:101350003E48006808433D490860FFF77DFD0646AA
:1013600006E0FFF779FD801B642801D90320F8BD52
:1013700036480068FF21013108400028F1D032488A
:10138000006A0321090208400546002D2DD060683F
:101390000840A84229D02C48006A884305462A48BC
:1013A000006A012109040843274908620846006AC7
:1013B0000121090488432449086208460562E807B8
:1013C000C00F002811D0FFF747FD064607E0FFF7E2
:1013D00043FD801B1E49884201D90320C7E71A48F4
:1013E000006A022108400028F1D01748006A032152
:1013F000090288436168084313490862012F05D137
:101400000846C069090488430F49C86100BF2078B5
:10141000C007C00F002807D00B48006B8008800071
:10142000A168084308490863202120680840202853
:1014300007D10548006B10218843E1680843024941
:101440000863002093E70000001002400070004095
:101450008813000070B504460D46002C01D1012010
:1014600070BD52480068C007C00FA8420ED24F4856
:1014700000684008400028434C490860084600685E
:10148000C007C00FA84201D00120E9E7022120686F
:101490000840022814D1042120680840042807D1FC
:1014A0004348406807210902884340184049486082
:1014B0003F484068F0218843A16808433C494860A0
:1014C0002078C007C00F00283BD06068012808D1F1
:1014D00037480068012149040840002815D101203F
:1014E000BEE76068022808D131480068012149063A
:1014F0000840002809D10120B2E72D4800680221E8
:101500000840002801D10120AAE729484068800846
:1015100080006168084326494860FFF79DFC064645
:1015200007E0FFF799FC801B2249884201D903207C
:1015300096E71F4840680C2108406168890088428E
:10154000EFD11A480068C007C00FA8420ED917484B
:1015500000684008400028431449086008460068B5
:10156000C007C00FA84201D0012079E704212068FC
:101570000840042808D10E48406807210902884322
:10158000E16808430A49486000F032F808494968B0
:10159000F02211400909084A515CC8400749086017
:1015A0000020FFF74DFE00205AE700000020024017
:1015B0000010024088130000184A000814000020A0
:1015C00001480068704700001400002000B5FFF7D4
:1015D000F7FF05494968072212021140090A034A28
:1015E000515CC84000BD000000100240284A0008BD
:1015F000F0B589B027A001460EC9C06805AC0EC47D
:10160000089028A001460EC9C06801AC0EC4049021
:10161000002400250027002600200090254844686B
:101620000C20204000282DD0042802D0082828D1E2
:1016300002E02148009028E00F2080042040800C28
:1016400005A90E5C1B48C06A0007000F01A90D5CCC
:101650000120000420400121090488420AD12A46C1
:10166000002315481946FEF769FD314601F0E5FDF6
:10167000074604E01148314601F0DFFD07460097B8
:1016800003E000BF0C48009000BF00BF009809B005
:10169000F0BD000002030405060708090A0B0C0D43
:1016A0000E0F10100102030405060708090A0B0CAF
:1016B0000D0E0F100010024000127A0000093D00CC
:1016C000FEB50446002C01D10120FEBD2078C007E4
:1016D000C00F002871D0FC4840680C210840042845
:1016E0000BD0F94840680840082812D1F6484068F5
:1016F00001210904084088420BD1F3480068012108
:101700004904084000286BD06068002868D1012097
:10171000DBE700BF6068012807D1EB4800680121C2
:1017200009040843E849086031E0606800280ED1E8
:10173000E5480068012109048843E3490860084638
:101740000068012189048843DF4908601FE0606860
:1017500005280ED1DC480068012189040843DA49D4
:10176000086008460068012109040843D64908605A
:101770000DE0D5480068012109048843D24908607A
:1017800008460068012189048843CF49086000BFEA
:101790006068002812D0FFF75FFB054606E0FFF700
:1017A0005BFB401B642801D903208EE7C648006814
:1017B0000121490408400028F1D011E0FFF74CFB5B
:1017C000054606E0FFF748FB401B642801D90320CB
:1017D0007BE7BD4800680121490408400028F1D199
:1017E000022120680840022861D1B74840680C21D6
:1017F000084000280BD0B4484068084008281BD196
:10180000B1484068012109040840002814D1AE48BD
:10181000006802210840002804D0E068012801D0B7
:10182000012052E7A8480068F82188432169C900CF
:101830000843A54908603AE0E068002820D0A248A3
:10184000006801210843A0490860FFF705FB054631
:1018500006E0FFF701FB401B022801D9032034E713
:1018600099480068022108400028F2D09648006894
:10187000F82188432169C90008439349086016E0AC
:1018800091480068400840008F490860FFF7E4FA7B
:10189000054606E0FFF7E0FA401B022801D90320C5
:1018A00013E789480068022108400028F2D1082186
:1018B00020680840082831D1E069002817D0824804
:1018C000406A0121084380494862FFF7C5FA05468E
:1018D00006E0FFF7C1FA401B022801D90320F4E615
:1018E0007948406A022108400028F2D016E0764884
:1018F000406A4008400074494862FFF7ADFA054667
:1019000006E0FFF7A9FA401B022801D90320DCE614
:101910006D48406A022108400028F2D10421206865
:101920000840042873D1002001906748C0698906E7
:10193000084000280ED100BF6348C06908436249CF
:10194000C8610846C06909040840009000BF00BF94
:10195000012001905D480068FF2101310840002806
:1019600016D15A480068084358490860FFF774FACE
:10197000054606E0FFF770FA401B642801D90320F2
:10198000A3E652480068FF21013108400028F1D049
:1019900000BFA068012806D14B48006A0121084316
:1019A000494908622BE0A06800280CD14648006A2B
:1019B00040084000444908620846006A0421884300
:1019C000414908621BE0A06805280CD13E48006A26
:1019D000042108433C4908620846006A0121084383
:1019E000394908620BE03848006A4008400036492F
:1019F00008620846006A042188433349086200BF30
:101A0000A068002813D0FFF727FA054608E02BE06E
:101A1000FFF722FA401B2E49884201D9032054E6E1
:101A20002948006A022108400028F1D011E0FFF7A0
:101A300013FA054607E0FFF70FFA401B24498842D6
:101A400001D9032041E62048006A0221084000280D
:101A5000F1D10198012806D11B48C069012109076D
:101A600088431949C86100BF102120680840102828
:101A700060D1606901282DD11348406B04210843CF
:101A8000114948630846406B012108430E494863E9
:101A9000FFF7E2F9054606E0FFF7DEF9401B0228F2
:101AA00001D9032011E60848406B022108400028B4
:101AB000F2D00548406BF8218843A169C90008436A
:101AC0000149486336E00000001002400070004009
:101AD000881300006069401D00280FD15A48406BF0
:101AE00004218843584948630846406BF8218843DD
:101AF000A169C9000843544948631BE05248406B40
:101B000004210843504948630846406B40084000A0
:101B10004863FFF7A1F9054606E0FFF79DF9401B72
:101B2000022801D90320D0E54748406B0221084034
:101B30000028F2D1206A00284FD0434840680C2189
:101B40000840082864D0206A022847D13E4800682F
:101B50000121090688433C490860FFF77DF90546E5
:101B600006E0FFF779F9401B022801D90320ACE514
:101B7000354800680121490608400028F1D100BF1E
:101B80003148C06A00090001E16A08432E49C86271
:101B9000616AA06A08432C4949683D2212049143B6
:101BA00008432949486000BF08460068012109062A
:101BB000084325490860FFF74FF9054606E0FFF79F
:101BC0004BF9401B022801D903207EE51E4800681E
:101BD0000121490608400028F1D033E01A48006886
:101BE00001210906884318490860FFF735F90546C1
:101BF00006E0FFF731F9401B022801D9032064E514
:101C0000114800680121490608400028F1D119E077
:101C1000206A012800D158E50B484668C76A0120B0
:101C200000043040616A88420AD13907090FE06A2E
:101C3000814205D10F2080043040A16A884201D042
:101C4000012042E5002040E50010024070B5044646
:101C50002546681E0949884201D901200CE0681E0A
:101C6000074948610321081F01F016FB00200449C1
:101C7000886107200861002070BD0000FFFFFF00A1
:101C800000E000E030B502460B4600BF3C20805C1F
:101C9000012801D1022030BD01253C20855400BF20
:101CA00002253D20855410684468106881687025BD
:101CB0002046A843044618680443106844600F4D4A
:101CC0001068A84207D00E4D1068A84203D00D4DF1
:101CD0001068A84207D180250846A84301465868E5
:101CE00001431068816001253D20855400BF002517
:101CF0003C20855400BF0020CDE70000002C0140AF
:101D0000000400400040014010B50446002C01D101
:101D1000012010BD3D20005D002805D100213C20A0
:101D20000155204600F022F802213D200155211DD9
:101D3000206800F02FFF01214620015500BF3E2002
:101D400001553F200155402001554120015500BF5C
:101D500000BF422001554320015544200155452034
:101D6000015500BF3D2001550020D2E708B5094AC2
:101D7000016891420DD100BF0749C9690222114390
:101D8000054AD1611146C96902221140009100BF84
:101D900000BF08BD0004004000100240F8B5044632
:101DA0000D460020009000BF3C20005D012801D1BD
:101DB0000220F8BD01213C20015500BF02213D2039
:101DC0000155206886687721304688430646FF2102
:101DD00009023046884306462068866028685028F5
:101DE00034D00CDC202851D004DC00284CD0102842
:101DF00052D14AE030284AD040284DD13AE06028FC
:101E00002ED0702807D001210903401A02D0401AB1
:101E100042D10DE043E0EB686A68A968206800F0F1
:101E200009FF20688668772006432068866036E0D0
:101E3000EB686A68A968206800F0FCFE206880688A
:101E40000121890308432168886028E0EA686968FD
:101E5000206800F009FF5021206800F0F9FE1EE024
:101E6000EA686968206800F018FF6021206800F0C7
:101E7000EFFE14E0EA686968206800F0F5FE402192
:101E8000206800F0E5FE0AE000BF00BF00BF29683F
:101E9000206800F0DDFE02E00120009000BF00BFDE
:101EA00001213D20015500BF00213C20015500BF0C
:101EB00000987EE770477047F0B585B0044620680B
:101EC000C5692068066820688768E0482840039054
:101ED000039800280FD12020284000280BD0202074
:101EE0003040002807D0606E002802D02046616E86
:101EF000884705B0F0BD039800287DD0F807C00FD3
:101F0000002803D1D24830400028F6D0E807C00F9F
:101F100000280DD0FF2001303040002808D00120DB
:101F2000216808628020005901210843802108515E
:101F30000220284000280CD0F807C00F002808D045
:101F40000220216808628020005904210843802172
:101F500008510420284000280CD0F807C00F0028A2
:101F600008D004202168086280200059022108431B
:101F70008021085108202840002810D0202030401F
:101F8000002803D1F807C00F002808D008202168D6
:101F9000086280200059082108438021085101204F
:101FA000C002284000280ED00120800630400028C2
:101FB00009D00120C0022168086280200059202138
:101FC00008438021085180200059002854D0202047
:101FD0002840002809D020203040002805D0606E1D
:101FE000002802D02046616E884780200059029068
:101FF00020688068402100E03FE00840402804D08D
:10200000282102980840002830D0204600F01CFF0C
:102010002068806840210840402823D100BF01F09B
:1020200077F90190012001F006FA206880684021CC
:10203000884321688860019801F0FDF900BF206F96
:1020400000280BD08348216F4863206FFEF7BAFD4C
:10205000002811D0206F416B88470DE02046FFF724
:102060002AFF09E02046FFF726FF05E02046FFF79C
:1020700022FF0021802001513BE7206E01287AD108
:1020800010202840002876D0102030400028FAD0B8
:10209000102021680862206880684021084040289C
:1020A0006BD1206F0068406880B2019001980028D1
:1020B00060D05820015B019881425BDD5A21019874
:1020C0000853206F806920284BD000BF01F020F911
:1020D0000090012001F0AFF920680068FF21013174
:1020E000884321680860009801F0A5F900BF00BF8F
:1020F00001F00EF90090012001F09DF92068806840
:102100004008400021688860009801F094F900BF01
:1021100000BF01F0FDF80090012001F08CF920686B
:1021200080684021884321688860009801F083F925
:1021300000BF2020E0670020206600BF01F0E8F823
:102140000090012001F077F9206800681021884391
:1021500021680860009801F06EF900BF206FFEF75B
:1021600008FD5820025B5A20005B101A81B22046FD
:10217000FFF7A0FEBDE64CE0FFE75820015B5A20C8
:10218000005B081A80B201905A20005B00283FD003
:10219000019800283CD000BF01F0BAF8009001205F
:1021A00001F049F920680068FF2121318843216846
:1021B0000860009801F03FF900BF00BF01F0A8F8E7
:1021C0000090012001F037F9206880684008400045
:1021D00021688860009801F02EF900BF2020E06798
:1021E00000202066606600BF01F092F80090012098
:1021F00001F021F9206800681021884321680860F7
:10220000009801F018F900BF20460199FFF752FE2F
:102210006FE68020284000280AD080203040002827
:1022200006D0A06E002802D02046A16E884760E646
:1022300040202840002807D040203040002803D00C
:10224000204600F040FE54E600BF52E60F080000B2
:1022500020010004312E000810B50446002C01D1E5
:10226000012010BDA069002800D000E000BFA06FD1
:10227000002805D1002174200155204600F02CF8DB
:102280002420A0672068006840084000216808609A
:10229000204600F033FE012800D1E2E7606A002802
:1022A00002D0204600F012FD206840680121C902DA
:1022B0008843216848602068806808218843216835
:1022C0008860206800680121084321680860204672
:1022D00000F074FDC5E7000010B586B00446142177
:1022E00001A8FDF773FF3749206888422FD100BF4E
:1022F00035488069012189030843334988610846CC
:102300008069012189030840009000BF00BF00BF21
:102310002D484069C90008432B4948610846406977
:10232000012149040840009000BF00BF0320400283
:1023300001900220029000200390032004900120CD
:10234000059001A90920C006FEF77EFC37E01F4971
:102350002068884233D100BF1B48C069012149046D
:1023600008431949C8610846C06901214904084069
:10237000009000BF00BF00BF1348406908431249E6
:10238000486108464069012149040840009000BFA7
:1023900000BF0C20019002200290002003900490C6
:1023A0000120059001A90920C006FEF74DFC00227E
:1023B00011461C20FEF79CFF1C20FEF78BFF06B089
:1023C00010BD0000003801400010024000440040F1
:1023D000FFB583B004460D461746A06F202876D17E
:1023E000002D01D0002F02D1012007B0F0BD012146
:1023F0000903A068884208D12069002805D1E807B0
:10240000C00F002801D00120EFE700BF7420005D5D
:10241000012801D10220E8E701217420015500BF05
:102420000021802001512120A067FEF715FD0190B9
:10243000502007535220075301210903A068884206
:1024400005D12069002802D10026029502E02E461F
:102450000020029000BF00217420015500BF21E040
:1024600006980090002280212046019B00F014FE77
:10247000002801D00320B8E7002E09D10298008877
:10248000C005C00D216808850298801C029003E0F9
:10249000307821680885761C5220005B401E81B28E
:1024A000522001535220005B0028D9D10698009099
:1024B000002240212046019B00F0EEFD002802D0C2
:1024C000032092E703E02020A06700208DE7022090
:1024D0008BE7704700BFFEE701688969022211405F
:1024E0004908002902D000210268916201688969C7
:1024F000C907C90F012251405140002904D1016888
:1025000089691143026891617047000070B5044603
:102510000D461646206880691021084000090028F1
:102520004BD02068406849050840884205D02068A3
:102530004068C91208432168486018E0681C0028F8
:1025400015D0FEF789FC801BA84201D8002D0ED1C2
:10255000606C202108436064412001550021422025
:10256000015500BF4020015500BF012070BD20680B
:1025700080692021084040090028DFD01020216810
:10258000C86120202168C8612046FFF7A5FF2068A8
:1025900040680B49084021684860606C042108438A
:1025A000606420214120015500214220015500BFD7
:1025B0004020015500BF0120D8E70020D6E70000E9
:1025C00000E800FEF0B504686568059C640D01260E
:1025D000B6023440084E26432C46B4438D05AD0D5B
:1025E0001604FF273F043E4035431D43059E3543F7
:1025F0002C4305686C60F0BDFF63FF03F8B504462B
:102600000E4617461D4619E0681C002816D0FEF736
:1026100023FC0699401AA84201D8002D0ED1606C07
:1026200020210843606441200155002142200155CA
:1026300000BF4020015500BF0120F8BD206880691F
:102640003040B04201D1012000E00020B842DBD090
:102650000020F2E770B504460D4616461EE03246ED
:1026600029462046FFF752FF002801D0012070BD07
:10267000FEF7F2FB801BA84201D8002D0ED1606C42
:10268000202108436064412001550021422001556A
:1026900000BF4020015500BF0120E8E720688069A5
:1026A0002021084040090028D9D00020DFE770B57C
:1026B00004460D46164621E0324629462046FFF7DD
:1026C00025FF002801D0012070BD681C002815D00E
:1026D000FEF7C2FB801BA84201D8002D0ED1606C12
:1026E000202108436064412001550021422001550A
:1026F00000BF4020015500BF0120E5E72068806948
:102700000221084040080028D6D00020DCE710B5A0
:10271000012000F03DF810BD10B53220FEF77EFA22
:10272000302000F035F80520FEF778FA302000F070
:102730002FF80120FEF772FA302000F029F80A2065
:10274000FEF76CFA202000F023F80A20FEF766FA64
:10275000282000F01DF80120FEF760FA082000F0A4
:1027600017F80120FEF75AFA012000F011F80120B5
:10277000FEF754FA0120FEF751FA062000F008F89F
:102780000120FEF74BFA0C2000F002F810BD00000B
:102790007CB50446F020204005462001F021084089
:1027A00006460C2028436946087108202946014343
:1027B000684641710C20314601436846817108200A
:1027C00030436946C8716420042301AA4E21009059
:1027D0000148FEF721FC7CBD340000207CB5044696
:1027E000F020204005462001F021084006460D203B
:1027F000284369460871092029460143684641710A
:102800000D203146014368468171092030436946F5
:10281000C8716420042301AA4E2100900148FEF7EC
:10282000FBFB7CBD3400002010B5044603E020789B
:10283000641CFFF7D3FF20780028F8D110BD70B5D5
:102840000546012D06D0022D06D0032D06D0042DFD
:1028500008D105E0802405E0C02403E0942401E0D1
:10286000D42400BF00BFE0B2FFF792FF70BD0000AC
:1028700000B587B0142102A8FDF7A8FC00BF3348BB
:1028800040690121C904084330494861084640694C
:102890000121C9040840019000BF00BF00BF2B48C0
:1028A0004069C90008432949486108464069012137
:1028B00089050840019000BF00BF00BF2348406960
:1028C00049110843214948610846406901214904EA
:1028D0000840019000BF00BF00BF1C48406949008C
:1028E00008431A49486108464069012189040840A3
:1028F000019000BF00BF002220210920C006FEF782
:10290000A4FA01204003029021200004039000203B
:10291000049002A90E48FEF797F9202002900120AA
:10292000039000200490059002A90920C006FEF73C
:102930008BF9FF200130029000200390049002A93F
:102940000448FEF781F907B000BD00000010024006
:10295000000800480004004810B5134813490860F7
:10296000134848600021114881600121C1600021A5
:10297000016141618161C1610162FEF7E3FA0028F2
:1029800001D0FEF7F3F800210848FEF76BFA0028A3
:1029900001D0FEF7EBF800210448FEF79AFA002870
:1029A00001D0FEF7E3F810BD0058004034000020CD
:1029B0005D3E302000B587B0002003900490059064
:1029C0000690019002901548154908603020486033
:1029D0000021134881601349C160002101618161B8
:1029E000FFF792F9002801D0FEF7C0F8012000039C
:1029F000039003A90A48FFF7D1F9002801D0FEF798
:102A0000B5F800200190029001A90548FFF73AF9B6
:102A1000002801D0FEF7AAF807B000BD000400406E
:102A200080000020FFFF000010B50E480E4908602E
:102A30004B204002486000210B488160C160016169
:102A40000C21416100218161C161016200200649C0
:102A500048620846FFF700FC002801D0FEF786F820
:102A600010BD000000380140C800002010B50E481D
:102A70000E4908604B204002486000210B488160ED
:102A8000C16001610C21416100218161C16101626C
:102A90000020064948620846FFF7DEFB002801D007
:102AA000FEF764F810BD0000004400404C01002017
:102AB00000BFFEE77047704730B585B005460C464D
:102AC00014216846FDF782FB00940020019001204C
:102AD00002900020039069462846FEF7B5F805B03D
:102AE00030BD30B585B005460C4614216846FDF76B
:102AF0006DFB009401200190002003906946284658
:102B0000FEF7A2F805B030BD10B5FEF77DFB10BD95
:102B100000B595B0302109A8FDF758FB00200590BD
:102B20000690079008900190029003900490022074
:102B3000099001200C9010200D900220119000218E
:102B400012910521C90413910021149109A8FEF7DF
:102B5000B7FD002801D0FEF709F8072005900220F4
:102B60000690002007900890012105A8FEF772FC4E
:102B7000002801D0FDF7FAFF01200190002003900A
:102B800001A8FEF7BFFB002801D0FDF7EFFF15B04D
:102B900000BD704710B50268204B984202D0204B10
:102BA000984205D170241346A3431A464B681A4332
:102BB0001A4B98420ED01A4B98420BD0194B9842A0
:102BC00008D0194B984205D0184B984202D0184BA8
:102BD000984206D1032424021346A3431A46CB6825
:102BE0001A4380241346A3434C6923431A460260C8
:102BF0008B68C3620B688362084B984208D00A4B0B
:102C0000984205D0094B984202D0094B984201D115
:102C10000B6903630123436110BD0000002C0140D8
:102C200000040040002000400040014000440140FA
:102C30000048014070B50C468168FF2636020D46FB
:102C4000B54329461D02154325432943816070BDC4
:102C500010B50A46816870240B46A3431946072322
:102C600013431943816010BD70B50B461446026AC8
:102C7000056A6D086D0005628169F0260D46B54351
:102C80002946250129430A261546B5432A461546F5
:102C90001D432A468161026270BD70B50B46144621
:102CA000056A1026B54305628169026A0F2636035C
:102CB0000D46B543294625032943A0261546B543AD
:102CC0002A461D012A438161026270BD818CC907B9
:102CD000C90F002908D001684968012252049143B4
:102CE000826A1143026851600222416A114002293E
:102CF00007D101684968D2039143C26A114302684F
:102D000051600422416A1140042907D101684968D1
:102D100012049143026B1143026851600822416A18
:102D20001140082907D10168496812039143426B99
:102D30001143026851601022416A1140102907D1E5
:102D40000168896812029143826B114302689160A5
:102D50002022416A1140202907D1016889681202A6
:102D60009143C26B1143026891604022416A114055
:102D7000402915D10168496892039143026C1143BF
:102D80000268516001221205016C914208D101686C
:102D90004968032252059143426C11430268516015
:102DA0008022416A1140802907D1016849681203D5
:102DB0009143826C114302685160704738B50446F4
:102DC000002180200151FEF747F805462068006881
:102DD0000821084008280BD114482B4600228904FA
:102DE0000090204600F058F9002801D0032038BD9B
:102DF000206800680421084004280BD10B482B46AA
:102E0000002209050090204600F046F9002801D074
:102E10000320ECE72020A067E0670020206600BFC9
:102E200000217420015500BF0020E0E7FFFFFF01F3
:102E300070B505466C6A00215A2001535220015397
:102E40002046FFF738F870BD70B5044600BF00F0AB
:102E50005FFA0546012000F0EEFA20680068FF21C5
:102E60002131884321680860284600F0E4FA00BF59
:102E700000BF00F04DFA0546012000F0DCFA2068A2
:102E800080684008400021688860284600F0D3FA36
:102E900000BF206E012810D100BF00F039FA0546AE
:102EA000012000F0C8FA20680068102188432168DA
:102EB0000860284600F0BFFA00BF2020E06700202D
:102EC0002066606670BD70B5044600BF00F020FA51
:102ED0000546012000F0AFFA2068006840218843D1
:102EE00021680860284600F0A6FA00BF2020A067ED
:102EF0000020A0662046FFF7ECFA70BDFEB5044640
:102F0000002000902169A068084361690843E169D5
:102F10000843029020680068594908400299084314
:102F20002168086020684068032109038843E1683C
:102F3000084321684860A0690290206A029908430A
:102F40000290206880680B21090288430299084397
:102F50002168886000BF4B492068884217D14A48E1
:102F6000006B8007800F002806D0012808D00228B7
:102F700008D0032808D101E0002607E0022605E07A
:102F8000042603E0082601E0102600BF06E03F49C2
:102F90002068884201D1002600E0102600BF0121F0
:102FA000C903E069884239D1002E06D0022E08D02C
:102FB000042E08D0082E0DD109E0FEF707FB0546C8
:102FC0000CE0334D0AE0FEF713FB054606E0012551
:102FD000ED0303E000250120009000BF00BF002D9D
:102FE00049D06A0063685B08D0186168FDF77CF817
:102FF00087B2102F0FD3274887420CD825480F38A7
:10300000384001903807400F01990843019001981A
:103010002168C8602FE0012000902CE0002E06D02F
:10302000022E08D0042E08D0082E0DD109E0FEF79C
:10303000CDFA05460CE0164D0AE0FEF7D9FA054632
:1030400006E00125ED0303E000250120009000BF0C
:1030500000BF002D0FD061684A085019FDF744F8F1
:1030600087B2102F05D30B48874202D82068C7606B
:1030700001E00120009000206066A0660098FEBD7F
:10308000F369FFFF00380140001002400044004097
:1030900000127A00FFFF0000FFB581B004460D4624
:1030A00017460A9E78E0701C002875D0FDF7D4FE04
:1030B0000499401AB04201D8002E2DD100BF00F073
:1030C00027F90090012000F0B6F920680068FF2180
:1030D000A131884321680860009800F0ACF900BF76
:1030E00000BF00F015F90090012000F0A4F920685D
:1030F00080684008400021688860009800F09BF9D3
:1031000000BF2020A067E06700BF002174200155A8
:1031100000BF032005B0F0BD20680068042108400E
:10312000002839D02068C06949020840C00A002838
:1031300032D008462168086200BF00F0E9F800902C
:10314000012000F078F920680068FF21A131884350
:1031500021680860009800F06EF900BF00BF00F021
:10316000D7F80090012000F066F9206880684008D8
:10317000400021688860009800F05DF900BF2020C1
:10318000A067E06720218020015100BF002174204A
:10319000015500BF0320BDE72068C0692840A84250
:1031A00001D1012000E00020B84200D17BE70020DF
:1031B000B0E7000010B50248FEF77EFE10BD00002B
:1031C0004C0100200FB410B503A9044B044A029827
:1031D00000F0F4F910BC08BC04B01847213D000809
:1031E000180000200FB410B504A9074B02AA0398D9
:1031F00000F0E4F9044602A9002000F07DFD20461D
:1032000010BC08BC04B01847F93C00082021020C8F
:1032100001D010211046020A01D0104608390209D7
:1032200001D01046091F820801D01046891E4208AD
:1032300001D0881E7047081A7047F8B582B28BB269
:10324000040C0D0C10465843002126465E43370CF3
:1032500036048019794116466E43370C36048019BE
:10326000794126466E438919F8BD00004900CA021B
:103270000243100000D004204A0D01D00122104367
:10328000044A490D914201D102210843012800D18D
:1032900005207047FF07000010B5002819DB1A4A07
:1032A00003231B02D21883089B00D2588307DC0E2D
:1032B000FF23A3409A438B071B0E8407E40EA34011
:1032C0001A43114B032424021B198408A4001A5129
:1032D00018E00E4A03071B0F083B9B089B00D258BF
:1032E0008307DC0EFF23A3409A438B071B0E840742
:1032F000E40EA3401A43054B0407240F083CA4081E
:10330000A4001A5110BD000000E100E01CED00E037
:10331000EFF310807047F8B504464F1EC800083818
:10332000211815461E46086849683A4606239A43FE
:1033300010D02A463346FCF7EBFF3A46D200083A53
:10334000A3181A687F1E5B68FDF764F906223B46E6
:103350009343EED1022F23D0042F11D0062F2FD16B
:103360002A463346FCF7D4FFE36AA26AFDF752F916
:103370002A463346FCF7CCFF636A226AFDF74AF916
:103380002A463346FCF7C4FFE369A269FDF742F918
:103390002A463346FCF7BCFF63692269FDF73AF918
:1033A0002A463346FCF7B4FFE368A268FDF732F91A
:1033B0002A463346FCF7ACFF63682268FDF72AF91A
:1033C000F8BD0000002210B5134610460149FDF774
:1033D000D5F910BD0000F03F10B5FDF71BF910BD89
:1033E000002210B5134610461146FDF7C7F910BD6F
:1033F00010B50721024A00200907FDF737FA10BD72
:1034000001030000034A10B500201107FDF72EFA52
:1034100010BD000001FDFFFF02E008C8121F08C137
:10342000002AFAD170477047002001E001C1121F45
:10343000002AFBD1704780F310887047014908606B
:10344000704700001C000020F0B51FB486B009983A
:10345000089A030D0021024314D05148514A18180C
:10346000504305141198012810981AD0281A401CAE
:1034700000264D4F4D49009601910490002812DA24
:10348000444211E01198012449A3012801D1109868
:10349000C1430698119A84600360C26041600BB01A
:1034A000F0BD4042E4E70446210500203F4A001CED
:1034B00051410391029012E0E00707D032463B46AB
:1034C00001990098FCF724FF0191009032463B4699
:1034D00010461946FCF71CFF06460F466410002CE8
:1034E000EAD10498039B0028029A0999089806DA01
:1034F000FCF70EFF019B009AFCF70AFF05E0FDF7C1
:103500003DF9019B009AFDF739F904460E46002269
:10351000284BFDF7E1F903D80020C043014607E03E
:103520000022254B20463146FDF774F8FDF7B4F92B
:10353000102409E0002C0ADB0A220023FCF7FEFD20
:10354000079B30321A55641E02460A43F2D11122FB
:10355000641C079B121B1C19119B012B03D0012318
:1035600008430ED10AE0084304D011201090002037
:10357000119077E71098151A6D1E0BE01098824293
:1035800002DD00236D1C03E0824201DA00236D1E80
:10359000002BEED0069811998260C16030C07EE7A2
:1035A00001FCFFFF104D0000000014400000F03F40
:1035B000300000000000F0430000E03FFFB597B08E
:1035C000064600251BE2252876D100242746F74928
:1035D000049400E00443761C32780120203A9040A5
:1035E0000842F7D130782A280ED0022230780146DE
:1035F0003039092916D804990A235943303940181B
:103600001443761C0490F1E7189802C804911890AE
:10361000002904DA012040030443484204900220B8
:103620000443761C30782E2814D10420044370788B
:10363000761C2A2809D11898761C80C8189009E0B1
:103640000A214F43303FC719761C30780146303984
:103650000929F5D930786C2810D006DC4C281AD00E
:1036600068280ED06A2817D104E0742813D07A286D
:1036700012D110E00120400504430CE001210905AE
:1036800001E0032109050C437178814203D1012037
:1036900000052418761C761C307866280BD013DCC5
:1036A00058287DD009DC00287BD04528F6D0462854
:1036B000F4D047281AD1A9E118E0632835D064284E
:1036C00070D0652812D1A1E170286CD008DC672881
:1036D000F1D069287DD06E280DD06F2806D1BCE0CE
:1036E00073282ED0752873D0782859D01A9A199932
:1036F00090476D1C82E16002400F022809D0032828
:103700000DD00428189801680DD00D60001D189088
:1037100074E11898EA1701680D604A60F6E7189896
:1037200001680D80F2E70D70F0E718986A4601789D
:103730001172001D18900020507202A80090012004
:1037400005E0189802C8189000200091C043610756
:103750000ED5002101E00199491C0191B94213DA0B
:103760008142F8DB019A0099895C0029F3D10BE0D2
:10377000002101E00199491C01918142FADB019A83
:103780000099895C0029F5D1019904981A9B471A80
:1037900021463846199A00F099FA4019019903E038
:1037A00051E030E115E050E0451807E0009800993D
:1037B0000078491C00911A9A199990470198401E67
:1037C0000190401CF2D1214638461A9B199A12E109
:1037D00037E00A200021009001916002410F022988
:1037E00007D0189A01CA1892C2179446032908D024
:1037F0000AE01898C01DC108C90005C9189194466F
:1038000007E000B2C2179446042902D140B2C117A2
:103810008C4600226146944506DA0A460021404261
:1038200091418C462D2102E0210504D52B216A46C9
:103830001173012103E0E10701D02021F7E7029194
:1038400056E00A200AE0102008E010200090002135
:10385000042004430191082703E00820002101917E
:1038600000906002410F022907D0189A01CA1892ED
:1038700000229446032908D008E01898C01DC1080A
:10388000C90005C91891944603E080B2042900D10B
:10389000C0B20021029121072AD531780D917029FB
:1038A00006D0009A1021019B4A401A4305D00EE031
:1038B00040216A461173012108E06146014306D0A8
:1038C00030216A4611730D99517302210291009AB9
:1038D0000821019B4A401A430AD16146014301D1A4
:1038E000610705D530216A46117301217F1E0291BF
:1038F0003178582904D02EA10E910DA90D910DE01B
:1039000030A1F9E76146019B009AFCF717FC0E9B7A
:103910008C469B5C0D9A521E0D92137061460143BA
:10392000F0D10D9805A9081A20300190600703D541
:1039300001200004844300E001270198874201DD53
:10394000381A00E0002001990090411802980918E7
:103950000498401A0490E00306D421461A9B199A51
:10396000049800F0B3F94519002706E003A81A9A55
:10397000C05D199990476D1C7F1C02988742F5DB4A
:10398000E0030CD521461A9B199A049800F09EF981
:10399000451904E01A9A3020199990476D1C009936
:1039A000481E00900029F5DC1FE0000009280100F6
:1039B00030313233343536373839616263646566A5
:1039C0000000000030313233343536373839414267
:1039D00043444546000000000D980D990078491CAD
:1039E0000D911A9A199990476D1C0199481E0190E2
:1039F0000029F1DC4DE100F059F94519761C3078C9
:103A0000002800D0DFE528461BB0F0BD600700D4D9
:103A100006271898C01DC108C90048680A680831FF
:103A2000C30FDB071891190001D09CA108E0210504
:103A300001D59BA104E0E10701D09AA100E09AA181
:103A40004300109130785B0865280CD006DC4528CF
:103A500009D046281DD0472841D141E0662818D01A
:103A600067283CD13CE00021112F01DB112000E050
:103A7000781C0191009008A911A8FFF7E5FC1399A3
:103A800005910021119A15927F1C129801970091BF
:103A900050E00120C00703900120019008A9009781
:103AA00011A8FFF7D1FC139A149905920022119BDB
:103AB000009212981593059A0192002901D01046A0
:103AC00002E0791C40180190381A01D5019804E0F1
:103AD0004042401E0090781C0190C01B029043E0C1
:103AE000012F00DA01270021112F01DD112000E054
:103AF00038460191009008A911A8FFF7A5FC139979
:103B00000591119A002112981592009101972107B1
:103B10000CD40599B94201DB019900E0019101291A
:103B200004DD159A491E515C302906D0B84201DAED
:103B3000011D05DA0121029115E00199491EEDE709
:103B4000002805DC0099411800910199091A03E049
:103B5000019A411C914200DD01910099401A401CDC
:103B600002900120C0070390200706D40299019813
:103B7000814202DB0020C043029000206946C877E2
:103B800007AF012103980337C907884224D00220D8
:103B900011902B201290039800280CDA40420390D9
:103BA0002D20129007E00A210398FCF79DFA30318E
:103BB0007F1E039039701199481E11900029F2DC84
:103BC00003980028EFD1791E1298087030782021D0
:103BD00008404530BF1E387006A8C01BC01D0390AA
:103BE00010980078002800D001200199411802980F
:103BF000C0170918039809180498401A401E049029
:103C0000E00306D421461A9B199A049800F05EF846
:103C1000451910980078002803D01A9A19999047EE
:103C20006D1CE00324D521461A9B199A049800F0D4
:103C30004DF845191CE00098002807DB009905980D
:103C4000884203DD1598405C199901E019993020EC
:103C50001A9A904700986D1C401C00900298401ED4
:103C60000290002804D11A9A2E20199990476D1CB1
:103C70000199481E01900029DDDC05E038781A9A88
:103C80007F1C199990476D1C0399481E03900029C9
:103C9000F4DC21461A9B199A0498ACE62D0000002A
:103CA0002B0000002000000000000000F8B50446D2
:103CB00000251E461746880404D405E03946202016
:103CC000B0476D1C641EF9D52846F8BDFFB5044603
:103CD000002581B01E46C80301D5302700E020270B
:103CE000880404D505E038460399B0476D1C641E6E
:103CF000F9D5284605B0F0BD0A68531C0B6010705A
:103D0000704700000021054A1268516200BF034954
:103D10000968496A8142FAD3704700008000002098
:103D200013B50C46034B012269460348FEF750FBCE
:103D300000981CBDFFFF00004C010020F0B58BB0C7
:103D400006460C4615463046FCF76AFB0990099872
:103D5000FCF746FB31460790FCF798FA08900022E2
:103D60002146099800F02EF80746002D26D02E2077
:103D7000E0552846FCF740FB02460B4601910090B7
:103D800000200F4900F018F9059104900898FCF7FD
:103D900060FB03910290059B049AFCF7B9FA079126
:103DA0000690FCF76AFB08900898FCF739FB07902F
:103DB000E019411C2A46079800F004F80BB0F0BD4A
:103DC00000002440F8B506460D46174600240CE0D6
:103DD0000A213046FCF79EF930312046641C2954F4
:103DE0000A213046FCF796F90646002EF0D103E092
:103DF00030222046641C2A54BC42F9DB2146284666
:103E000000F0D8FD002028552046F8BD8AB0FDF707
:103E100007FAFEF77DFEFEF72BFDFEF7CBFDFEF762
:103E200025FEFEF799FDFEF7FFFDFEF775FC01206C
:103E3000FEF705FD40A0FEF7F7FC0220FEF7FFFCB1
:103E400040A0FEF7F1FC0320FEF7F9FC40A0FEF7CE
:103E5000EBFC7D200001FCF7E1FEFEF758FCFEF7CD
:103E60005BFC0220FEF7EBFC3CA0FEF7DDFC04202F
:103E7000FEF7E5FC3FA0FEF7D7FCD220FEF788FC5A
:103E8000DF20FEF7ABFCE720FEF782FC2520FEF7E3
:103E9000A5FC4FE07D200001FCF7C0FE3948FCF78F
:103EA000CBFD384908683849FCF7F4F93749086010
:103EB000344948683449FCF7EDF93549086033481E
:103EC0000068FCF7C6FA044622460B4631A0FFF70D
:103ED00079F92F480068FCF7BCFA044622460B46E5
:103EE0002FA0FFF76FF929480068FCF7B2FA0446E3
:103EF00022460B462EA105A8FFF774F9CE20FEF747
:103F000047FC05A8FEF790FC21480068FCF7A1FAE1
:103F1000044622460B4626A16846FFF763F9E220D5
:103F2000FEF736FC6846FEF77FFC7D200001FCF7BB
:103F300075FE00BFAEE700002057656C636F6D65CE
:103F4000200000002020202061742020200000009C
:103F50002020472D486F75736520000054656D70F3
:103F60002E3A202020202020202020202020204306
:103F70000000000052656C2E48756D2E3A202020FE
:103F80002000000020000020000020410000002050
:103F90000400002054203D20252E3166200A000018
:103FA000525F68203D20252E3166200A0000000067
:103FB000252E316600000000F0B51FB496B084468F
:103FC0000C460246199D189803904900680063004A
:103FD000490840080193002A01D0012600E000268C
:103FE0009E19FE4BF6185B109E422BD36E00039F6A
:103FF0000296002F00D00127F719F84EF84BBE1992
:104000009E421FD3039E0346F64F334309D03B46DF
:104010009C4201D1002A04D0019B002A05D0012630
:1040200004E0002039461BB0F0BD00269E19EE4B7F
:104030009E4207D8039F029E002F00D00127F61949
:104040009E4207D92B4660462146189AFFF7C4F9CD
:104050001BB0F0BD0023002C29DAE44EB04226DA72
:10406000E34EB04201DB022321E0DE4EB0421EDB14
:10407000E04E070DBE19142E09DD3427BF1B039E29
:10408000FE400196BE40039FBE420BD00FE0039F4F
:10409000002F0CD11427BF1B0646FE400196BE40E0
:1040A000864204D1019BDE07F60F02239B1B0E46BE
:1040B000164318D1002D16DA002C03D0022B01D0A4
:1040C000012B06D00220FFF7B9F9FFF77BF91BB0EF
:1040D000F0BD0220FFF7B2F9FFF774F90122D20711
:1040E00051401BB0F0BD039E002E61D1BF4EB042C7
:1040F00020D1C148844201D1002A08D0B948814268
:1041000009DB002D10DB189829461BB0F0BD0020FC
:10411000B4491BB0F0BD002D06DA01222946D207B2
:10412000189851401BB0F0BDB449794408684968FB
:104130001BB0F0BDAB4FB84225D1002D1FDA0029CE
:1041400004D0B14212D1002A09D018E0002A72D15D
:10415000A649E20F0020D20711431BB0F0BD00209A
:10416000E20F0146D20711431BB0F0BDB14206DA9F
:10417000234600203946FCF701FB1BB0F0BD10467A
:1041800021461BB0F0BDB14212DA0126B607B54296
:1041900003D1234610461946FEE3994EB54207D196
:1041A000261E05DB1046314600F012FC1BB0F0BDA8
:1041B00067007F081646002A40D100290AD08B4AA2
:1041C000914229D1002C0EDD002D1CDB0020114670
:1041D0001BB0F0BD022B16D0002C14D0012B12D135
:1041E000002C14DB0FE0002C28DA002D09DB012B5A
:1041F00003D000207D491BB0F0BD002081491BB0D9
:10420000F0BD012B03D0002001461BB0F0BD002003
:104210000121C9071BB0F0BD724A91420ED1002C9A
:1042200001DA002B17D0022B06D00020C043FCF788
:10423000E3F81BB0F0BD90E20120F8E7E217521C52
:1042400094461A4307D000220892664C62465B1ED1
:104250001A4307D009E00120FFF7F0F8FFF7C0F894
:104260001BB0F0BD0022644C0892674A90427DDD8D
:10427000664B674A98421FDD914202DC002D05DB48
:104280004DE05848814217DB002D48DD0220FFF742
:10429000D5F8FFF7ADF805460E460022534B2146F0
:1042A0000898FCF735F8084671004908C00FC007A8
:1042B000014328461BB0F0BD914215DA002D2EDADD
:1042C0000220FFF7BBF8FFF793F805460E460022E1
:1042D000464B21460898FCF71BF872005208C80F9D
:1042E000C0070243114617E03E4B994223DD002DE3
:1042F00015DD0220FFF7A2F8FFF77AF805460E4613
:1043000000223A4B21460898FCF702F80846710053
:104310004908C00FC007014328461BB0F0BD02206A
:10432000FFF78CF8FFF76EF849004908E20FD20753
:1043300011431BB0F0BD002230463946FCF70FFA9E
:10434000012205460E46D243FCF790FA314A324B21
:10435000FCF70BFA2A463346FBF7DAFF0022284B1C
:10436000FCF703FA07462A46334600E064E003916F
:1043700010461946FBF7CCFF3A46039BFBF7C8FFF4
:104380000746032209915207244B28463146FBF782
:10439000BFFF07910C90224A204B38460999FBF742
:1043A000B7FF074601911F4A1F4B28463146FBF7CE
:1043B000AFFF3A46019BFCF7D2F907460B4602468F
:1043C000099107990C98FCF725F900250E46284617
:1043D000079B0C9AFCF7C3F93A4627E0FFFF1F0042
:1043E000FFFF0F000000F03F0000E0FF0000F07F43
:1043F0000000404301FCFFFF0000F0BF8A090000FD
:104400000000E03F0000F0FF0000E0410000F0434A
:10441000FFFFEF3F555555555555D53F4715F73FCC
:10442000FE822B6544DF5DF80BAE543E099BFCF722
:104430009CF902460B4652E1012500202D05A942B8
:1044400007DA352230463946FCF710FA06463420A2
:10445000C0430A151218FE48101803900803FD49BE
:10446000000B01430F46FC49884201DC002003E0B9
:10447000FA49884202DA0120119005E000201190EB
:104480000398401C7F1B039011980597C200F448C5
:104490000F927844801843680268394630460D937D
:1044A0000292FCF75CF907910C9030460D9B029A42
:1044B0000599FCF7AFF802460B460020E549FCF7EA
:1044C0005DF909910490079B0C9AFBF721FF12906C
:1044D00000201090E3480D46784400680E900121BA
:1044E00078104907084311990D9B89044018012150
:1044F000C90447183946029A0E98FCF730F932463B
:10450000059BFCF732F902460B4629461098FBF74B
:10451000FFFE064602913B4629460E9A1098FBF78D
:10452000F7FE079B0C9AFCF720F93246029BFCF73A
:1045300016F9099B049AFBF7EBFE0591129A0A9073
:104540002B4610461946FBF7E3FE06460246C648D0
:104550000F460B4606217844FEF7DDFE32463B4609
:104560000091049010461946FBF7D2FE009B049A76
:10457000FBF7CEFE06460F462B461946129A1098B8
:10458000FCF748F8059B0A9AFBF7C2FE32463B4609
:10459000FCF740F8109A079104902B4610461946F4
:1045A000FBF7B6FEB14E0022334609910290FCF7AC
:1045B00031F8079B049AFCF72DF8002007460246C5
:1045C00033460091FCF7CBF8099B029AFCF7C7F839
:1045D000079B049AFCF7C9F806460D913A4629460E
:1045E000009B1098FBF794FE07910C902B463046E9
:1045F000129A0D99FBF78CFE05460E463A46009B33
:1046000005990A98FBF784FE33462A46FCF702F820
:1046100002460B460746099107990C98FBF7FAFFEB
:1046200000250E462846079B0C9AFCF798F83A4658
:10463000099BFCF79AF807460722099152078C4B11
:1046400031462846FBF764FE07910090894A884B63
:1046500038460999FBF75CFE07460191864A874B6D
:1046600031462846FBF754FE3A46019BFBF7D2FF42
:10467000834B7B440F9A9B181A685B68FBF7CAFF51
:10468000029009910398FBF7B7FE05910490099BEE
:10469000029A07990098FBF7BDFF7A4B7B440F9A6B
:1046A0009B181A685B6817460393FBF7B3FF059BDB
:1046B000049AFBF7AFFF0E462846059B049AFCF7C9
:1046C0004EF83A46039BFCF74AF8079B009AFCF722
:1046D00046F8099B029AFCF748F802460B461999DE
:1046E00000200C900F461898FBF712FE02910490E0
:1046F0003B460C9A19991898FCF731F82A4633462C
:10470000FBF706FE029B049AFBF784FF09910E90CB
:104710002A46334639460C98FBF7FAFD06460F4603
:10472000099B0E9AFBF776FF574A0D46914220DB14
:104730005242AA18024310D132463B46FCF70FF80A
:1047400004900391514A524B09990E98FBF762FF6E
:10475000039B049AFCF7C0F81ED20220FEF76EFEFF
:10476000FEF746FE49004908E20FD20711431BB08D
:10477000F0BD6A00474B52089A420DD3464AAA1828
:10478000024300D0CBE532463B46FBF7E8FF099BEE
:104790000E9AFCF7A1F8F5D96800002340082C49CF
:1047A0000393020D3D4B5218984223DD0120000572
:1047B000521CD04042195000400D401838497944ED
:1047C000096813468C463749C1408B4312030121C7
:1047D000120B090551181422101AC1400391002D23
:1047E00001DA48420390624630463946FBF7B7FF8C
:1047F00006460F4632463B4609990E98FBF70AFFDC
:1048000000252A46284B28460591FBF781FD079194
:104810000C90264A264B28460599FBF779FD009116
:10482000029032463B4628460599FBF798FF099BC4
:104830000E9AFBF79AFF1F4A1F4BFBF769FD009B7F
:10484000029AFBF7E7FE07460B460246099135E060
:1048500001FCFFFF0000F03F8E9803007AB60B00CA
:104860009A050000DC050000060500000000084075
:1048700009C7EE3FFD033ADCF5015B14E02F3EBEB5
:10488000DA030000A003000000009040FE822B65C8
:104890004715973C00CC904000346F3F0000E03F4C
:1048A000F6020000FFFF0F00432EE63F396CA80C14
:1048B000615C20BEEF39FAFE422EE63F07990C9864
:1048C000FBF7A8FE05460E46079B0C9AFBF747FF31
:1048D0003A46099BFBF749FF09912A4633460E9059
:1048E00010461946FBF714FD074602462F480B46B3
:1048F000059105217844FEF70EFD3A46059BFBF72E
:1049000007FD2A463346FBF730FF0746019128464C
:104910003146099B0E9AFBF7FBFC099B0E9AFBF7AD
:1049200079FE012304910C9000229B0738460199DF
:10493000FBF715FF05910E903A4628463146019B3C
:10494000FBF7E6FC059B0E9AFBF718FF049B0C9AFD
:10495000FBF705FF2A463346FBF701FF0022144B05
:10496000FBF703FF064603980D460005411909159C
:10497000002912DC30462946039AFBF777FFFEF741
:1049800075FC042801D1FEF73DFD30462946039A07
:10499000FBF76CFF064601E004E029180B4632469F
:1049A00021460898FBF7B4FC1BB0F0BD980100004D
:1049B0000000F03F30B50C460021621E05E0435C6C
:1049C000855C45548354491C521E9142F7DB30BD2F
:1049D000F8B506460C46FBF7B8FF051E0F4600D09B
:1049E0000120014349000B484908411AC90F0DD065
:1049F000002E01D0012100E000210C436100490894
:104A0000401AC00F02D10120FEF718FD2846394692
:104A1000F8BD00000000F07F000000000000000072
:104A20000102030406070809000000000102030454
:104A3000000000000000F03F000000000000F83F10
:104A400000000000000000000000004003B8E23F4A
:104A5000000000000000000006D0CF43EBFD4C3EFC
:104A6000033333333333E33FFFAB6FDBB66DDB3FF1
:104A70004D268F515555D53F01411DA96074D13F39
:104A800065DBC9934A86CD3FEF4E454A287ECA3F33
:104A90003E5555555555C53F93BDBE166CC166BFB5
:104AA0002CDE25AF6A56113FF16BD2C541BDBBBEAE
:104AB000D0A4BE726937663E00000000000000000E
:104AC000E04A000800000020200000001834000820
:104AD000004B000820000020B0050000283400082A
:104AE00000000000000000000000000004000000C2
:104AF0000100000000127A00000000000000000029
:04000005080000B53A
:00000001FF
